{
  "_format": "hh-sol-artifact-1",
  "contractName": "CreatorTradeForSonic",
  "sourceName": "contracts/referral/CreatorTradeForSonic.sol",
  "abi": [
    {
      "anonymous": false,
      "inputs": [],
      "name": "EndMigration",
      "type": "event"
    },
    {
      "anonymous": false,
      "inputs": [
        {
          "indexed": false,
          "internalType": "uint8",
          "name": "version",
          "type": "uint8"
        }
      ],
      "name": "Initialized",
      "type": "event"
    },
    {
      "anonymous": false,
      "inputs": [
        {
          "indexed": true,
          "internalType": "address",
          "name": "creator",
          "type": "address"
        },
        {
          "indexed": true,
          "internalType": "address",
          "name": "holder",
          "type": "address"
        },
        {
          "indexed": true,
          "internalType": "uint256",
          "name": "amount",
          "type": "uint256"
        }
      ],
      "name": "MigrateHolder",
      "type": "event"
    },
    {
      "anonymous": false,
      "inputs": [
        {
          "indexed": true,
          "internalType": "address",
          "name": "previousOwner",
          "type": "address"
        },
        {
          "indexed": true,
          "internalType": "address",
          "name": "newOwner",
          "type": "address"
        }
      ],
      "name": "OwnershipTransferred",
      "type": "event"
    },
    {
      "anonymous": false,
      "inputs": [
        {
          "indexed": false,
          "internalType": "uint256",
          "name": "percent",
          "type": "uint256"
        }
      ],
      "name": "SetCreatorFeePercent",
      "type": "event"
    },
    {
      "anonymous": false,
      "inputs": [
        {
          "indexed": true,
          "internalType": "address",
          "name": "oracle",
          "type": "address"
        }
      ],
      "name": "SetOracleAddress",
      "type": "event"
    },
    {
      "anonymous": false,
      "inputs": [
        {
          "indexed": true,
          "internalType": "address",
          "name": "destination",
          "type": "address"
        }
      ],
      "name": "SetProtocolFeeDestination",
      "type": "event"
    },
    {
      "anonymous": false,
      "inputs": [
        {
          "indexed": false,
          "internalType": "uint256",
          "name": "percent",
          "type": "uint256"
        }
      ],
      "name": "SetProtocolFeePercent",
      "type": "event"
    },
    {
      "anonymous": false,
      "inputs": [
        {
          "indexed": false,
          "internalType": "uint256",
          "name": "percent",
          "type": "uint256"
        }
      ],
      "name": "SetReferralFeePercent",
      "type": "event"
    },
    {
      "anonymous": false,
      "inputs": [
        {
          "indexed": true,
          "internalType": "address",
          "name": "trader",
          "type": "address"
        },
        {
          "indexed": true,
          "internalType": "address",
          "name": "creator",
          "type": "address"
        },
        {
          "indexed": true,
          "internalType": "bool",
          "name": "isBuy",
          "type": "bool"
        },
        {
          "indexed": false,
          "internalType": "uint256",
          "name": "amount",
          "type": "uint256"
        },
        {
          "indexed": false,
          "internalType": "uint256",
          "name": "price",
          "type": "uint256"
        },
        {
          "indexed": false,
          "internalType": "uint256",
          "name": "protocolFee",
          "type": "uint256"
        },
        {
          "indexed": false,
          "internalType": "uint256",
          "name": "creatorFee",
          "type": "uint256"
        },
        {
          "indexed": false,
          "internalType": "uint256",
          "name": "additionalFee",
          "type": "uint256"
        },
        {
          "indexed": false,
          "internalType": "address",
          "name": "referrer",
          "type": "address"
        },
        {
          "indexed": false,
          "internalType": "uint256",
          "name": "referrerFee",
          "type": "uint256"
        },
        {
          "indexed": false,
          "internalType": "uint256",
          "name": "supply",
          "type": "uint256"
        }
      ],
      "name": "Trade",
      "type": "event"
    },
    {
      "inputs": [
        {
          "internalType": "address",
          "name": "",
          "type": "address"
        },
        {
          "internalType": "address",
          "name": "",
          "type": "address"
        }
      ],
      "name": "balance",
      "outputs": [
        {
          "internalType": "uint256",
          "name": "",
          "type": "uint256"
        }
      ],
      "stateMutability": "view",
      "type": "function"
    },
    {
      "inputs": [
        {
          "internalType": "address",
          "name": "creator",
          "type": "address"
        },
        {
          "internalType": "uint256",
          "name": "amount",
          "type": "uint256"
        },
        {
          "internalType": "uint256",
          "name": "additionalFeePercent",
          "type": "uint256"
        },
        {
          "internalType": "address",
          "name": "referrer",
          "type": "address"
        },
        {
          "internalType": "bytes",
          "name": "oracleSignature",
          "type": "bytes"
        }
      ],
      "name": "buy",
      "outputs": [],
      "stateMutability": "payable",
      "type": "function"
    },
    {
      "inputs": [],
      "name": "creatorFeePercent",
      "outputs": [
        {
          "internalType": "uint256",
          "name": "",
          "type": "uint256"
        }
      ],
      "stateMutability": "view",
      "type": "function"
    },
    {
      "inputs": [],
      "name": "endMigration",
      "outputs": [],
      "stateMutability": "nonpayable",
      "type": "function"
    },
    {
      "inputs": [
        {
          "internalType": "address",
          "name": "creator",
          "type": "address"
        },
        {
          "internalType": "uint256",
          "name": "amount",
          "type": "uint256"
        }
      ],
      "name": "getBuyPrice",
      "outputs": [
        {
          "internalType": "uint256",
          "name": "",
          "type": "uint256"
        }
      ],
      "stateMutability": "view",
      "type": "function"
    },
    {
      "inputs": [
        {
          "internalType": "address",
          "name": "creator",
          "type": "address"
        },
        {
          "internalType": "uint256",
          "name": "amount",
          "type": "uint256"
        }
      ],
      "name": "getBuyPriceAfterFee",
      "outputs": [
        {
          "internalType": "uint256",
          "name": "",
          "type": "uint256"
        }
      ],
      "stateMutability": "view",
      "type": "function"
    },
    {
      "inputs": [
        {
          "internalType": "uint256",
          "name": "_supply",
          "type": "uint256"
        },
        {
          "internalType": "uint256",
          "name": "amount",
          "type": "uint256"
        }
      ],
      "name": "getPrice",
      "outputs": [
        {
          "internalType": "uint256",
          "name": "",
          "type": "uint256"
        }
      ],
      "stateMutability": "view",
      "type": "function"
    },
    {
      "inputs": [
        {
          "internalType": "address",
          "name": "creator",
          "type": "address"
        },
        {
          "internalType": "uint256",
          "name": "amount",
          "type": "uint256"
        }
      ],
      "name": "getSellPrice",
      "outputs": [
        {
          "internalType": "uint256",
          "name": "",
          "type": "uint256"
        }
      ],
      "stateMutability": "view",
      "type": "function"
    },
    {
      "inputs": [
        {
          "internalType": "address",
          "name": "creator",
          "type": "address"
        },
        {
          "internalType": "uint256",
          "name": "amount",
          "type": "uint256"
        }
      ],
      "name": "getSellPriceAfterFee",
      "outputs": [
        {
          "internalType": "uint256",
          "name": "",
          "type": "uint256"
        }
      ],
      "stateMutability": "view",
      "type": "function"
    },
    {
      "inputs": [
        {
          "internalType": "uint256",
          "name": "_baseDivider",
          "type": "uint256"
        },
        {
          "internalType": "address payable",
          "name": "_protocolFeeDestination",
          "type": "address"
        },
        {
          "internalType": "uint256",
          "name": "_protocolFeePercent",
          "type": "uint256"
        },
        {
          "internalType": "uint256",
          "name": "_creatorFeePercent",
          "type": "uint256"
        },
        {
          "internalType": "address",
          "name": "_oracleAddress",
          "type": "address"
        },
        {
          "internalType": "uint256",
          "name": "_referralFeePercent",
          "type": "uint256"
        }
      ],
      "name": "initialize",
      "outputs": [],
      "stateMutability": "nonpayable",
      "type": "function"
    },
    {
      "inputs": [
        {
          "internalType": "address[]",
          "name": "creators",
          "type": "address[]"
        },
        {
          "internalType": "address[][]",
          "name": "allHolders",
          "type": "address[][]"
        },
        {
          "internalType": "uint256[][]",
          "name": "allAmounts",
          "type": "uint256[][]"
        }
      ],
      "name": "migrate",
      "outputs": [],
      "stateMutability": "nonpayable",
      "type": "function"
    },
    {
      "inputs": [],
      "name": "migrated",
      "outputs": [
        {
          "internalType": "bool",
          "name": "",
          "type": "bool"
        }
      ],
      "stateMutability": "view",
      "type": "function"
    },
    {
      "inputs": [],
      "name": "oracleAddress",
      "outputs": [
        {
          "internalType": "address",
          "name": "",
          "type": "address"
        }
      ],
      "stateMutability": "view",
      "type": "function"
    },
    {
      "inputs": [],
      "name": "owner",
      "outputs": [
        {
          "internalType": "address",
          "name": "",
          "type": "address"
        }
      ],
      "stateMutability": "view",
      "type": "function"
    },
    {
      "inputs": [],
      "name": "protocolFeeDestination",
      "outputs": [
        {
          "internalType": "address payable",
          "name": "",
          "type": "address"
        }
      ],
      "stateMutability": "view",
      "type": "function"
    },
    {
      "inputs": [],
      "name": "protocolFeePercent",
      "outputs": [
        {
          "internalType": "uint256",
          "name": "",
          "type": "uint256"
        }
      ],
      "stateMutability": "view",
      "type": "function"
    },
    {
      "inputs": [],
      "name": "referralFeePercent",
      "outputs": [
        {
          "internalType": "uint256",
          "name": "",
          "type": "uint256"
        }
      ],
      "stateMutability": "view",
      "type": "function"
    },
    {
      "inputs": [],
      "name": "renounceOwnership",
      "outputs": [],
      "stateMutability": "nonpayable",
      "type": "function"
    },
    {
      "inputs": [
        {
          "internalType": "address",
          "name": "creator",
          "type": "address"
        },
        {
          "internalType": "uint256",
          "name": "amount",
          "type": "uint256"
        },
        {
          "internalType": "uint256",
          "name": "additionalFeePercent",
          "type": "uint256"
        },
        {
          "internalType": "address",
          "name": "referrer",
          "type": "address"
        },
        {
          "internalType": "bytes",
          "name": "oracleSignature",
          "type": "bytes"
        }
      ],
      "name": "sell",
      "outputs": [],
      "stateMutability": "nonpayable",
      "type": "function"
    },
    {
      "inputs": [
        {
          "internalType": "uint256",
          "name": "_feePercent",
          "type": "uint256"
        }
      ],
      "name": "setCreatorFeePercent",
      "outputs": [],
      "stateMutability": "nonpayable",
      "type": "function"
    },
    {
      "inputs": [
        {
          "internalType": "address",
          "name": "_oracle",
          "type": "address"
        }
      ],
      "name": "setOracleAddress",
      "outputs": [],
      "stateMutability": "nonpayable",
      "type": "function"
    },
    {
      "inputs": [
        {
          "internalType": "address payable",
          "name": "_feeDestination",
          "type": "address"
        }
      ],
      "name": "setProtocolFeeDestination",
      "outputs": [],
      "stateMutability": "nonpayable",
      "type": "function"
    },
    {
      "inputs": [
        {
          "internalType": "uint256",
          "name": "_feePercent",
          "type": "uint256"
        }
      ],
      "name": "setProtocolFeePercent",
      "outputs": [],
      "stateMutability": "nonpayable",
      "type": "function"
    },
    {
      "inputs": [
        {
          "internalType": "uint256",
          "name": "_feePercent",
          "type": "uint256"
        }
      ],
      "name": "setReferralFeePercent",
      "outputs": [],
      "stateMutability": "nonpayable",
      "type": "function"
    },
    {
      "inputs": [],
      "name": "signingNonce",
      "outputs": [
        {
          "internalType": "uint256",
          "name": "",
          "type": "uint256"
        }
      ],
      "stateMutability": "view",
      "type": "function"
    },
    {
      "inputs": [
        {
          "internalType": "address",
          "name": "",
          "type": "address"
        }
      ],
      "name": "supply",
      "outputs": [
        {
          "internalType": "uint256",
          "name": "",
          "type": "uint256"
        }
      ],
      "stateMutability": "view",
      "type": "function"
    },
    {
      "inputs": [
        {
          "internalType": "address",
          "name": "newOwner",
          "type": "address"
        }
      ],
      "name": "transferOwnership",
      "outputs": [],
      "stateMutability": "nonpayable",
      "type": "function"
    },
    {
      "stateMutability": "payable",
      "type": "receive"
    }
  ],
  "bytecode": "0x60806040523462000023576200001462000029565b61379262000035823961379290f35b6200002f565b60405190565b600080fdfe60806040526004361015610015575b3661103d57005b6100206000356101cf565b80630f026f6d146101ca57806313c9440b146101c557806319ae58f0146101c05780632267a89c146101bb5780632c678c64146101b65780633a34caac146101b15780634635256e146101ac5780634c69c00f146101a75780634ce7957c146101a257806353613dd31461019d5780635cf4ee9114610198578063614524e2146101935780636c525d041461018e5780636ff6c4b814610189578063715018a61461018457806376246bbb1461017f57806382ac41681461017a5780638da5cb5b146101755780639ae7178114610170578063a10786b01461016b578063a1f2f1ff14610166578063a498342114610161578063a89ae4ba1461015c578063b203bb9914610157578063c67ac63614610152578063d6e6eb9f1461014d5763f2fde38b0361000e5761100a565b610fd5565b610f8e565b610f58565b610ebb565b610e47565b610e13565b610acb565b610a76565b610a41565b6109e9565b6109ac565b610819565b6107e6565b6107b3565b610780565b61072b565b6106c8565b610683565b6105ec565b6105b6565b61057c565b6104ac565b610412565b6103dd565b610320565b61029d565b60e01c90565b60405190565b600080fd5b600080fd5b600080fd5b60018060a01b031690565b6101fe906101ea565b90565b61020a816101f5565b0361021157565b600080fd5b9050359061022382610201565b565b90565b61023181610225565b0361023857565b600080fd5b9050359061024a82610228565b565b919060408382031261027557806102696102729260008601610216565b9360200161023d565b90565b6101e0565b61028390610225565b9052565b919061029b9060006020850194019061027a565b565b346102ce576102ca6102b96102b336600461024c565b90611135565b6102c16101d5565b91829182610287565b0390f35b6101db565b60009103126102de57565b6101e0565b1c90565b90565b6102fa9060086102ff93026102e3565b6102e7565b90565b9061030d91546102ea565b90565b61031d609b600090610302565b90565b34610350576103303660046102d3565b61034c61033b610310565b6103436101d5565b91829182610287565b0390f35b6101db565b9060208282031261036f5761036c91600001610216565b90565b6101e0565b90565b61038b610386610390926101ea565b610374565b6101ea565b90565b61039c90610377565b90565b6103a890610393565b90565b906103b59061039f565b600052602052604060002090565b6103da906103d5609f916000926103ab565b610302565b90565b3461040d576104096103f86103f3366004610355565b6103c3565b6104006101d5565b91829182610287565b0390f35b6101db565b346104435761043f61042e61042836600461024c565b906111dd565b6104366101d5565b91829182610287565b0390f35b6101db565b60ff1690565b61045e90600861046393026102e3565b610448565b90565b90610471915461044e565b90565b61048160a0600090610466565b90565b151590565b61049290610484565b9052565b91906104aa90600060208501940190610489565b565b346104dc576104bc3660046102d3565b6104d86104c7610474565b6104cf6101d5565b91829182610496565b0390f35b6101db565b6104ea906101ea565b90565b6104f6816104e1565b036104fd57565b600080fd5b9050359061050f826104ed565b565b909160c0828403126105715761052a836000840161023d565b926105388160208501610502565b92610546826040830161023d565b9261056e610557846060850161023d565b936105658160808601610216565b9360a00161023d565b90565b6101e0565b60000190565b346105b15761059b61058f366004610511565b949390939291926117df565b6105a36101d5565b806105ad81610576565b0390f35b6101db565b346105e7576105e36105d26105cc36600461024c565b906117ef565b6105da6101d5565b91829182610287565b0390f35b6101db565b3461061a576106046105ff366004610355565b611877565b61060c6101d5565b8061061681610576565b0390f35b6101db565b60018060a01b031690565b61063a90600861063f93026102e3565b61061f565b90565b9061064d915461062a565b90565b61065d6098600090610642565b90565b610669906104e1565b9052565b919061068190600060208501940190610660565b565b346106b3576106933660046102d3565b6106af61069e610650565b6106a66101d5565b9182918261066d565b0390f35b6101db565b6106c5609d600090610302565b90565b346106f8576106d83660046102d3565b6106f46106e36106b8565b6106eb6101d5565b91829182610287565b0390f35b6101db565b9190604083820312610726578061071a610723926000860161023d565b9360200161023d565b90565b6101e0565b3461075c576107586107476107413660046106fd565b906118fb565b61074f6101d5565b91829182610287565b0390f35b6101db565b9060208282031261077b576107789160000161023d565b90565b6101e0565b346107ae57610798610793366004610761565b611b1a565b6107a06101d5565b806107aa81610576565b0390f35b6101db565b346107e1576107c33660046102d3565b6107cb611c5b565b6107d36101d5565b806107dd81610576565b0390f35b6101db565b34610814576107fe6107f9366004610761565b611cbe565b6108066101d5565b8061081081610576565b0390f35b6101db565b34610847576108293660046102d3565b610831611d17565b6108396101d5565b8061084381610576565b0390f35b6101db565b600080fd5b600080fd5b601f801991011690565b634e487b7160e01b600052604160045260246000fd5b9061088090610856565b810190811067ffffffffffffffff82111761089a57604052565b610860565b906108b26108ab6101d5565b9283610876565b565b67ffffffffffffffff81116108d2576108ce602091610856565b0190565b610860565b90826000939282370152565b909291926108f86108f3826108b4565b61089f565b9381855260208501908284011161091457610912926108d7565b565b610851565b9080601f8301121561093757816020610934933591016108e3565b90565b61084c565b91909160a0818403126109a7576109568360008301610216565b92610964816020840161023d565b92610972826040850161023d565b926109808360608301610216565b92608082013567ffffffffffffffff81116109a25761099f9201610919565b90565b6101e5565b6101e0565b6109c36109ba36600461093c565b93929092611d21565b6109cb6101d5565b806109d581610576565b0390f35b6109e6609c600090610302565b90565b34610a19576109f93660046102d3565b610a15610a046109d9565b610a0c6101d5565b91829182610287565b0390f35b6101db565b610a27906101f5565b9052565b9190610a3f90600060208501940190610a1e565b565b34610a7157610a513660046102d3565b610a6d610a5c611d6a565b610a646101d5565b91829182610a2b565b0390f35b6101db565b34610aa757610aa3610a92610a8c36600461024c565b90611d80565b610a9a6101d5565b91829182610287565b0390f35b6101db565b90602082820312610ac657610ac391600001610502565b90565b6101e0565b34610af957610ae3610ade366004610aac565b611e12565b610aeb6101d5565b80610af581610576565b0390f35b6101db565b67ffffffffffffffff8111610b165760208091020190565b610860565b600080fd5b90929192610b35610b3082610afe565b61089f565b9381855260208086019202830192818411610b7257915b838310610b595750505050565b60208091610b678486610216565b815201920191610b4c565b610b1b565b9080601f83011215610b9557816020610b9293359101610b20565b90565b61084c565b67ffffffffffffffff8111610bb25760208091020190565b610860565b929190610bcb610bc682610b9a565b61089f565b9381855260208086019202810191838311610c225781905b838210610bf1575050505050565b813567ffffffffffffffff8111610c1d57602091610c128784938701610b77565b815201910190610be3565b61084c565b610b1b565b9080601f83011215610c4557816020610c4293359101610bb7565b90565b61084c565b67ffffffffffffffff8111610c625760208091020190565b610860565b67ffffffffffffffff8111610c7f5760208091020190565b610860565b90929192610c99610c9482610c67565b61089f565b9381855260208086019202830192818411610cd657915b838310610cbd5750505050565b60208091610ccb848661023d565b815201920191610cb0565b610b1b565b9080601f83011215610cf957816020610cf693359101610c84565b90565b61084c565b929190610d12610d0d82610c4a565b61089f565b9381855260208086019202810191838311610d695781905b838210610d38575050505050565b813567ffffffffffffffff8111610d6457602091610d598784938701610cdb565b815201910190610d2a565b61084c565b610b1b565b9080601f83011215610d8c57816020610d8993359101610cfe565b90565b61084c565b91606083830312610e0e57600083013567ffffffffffffffff8111610e095782610dbc918501610b77565b92602081013567ffffffffffffffff8111610e045783610ddd918301610c27565b92604082013567ffffffffffffffff8111610dff57610dfc9201610d6e565b90565b6101e5565b6101e5565b6101e5565b6101e0565b34610e4257610e2c610e26366004610d91565b91612295565b610e346101d5565b80610e3e81610576565b0390f35b6101db565b34610e7557610e5f610e5a366004610761565b6122fb565b610e676101d5565b80610e7181610576565b0390f35b6101db565b60018060a01b031690565b610e95906008610e9a93026102e3565b610e7a565b90565b90610ea89154610e85565b90565b610eb8609a600090610e9d565b90565b34610eeb57610ecb3660046102d3565b610ee7610ed6610eab565b610ede6101d5565b91829182610a2b565b0390f35b6101db565b9190604083820312610f195780610f0d610f169260008601610216565b93602001610216565b90565b6101e0565b90610f289061039f565b600052602052604060002090565b610f50610f5592610f4b609e93600094610f1e565b6103ab565b610302565b90565b34610f8957610f85610f74610f6e366004610ef0565b90610f36565b610f7c6101d5565b91829182610287565b0390f35b6101db565b34610fc057610faa610fa136600461093c565b93929092612306565b610fb26101d5565b80610fbc81610576565b0390f35b6101db565b610fd26099600090610302565b90565b3461100557610fe53660046102d3565b611001610ff0610fc5565b610ff86101d5565b91829182610287565b0390f35b6101db565b346110385761102261101d366004610355565b612417565b61102a6101d5565b8061103481610576565b0390f35b6101db565b600080fd5b600090565b60001c90565b61105961105e91611047565b6102e7565b90565b61106b905461104d565b90565b634e487b7160e01b600052601160045260246000fd5b61109361109991939293610225565b92610225565b916110a5838202610225565b9281840414901517156110b457565b61106e565b90565b6110d06110cb6110d5926110b9565b610374565b610225565b90565b634e487b7160e01b600052601260045260246000fd5b6110fa61110091610225565b91610225565b90811561110b570490565b6110d8565b61111f61112591939293610225565b92610225565b820180921161113057565b61106e565b6111b59161114b91611145611042565b506117ef565b6111b061117c6111658361115f6099611061565b90611084565b611176670de0b6b3a76400006110bc565b906110ee565b6111aa6111938461118d609d611061565b90611084565b6111a4670de0b6b3a76400006110bc565b906110ee565b92611110565b611110565b90565b6111c76111cd91939293610225565b92610225565b82039182116111d857565b61106e565b61125d916111f3916111ed611042565b50611d80565b61125861122461120d836112076099611061565b90611084565b61121e670de0b6b3a76400006110bc565b906110ee565b61125261123b84611235609d611061565b90611084565b61124c670de0b6b3a76400006110bc565b906110ee565b926111b8565b6111b8565b90565b60081c90565b61127261127791611260565b610448565b90565b6112849054611266565b90565b60ff1690565b61129961129e91611047565b611287565b90565b6112ab905461128d565b90565b60ff1690565b90565b6112cb6112c66112d0926112b4565b610374565b6112ae565b90565b6112dc90610393565b90565b60209181520190565b60207f647920696e697469616c697a6564000000000000000000000000000000000000917f496e697469616c697a61626c653a20636f6e747261637420697320616c72656160008201520152565b611343602e6040926112df565b61134c816112e8565b0190565b6113669060208101906000818303910152611336565b90565b1561137057565b6113786101d5565b62461bcd60e51b81528061138e60048201611350565b0390fd5b60001b90565b906113a460ff91611392565b9181191691161790565b6113c26113bd6113c7926112ae565b610374565b6112ae565b90565b90565b906113e26113dd6113e9926113ae565b6113ca565b8254611398565b9055565b60081b90565b9061140061ff00916113ed565b9181191691161790565b61141390610484565b90565b90565b9061142e6114296114359261140a565b611416565b82546113f3565b9055565b611442906112b7565b9052565b919061145a90600060208501940190611439565b565b949290916114af9492611478611472600061127a565b15610484565b968780611561575b8015611512575b61149090611369565b6114a461149d60016112b7565b60006113cd565b87611501575b611660565b6114b6575b565b6114c1600080611419565b60016114f97f7f26b83ff96e1f2b6a682f133852f6798a09c465da95921460cefb3847402498916114f06101d5565b91829182611446565b0390a16114b4565b61150d60016000611419565b6114aa565b5061152d611527611522306112d3565b612427565b15610484565b80611538575b611487565b5061149061154660006112a1565b61155961155360016112b7565b916112ae565b149050611533565b5061156c60006112a1565b61157f61157960016112b7565b916112ae565b10611480565b9061159260001991611392565b9181191691161790565b6115b06115ab6115b592610225565b610374565b610225565b90565b90565b906115d06115cb6115d79261159c565b6115b8565b8254611585565b9055565b906115ec60018060a01b0391611392565b9181191691161790565b6115ff90610377565b90565b61160b906115f6565b90565b90565b9061162661162161162d92611602565b61160e565b82546115db565b9055565b90565b906116496116446116509261039f565b611631565b82546115db565b9055565b61165d90610393565b90565b61167b9061166c612518565b611674612548565b60976115bb565b611686816098611611565b6116918260996115bb565b61169c83609d6115bb565b6116a784609a611634565b6116b285609b6115bb565b6116dc7f72fe3f5fb15c2671900303001fbe3a8adf9df5c76bfd269a9508c8753b9c35c991611654565b906116e56101d5565b806116ef81610576565b0390a26117287f98d1698e9a7ee55a2ded97de72077c93add26ce8534679021d0e7c44edcb325b9161171f6101d5565b91829182610287565b0390a16117617fcac5fb194ae0d660ab1b68f6561a22ab792ca0bbe87b5392c3ec528fc25a0c0f916117586101d5565b91829182610287565b0390a161178e7f0adef86c673dfdb102affe9a454acea4a42a305e1feb982b4b2c97da980454a99161039f565b906117976101d5565b806117a181610576565b0390a26117da7f3faa211c19acc0ad4acc12e89ed0c09e69580cb23fd70b32cc6f26f62e4520dd916117d16101d5565b91829182610287565b0390a1565b906117ed959493929161145c565b565b9061180f61180a61181493611802611042565b50609f6103ab565b611061565b6118fb565b90565b611828906118236125d5565b61182a565b565b61183581609a611634565b61185f7f0adef86c673dfdb102affe9a454acea4a42a305e1feb982b4b2c97da980454a99161039f565b906118686101d5565b8061187281610576565b0390a2565b61188090611817565b565b90565b61189961189461189e92611882565b610374565b610225565b90565b6118b56118b06118ba926112b4565b610374565b610225565b90565b90565b6118d46118cf6118d9926118bd565b610374565b610225565b90565b90565b6118f36118ee6118f8926118dc565b610374565b610225565b90565b61196b611982916119929361190e611042565b508161192361191d6000611885565b91610225565b14600014611a48576119356000611885565b5b918061194b6119456000611885565b91610225565b1480611a2d575b6000146119955750506119656000611885565b5b6111b8565b61197c670de0b6b3a76400006110bc565b90611084565b61198c6097611061565b906110ee565b90565b611a2891611a12611a02836119fd6119f76119db6119ca6119c3611a18996119bd60016118a1565b906111b8565b8890611110565b6119d5858990611110565b90611084565b956119f26002946119ec60016118a1565b906111b8565b611110565b916118c0565b611084565b611a0c60016118a1565b90611110565b90611084565b611a2260066118df565b906110ee565b611966565b5081611a42611a3c60016118a1565b91610225565b14611952565b611abc611aac611a6c611a6585611a5f60016118a1565b906111b8565b8590611084565b611aa6611a966002611a91611a8b89611a8560016118a1565b906111b8565b916118c0565b611084565b611aa060016118a1565b90611110565b90611084565b611ab660066118df565b906110ee565b611936565b611ad290611acd6125d5565b611ad4565b565b611adf81609b6115bb565b611b157f3faa211c19acc0ad4acc12e89ed0c09e69580cb23fd70b32cc6f26f62e4520dd91611b0c6101d5565b91829182610287565b0390a1565b611b2390611ac1565b565b611b2d6125d5565b611b35611bfc565b565b611b43611b4891611047565b610448565b90565b611b559054611b37565b90565b60007f4d6967726174696f6e20616c726561647920656e646564000000000000000000910152565b611b8d60176020926112df565b611b9681611b58565b0190565b611bb09060208101906000818303910152611b80565b90565b15611bba57565b611bc26101d5565b62461bcd60e51b815280611bd860048201611b9a565b0390fd5b90611bf1611bec611bf89261140a565b611416565b8254611398565b9055565b611c17611c12611c0c60a0611b4b565b15610484565b611bb3565b611c23600160a0611bdc565b7f16cace72ad40bd23c9e04c798148013b99adcc741ff2f667c2bedbc81141458b611c4c6101d5565b80611c5681610576565b0390a1565b611c63611b25565b565b611c7690611c716125d5565b611c78565b565b611c8381609d6115bb565b611cb97fcac5fb194ae0d660ab1b68f6561a22ab792ca0bbe87b5392c3ec528fc25a0c0f91611cb06101d5565b91829182610287565b0390a1565b611cc790611c65565b565b611cd16125d5565b611cd9611d03565b565b611cef611cea611cf492611882565b610374565b6101ea565b90565b611d0090611cdb565b90565b611d15611d106000611cf7565b612601565b565b611d1f611cc9565b565b91611d429492939193611d358186906117ef565b9094600192939495612cd5565b565b600090565b611d55611d5a91611047565b610e7a565b90565b611d679054611d49565b90565b611d72611d44565b50611d7d6033611d5d565b90565b90611daa611da3611d9e611daf94611d96611042565b50609f6103ab565b611061565b82906111b8565b6118fb565b90565b611dc390611dbe6125d5565b611dc5565b565b611dd0816098611611565b611dfa7f72fe3f5fb15c2671900303001fbe3a8adf9df5c76bfd269a9508c8753b9c35c991611654565b90611e036101d5565b80611e0d81610576565b0390a2565b611e1b90611db2565b565b90611e309291611e2b6125d5565b612009565b565b60007f416c7265616479206d6967726174656400000000000000000000000000000000910152565b611e6760106020926112df565b611e7081611e32565b0190565b611e8a9060208101906000818303910152611e5a565b90565b15611e9457565b611e9c6101d5565b62461bcd60e51b815280611eb260048201611e74565b0390fd5b5190565b5190565b5190565b60007f496e76616c696420696e70757400000000000000000000000000000000000000910152565b611ef7600d6020926112df565b611f0081611ec2565b0190565b611f1a9060208101906000818303910152611eea565b90565b15611f2457565b611f2c6101d5565b62461bcd60e51b815280611f4260048201611f04565b0390fd5b6001611f529101610225565b90565b634e487b7160e01b600052603260045260246000fd5b90611f7582611eb6565b811015611f86576020809102010190565b611f55565b611f9590516101f5565b90565b90611fa282611eba565b811015611fb3576020809102010190565b611f55565b90611fc282611ebe565b811015611fd3576020809102010190565b611f55565b5190565b90611fe682611fd8565b811015611ff7576020809102010190565b611f55565b6120069051610225565b90565b9291909261202861202361201d60a0611b4b565b15610484565b611e8d565b61203181611eb6565b61204b61204561204087611eba565b610225565b91610225565b1480612266575b612060909492939194611f1d565b61206a6000611885565b925b8361208761208161207c88611eb6565b610225565b91610225565b101561225f576120a061209b868690611f6b565b611f8b565b906120ac848690611f98565b51936120b9828790611fb8565b51936120e76120c787611eb6565b6120e16120db6120d689611fd8565b610225565b91610225565b14611f1d565b6120ef611042565b926120fa6000611885565b935b8461211761211161210c8b611eb6565b610225565b91610225565b101561221b576121956122159161217c886121766121678d61216161215c8f6121568f9161214961214e918490611fdc565b611ffc565b97609e610f1e565b93611f6b565b611f8b565b906103ab565b9161217183611061565b611110565b906115bb565b61218f61218a8a8990611fdc565b611ffc565b90611110565b94866121aa6121a58b8490611f6b565b611f8b565b6121bd6121b88b8590611fdc565b611ffc565b906121fa6121f46121ee7fe53177345d8dc98ab1205ebcd15944417ef4baa3f9f25486d6858e886eced5ce9561039f565b9261039f565b9261159c565b926122036101d5565b8061220d81610576565b0390a4611f46565b936120fc565b61224b91975061225193999650612256959298945061223c9092609f6103ab565b9161224683611061565b611110565b906115bb565b611f46565b9290939161206c565b5092505050565b5061206061227382611eb6565b61228d61228761228286611ebe565b610225565b91610225565b149050612052565b906122a09291611e1d565b565b6122b3906122ae6125d5565b6122b5565b565b6122c08160996115bb565b6122f67f98d1698e9a7ee55a2ded97de72077c93add26ce8534679021d0e7c44edcb325b916122ed6101d5565b91829182610287565b0390a1565b612304906122a2565b565b91612327949293919361231a818690611d80565b9094600092939495612cd5565b565b61233a906123356125d5565b6123e6565b565b60207f6464726573730000000000000000000000000000000000000000000000000000917f4f776e61626c653a206e6577206f776e657220697320746865207a65726f206160008201520152565b61239760266040926112df565b6123a08161233c565b0190565b6123ba906020810190600081830391015261238a565b90565b156123c457565b6123cc6101d5565b62461bcd60e51b8152806123e2600482016123a4565b0390fd5b61241590612410816124096124036123fe6000611cf7565b6101f5565b916101f5565b14156123bd565b612601565b565b61242090612329565b565b600090565b61242f612422565b503b61244461243e6000611885565b91610225565b1190565b60207f6e697469616c697a696e67000000000000000000000000000000000000000000917f496e697469616c697a61626c653a20636f6e7472616374206973206e6f74206960008201520152565b6124a3602b6040926112df565b6124ac81612448565b0190565b6124c69060208101906000818303910152612496565b90565b156124d057565b6124d86101d5565b62461bcd60e51b8152806124ee600482016124b0565b0390fd5b6125046124ff600061127a565b6124c9565b61250c61250e565b565b612516612d14565b565b6125206124f2565b565b61253461252f600061127a565b6124c9565b61253c61253e565b565b612546612d5b565b565b612550612522565b565b60007f4f776e61626c653a2063616c6c6572206973206e6f7420746865206f776e6572910152565b612586602080926112df565b61258f81612552565b0190565b6125a9906020810190600081830391015261257a565b90565b156125b357565b6125bb6101d5565b62461bcd60e51b8152806125d160048201612593565b0390fd5b6125ff6125e0611d6a565b6125f96125f36125ee612d65565b6101f5565b916101f5565b146125ac565b565b61260b6033611d5d565b612616826033611634565b9061264a6126447f8be0079c531659141344cd1fd0a4f28419497f9722a3daafe3b4186f6b6457e09361039f565b9161039f565b916126536101d5565b8061265d81610576565b0390a3565b90612679969594939291612674612e03565b6128b5565b612681612e44565b565b60007f496e73756666696369656e742062616c616e6365000000000000000000000000910152565b6126b860146020926112df565b6126c181612683565b0190565b6126db90602081019060008183039101526126ab565b90565b156126e557565b6126ed6101d5565b62461bcd60e51b815280612703600482016126c5565b0390fd5b612710906115f6565b90565b61271f61272491611047565b61061f565b90565b6127319054612713565b90565b60007f43726561746f72206d7573742062652074686520666972737420627579657200910152565b612769601f6020926112df565b61277281612734565b0190565b61278c906020810190600081830391015261275c565b90565b1561279657565b61279e6101d5565b62461bcd60e51b8152806127b460048201612776565b0390fd5b60007f496e73756666696369656e74207061796d656e74000000000000000000000000910152565b6127ed60146020926112df565b6127f6816127b8565b0190565b61281090602081019060008183039101526127e0565b90565b1561281a57565b6128226101d5565b62461bcd60e51b815280612838600482016127fa565b0390fd5b95939198979694929098610100870199600088016128599161027a565b602087016128669161027a565b604086016128739161027a565b606085016128809161027a565b6080840161288d9161027a565b60a0830161289a91610a1e565b60c082016128a79161027a565b60e0016128b39161027a565b565b92936128d5906128cf6128ec939794988290869091612f87565b87611084565b6128e6670de0b6b3a76400006110bc565b906110ee565b94612b3e61291e61290783612901609b611061565b90611084565b612918670de0b6b3a76400006110bc565b906110ee565b9661296161295a61295361293c866129366099611061565b90611084565b61294d670de0b6b3a76400006110bc565b906110ee565b83906111b8565b89906111b8565b9361299a61299361297c86612976609d611061565b90611084565b61298d670de0b6b3a76400006110bc565b906110ee565b8390611110565b98866129b06129ab609f83906103ab565b611061565b868c898d8d600014612bb95750612a11612a0c612a05612a1e9594612a00612a1795612a569a6129e86129e2336101f5565b916101f5565b148015612b99575b6129f99061278f565b3497611110565b611110565b8890611110565b610225565b91610225565b1015612813565b612a4f8b612a49612a3a612a338d609e610f1e565b33906103ab565b91612a4483611061565b611110565b906115bb565b8a90611110565b91612a6c83612a67609f8b906103ab565b6115bb565b612a80612a796098612727565b8890613236565b612a93612a8c89612707565b8c90613236565b81612aa7612aa16000611885565b91610225565b11612b81575b8a612add612ad7612ad2612acb3494612ac68d8d611110565b611110565b8690611110565b610225565b91610225565b11612b43575b5b3397989995969a9390919293612b2c612b26612b207f9bf4cd4d8086da399c4136ffca65b05d34a29554b4d649f82291f736ca79a0af9b61039f565b9b61039f565b9b61140a565b9b612b356101d5565b9889988961283c565b0390a4565b612b7c612b6e612b678d612b62612b5b348c906111b8565b8c906111b8565b6111b8565b84906111b8565b612b7733612707565b613236565b612ae3565b612b94612b8d82612707565b8390613236565b612aad565b506129f98a612bb1612bab6000611885565b91610225565b1190506129f0565b915050612bfa9150612bf3612bed612be7612be2612bdb612c3298609e610f1e565b33906103ab565b611061565b92610225565b91610225565b10156126de565b612c2b8b612c25612c16612c0f8d609e610f1e565b33906103ab565b91612c2083611061565b6111b8565b906115bb565b8a906111b8565b91612c4883612c43609f8b906103ab565b6115bb565b612c77612c69612c628d612c5d8a8c906111b8565b6111b8565b84906111b8565b612c7233612707565b613236565b612c8b612c846098612727565b8890613236565b612c9e612c9789612707565b8c90613236565b81612cb2612cac6000611885565b91610225565b11612cbd575b612ae4565b612cd0612cc982612707565b8390613236565b612cb8565b90612ce4969594939291612662565b565b612cf8612cf3600061127a565b6124c9565b612d00612d02565b565b612d12612d0d612d65565b612601565b565b612d1c612ce6565b565b612d30612d2b600061127a565b6124c9565b612d38612d47565b565b612d4460016118a1565b90565b612d59612d52612d3a565b60656115bb565b565b612d63612d1e565b565b612d6d611d44565b503390565b612d7c60026118c0565b90565b60007f5265656e7472616e637947756172643a207265656e7472616e742063616c6c00910152565b612db4601f6020926112df565b612dbd81612d7f565b0190565b612dd79060208101906000818303910152612da7565b90565b15612de157565b612de96101d5565b62461bcd60e51b815280612dff60048201612dc1565b0390fd5b612e30612e106065611061565b612e29612e23612e1e612d72565b610225565b91610225565b1415612dda565b612e42612e3b612d72565b60656115bb565b565b612e56612e4f612d3a565b60656115bb565b565b5190565b612e6590610225565b6000198114612e745760010190565b61106e565b90565b612e88612e8d91610225565b612e79565b9052565b60601b90565b612ea090612e91565b90565b612eac90612e97565b90565b612ebb612ec0916101f5565b612ea3565b9052565b92612ef16014612ef994612ee9602088612ee1829b9a8399612e7c565b018092612eaf565b018092612e7c565b018092612e7c565b0190565b60200190565b60007f496e76616c6964206f7261636c65207369676e61747572650000000000000000910152565b612f3860186020926112df565b612f4181612f03565b0190565b612f5b9060208101906000818303910152612f2b565b90565b15612f6557565b612f6d6101d5565b62461bcd60e51b815280612f8360048201612f45565b0390fd5b9182612f9c612f966000611885565b91610225565b1480613071575b8061304e575b613049576130216130269261300961304795612ffa612fc8609b611061565b612fd2609c611061565b612fe5612fde82612e5c565b609c6115bb565b90612fee6101d5565b95869460208601612ec4565b60208201810382520382610876565b61301b61301582612e58565b91612efd565b20613299565b6132d1565b61304161303b613036609a611d5d565b6101f5565b916101f5565b14612f5e565b565b505050565b5061305881612e58565b61306b6130656000611885565b91610225565b14612fa9565b508161308e6130886130836000611cf7565b6101f5565b916101f5565b14612fa3565b61309d90610393565b90565b60007f416464726573733a20696e73756666696369656e742062616c616e6365000000910152565b6130d5601d6020926112df565b6130de816130a0565b0190565b6130f890602081019060008183039101526130c8565b90565b1561310257565b61310a6101d5565b62461bcd60e51b815280613120600482016130e2565b0390fd5b905090565b61313560008092613124565b0190565b61314290613129565b90565b90613157613152836108b4565b61089f565b918252565b606090565b3d60001461317e576131723d613145565b903d6000602084013e5b565b61318661315c565b9061317c565b60207f6563697069656e74206d61792068617665207265766572746564000000000000917f416464726573733a20756e61626c6520746f2073656e642076616c75652c207260008201520152565b6131e7603a6040926112df565b6131f08161318c565b0190565b61320a90602081019060008183039101526131da565b90565b1561321457565b61321c6101d5565b62461bcd60e51b815280613232600482016131f4565b0390fd5b60006132929261326c829361326761324d30613094565b3161326061325a86610225565b91610225565b10156130fb565b611654565b906132756101d5565b908161328081613139565b03925af161328c613161565b5061320d565b565b600090565b6132a1613294565b507f19457468657265756d205369676e6564204d6573736167653a0a333200000000600052601c52603c60002090565b6132ef916132e7916132e1611d44565b5061331b565b91909161350a565b90565b600090565b90565b61330e613309613313926132f7565b610374565b610225565b90565b600090565b613323611d44565b5061332c6132f2565b5061333682612e58565b61334961334360416132fa565b91610225565b146000146133905761338a9161335d613294565b50613366613294565b5061336f613316565b5060208101516060604083015192015160001a909192613681565b91909190565b505061339c6000611cf7565b90600290565b634e487b7160e01b600052602160045260246000fd5b600511156133c257565b6133a2565b906133d1826133b8565b565b60207f7565000000000000000000000000000000000000000000000000000000000000917f45434453413a20696e76616c6964207369676e6174757265202773272076616c60008201520152565b61342e60226040926112df565b613437816133d3565b0190565b6134519060208101906000818303910152613421565b90565b60007f45434453413a20696e76616c6964207369676e6174757265206c656e67746800910152565b613489601f6020926112df565b61349281613454565b0190565b6134ac906020810190600081830391015261347c565b90565b60007f45434453413a20696e76616c6964207369676e61747572650000000000000000910152565b6134e460186020926112df565b6134ed816134af565b0190565b61350790602081019060008183039101526134d7565b90565b8061351e61351860006133c7565b916133c7565b146000146135295750565b8061353d61353760016133c7565b916133c7565b146000146135675761354d6101d5565b62461bcd60e51b815280613563600482016134f1565b0390fd5b8061357b61357560026133c7565b916133c7565b146000146135a55761358b6101d5565b62461bcd60e51b8152806135a160048201613496565b0390fd5b6135b86135b260036133c7565b916133c7565b146135bf57565b6135c76101d5565b62461bcd60e51b8152806135dd6004820161343b565b0390fd5b6135ed6135f291611047565b61159c565b90565b90565b61360c613607613611926135f5565b610374565b610225565b90565b90565b61362090613614565b9052565b61362d906112ae565b9052565b61366761366e9461365d606094989795613653608086019a6000870190613617565b6020850190613624565b6040830190613617565b0190613617565b565b6136786101d5565b3d6000823e3d90fd5b92919061368c611d44565b506136956132f2565b5061369f836135e1565b6136d16136cb7f7fffffffffffffffffffffffffffffff5d576e7357a4501ddfe92f46681b20a06135f8565b91610225565b11613748576136f260009360209592936136e96101d5565b94859485613631565b838052039060015afa156137435761370b600051611392565b8061372761372161371c6000611cf7565b6101f5565b916101f5565b146137325790600090565b5061373d6000611cf7565b90600190565b613670565b505050506137566000611cf7565b9060039056fea2646970667358221220f87cb751b9e96e0fa61b67c6e464561a6f2be6c7a370a8475933ef8574a200ef64736f6c63430008180033",
  "linkReferences": {},
  "deployedLinkReferences": {}
}