{
  "_format": "hh-sol-artifact-1",
  "contractName": "HashtagTradeWithReferral",
  "sourceName": "contracts/referral/HashtagTradeWithReferral.sol",
  "abi": [
    {
      "anonymous": false,
      "inputs": [
        {
          "indexed": true,
          "internalType": "address",
          "name": "holder",
          "type": "address"
        },
        {
          "indexed": true,
          "internalType": "bytes32",
          "name": "hashtag",
          "type": "bytes32"
        },
        {
          "indexed": false,
          "internalType": "uint256",
          "name": "fee",
          "type": "uint256"
        }
      ],
      "name": "ClaimHolderFee",
      "type": "event"
    },
    {
      "anonymous": false,
      "inputs": [],
      "name": "EndMigration",
      "type": "event"
    },
    {
      "anonymous": false,
      "inputs": [
        {
          "indexed": false,
          "internalType": "uint8",
          "name": "version",
          "type": "uint8"
        }
      ],
      "name": "Initialized",
      "type": "event"
    },
    {
      "anonymous": false,
      "inputs": [
        {
          "indexed": true,
          "internalType": "bytes32",
          "name": "hashtag",
          "type": "bytes32"
        },
        {
          "indexed": true,
          "internalType": "address",
          "name": "holder",
          "type": "address"
        },
        {
          "indexed": true,
          "internalType": "uint256",
          "name": "amount",
          "type": "uint256"
        }
      ],
      "name": "MigrateHolder",
      "type": "event"
    },
    {
      "anonymous": false,
      "inputs": [
        {
          "indexed": true,
          "internalType": "address",
          "name": "previousOwner",
          "type": "address"
        },
        {
          "indexed": true,
          "internalType": "address",
          "name": "newOwner",
          "type": "address"
        }
      ],
      "name": "OwnershipTransferred",
      "type": "event"
    },
    {
      "anonymous": false,
      "inputs": [
        {
          "indexed": false,
          "internalType": "uint256",
          "name": "percent",
          "type": "uint256"
        }
      ],
      "name": "SetHolderFeePercent",
      "type": "event"
    },
    {
      "anonymous": false,
      "inputs": [
        {
          "indexed": true,
          "internalType": "address",
          "name": "oracle",
          "type": "address"
        }
      ],
      "name": "SetOracleAddress",
      "type": "event"
    },
    {
      "anonymous": false,
      "inputs": [
        {
          "indexed": true,
          "internalType": "address",
          "name": "destination",
          "type": "address"
        }
      ],
      "name": "SetProtocolFeeDestination",
      "type": "event"
    },
    {
      "anonymous": false,
      "inputs": [
        {
          "indexed": false,
          "internalType": "uint256",
          "name": "percent",
          "type": "uint256"
        }
      ],
      "name": "SetProtocolFeePercent",
      "type": "event"
    },
    {
      "anonymous": false,
      "inputs": [
        {
          "indexed": false,
          "internalType": "uint256",
          "name": "percent",
          "type": "uint256"
        }
      ],
      "name": "SetReferralFeePercent",
      "type": "event"
    },
    {
      "anonymous": false,
      "inputs": [
        {
          "indexed": true,
          "internalType": "address",
          "name": "trader",
          "type": "address"
        },
        {
          "indexed": true,
          "internalType": "bytes32",
          "name": "hashtag",
          "type": "bytes32"
        },
        {
          "indexed": true,
          "internalType": "bool",
          "name": "isBuy",
          "type": "bool"
        },
        {
          "indexed": false,
          "internalType": "uint256",
          "name": "amount",
          "type": "uint256"
        },
        {
          "indexed": false,
          "internalType": "uint256",
          "name": "price",
          "type": "uint256"
        },
        {
          "indexed": false,
          "internalType": "uint256",
          "name": "protocolFee",
          "type": "uint256"
        },
        {
          "indexed": false,
          "internalType": "uint256",
          "name": "holderFee",
          "type": "uint256"
        },
        {
          "indexed": false,
          "internalType": "uint256",
          "name": "additionalFee",
          "type": "uint256"
        },
        {
          "indexed": false,
          "internalType": "address",
          "name": "referrer",
          "type": "address"
        },
        {
          "indexed": false,
          "internalType": "uint256",
          "name": "referrerFee",
          "type": "uint256"
        },
        {
          "indexed": false,
          "internalType": "uint256",
          "name": "supply",
          "type": "uint256"
        }
      ],
      "name": "Trade",
      "type": "event"
    },
    {
      "inputs": [
        {
          "internalType": "bytes32[]",
          "name": "_hashtags",
          "type": "bytes32[]"
        }
      ],
      "name": "batchClaimHolderFees",
      "outputs": [],
      "stateMutability": "nonpayable",
      "type": "function"
    },
    {
      "inputs": [
        {
          "internalType": "bytes32[]",
          "name": "_hashtags",
          "type": "bytes32[]"
        },
        {
          "internalType": "address",
          "name": "holder",
          "type": "address"
        }
      ],
      "name": "batchClaimableHolderFees",
      "outputs": [
        {
          "internalType": "uint256[]",
          "name": "claimableFees",
          "type": "uint256[]"
        }
      ],
      "stateMutability": "view",
      "type": "function"
    },
    {
      "inputs": [
        {
          "internalType": "bytes32",
          "name": "hashtag",
          "type": "bytes32"
        },
        {
          "internalType": "uint256",
          "name": "amount",
          "type": "uint256"
        },
        {
          "internalType": "uint256",
          "name": "additionalFeePercent",
          "type": "uint256"
        },
        {
          "internalType": "address",
          "name": "referrer",
          "type": "address"
        },
        {
          "internalType": "bytes",
          "name": "oracleSignature",
          "type": "bytes"
        }
      ],
      "name": "buy",
      "outputs": [],
      "stateMutability": "payable",
      "type": "function"
    },
    {
      "inputs": [
        {
          "internalType": "bytes32",
          "name": "hashtag",
          "type": "bytes32"
        }
      ],
      "name": "claimHolderFee",
      "outputs": [],
      "stateMutability": "nonpayable",
      "type": "function"
    },
    {
      "inputs": [
        {
          "internalType": "bytes32",
          "name": "hashtag",
          "type": "bytes32"
        },
        {
          "internalType": "address",
          "name": "holder",
          "type": "address"
        }
      ],
      "name": "claimableHolderFee",
      "outputs": [
        {
          "internalType": "uint256",
          "name": "claimableFee",
          "type": "uint256"
        }
      ],
      "stateMutability": "view",
      "type": "function"
    },
    {
      "inputs": [],
      "name": "endMigration",
      "outputs": [],
      "stateMutability": "nonpayable",
      "type": "function"
    },
    {
      "inputs": [
        {
          "internalType": "bytes32[]",
          "name": "_hashtags",
          "type": "bytes32[]"
        },
        {
          "internalType": "address[][]",
          "name": "_holders",
          "type": "address[][]"
        }
      ],
      "name": "forceBatchClaimHolderFees",
      "outputs": [],
      "stateMutability": "nonpayable",
      "type": "function"
    },
    {
      "inputs": [
        {
          "internalType": "bytes32",
          "name": "hashtag",
          "type": "bytes32"
        },
        {
          "internalType": "uint256",
          "name": "amount",
          "type": "uint256"
        }
      ],
      "name": "getBuyPrice",
      "outputs": [
        {
          "internalType": "uint256",
          "name": "",
          "type": "uint256"
        }
      ],
      "stateMutability": "view",
      "type": "function"
    },
    {
      "inputs": [
        {
          "internalType": "bytes32",
          "name": "hashtag",
          "type": "bytes32"
        },
        {
          "internalType": "uint256",
          "name": "amount",
          "type": "uint256"
        }
      ],
      "name": "getBuyPriceAfterFee",
      "outputs": [
        {
          "internalType": "uint256",
          "name": "",
          "type": "uint256"
        }
      ],
      "stateMutability": "view",
      "type": "function"
    },
    {
      "inputs": [
        {
          "internalType": "uint256",
          "name": "supply",
          "type": "uint256"
        },
        {
          "internalType": "uint256",
          "name": "amount",
          "type": "uint256"
        }
      ],
      "name": "getPrice",
      "outputs": [
        {
          "internalType": "uint256",
          "name": "",
          "type": "uint256"
        }
      ],
      "stateMutability": "view",
      "type": "function"
    },
    {
      "inputs": [
        {
          "internalType": "bytes32",
          "name": "hashtag",
          "type": "bytes32"
        },
        {
          "internalType": "uint256",
          "name": "amount",
          "type": "uint256"
        }
      ],
      "name": "getSellPrice",
      "outputs": [
        {
          "internalType": "uint256",
          "name": "",
          "type": "uint256"
        }
      ],
      "stateMutability": "view",
      "type": "function"
    },
    {
      "inputs": [
        {
          "internalType": "bytes32",
          "name": "hashtag",
          "type": "bytes32"
        },
        {
          "internalType": "uint256",
          "name": "amount",
          "type": "uint256"
        }
      ],
      "name": "getSellPriceAfterFee",
      "outputs": [
        {
          "internalType": "uint256",
          "name": "",
          "type": "uint256"
        }
      ],
      "stateMutability": "view",
      "type": "function"
    },
    {
      "inputs": [
        {
          "internalType": "bytes32",
          "name": "",
          "type": "bytes32"
        }
      ],
      "name": "hashtags",
      "outputs": [
        {
          "internalType": "uint256",
          "name": "supply",
          "type": "uint256"
        },
        {
          "internalType": "uint256",
          "name": "accFeePerUnit",
          "type": "uint256"
        }
      ],
      "stateMutability": "view",
      "type": "function"
    },
    {
      "inputs": [],
      "name": "holderFeePercent",
      "outputs": [
        {
          "internalType": "uint256",
          "name": "",
          "type": "uint256"
        }
      ],
      "stateMutability": "view",
      "type": "function"
    },
    {
      "inputs": [
        {
          "internalType": "bytes32",
          "name": "",
          "type": "bytes32"
        },
        {
          "internalType": "address",
          "name": "",
          "type": "address"
        }
      ],
      "name": "holders",
      "outputs": [
        {
          "internalType": "uint256",
          "name": "balance",
          "type": "uint256"
        },
        {
          "internalType": "int256",
          "name": "feeDebt",
          "type": "int256"
        }
      ],
      "stateMutability": "view",
      "type": "function"
    },
    {
      "inputs": [
        {
          "internalType": "uint256",
          "name": "_baseDivider",
          "type": "uint256"
        },
        {
          "internalType": "address payable",
          "name": "_protocolFeeDestination",
          "type": "address"
        },
        {
          "internalType": "uint256",
          "name": "_protocolFeePercent",
          "type": "uint256"
        },
        {
          "internalType": "uint256",
          "name": "_holderFeePercent",
          "type": "uint256"
        },
        {
          "internalType": "address",
          "name": "_oracleAddress",
          "type": "address"
        },
        {
          "internalType": "uint256",
          "name": "_referralFeePercent",
          "type": "uint256"
        }
      ],
      "name": "initialize",
      "outputs": [],
      "stateMutability": "nonpayable",
      "type": "function"
    },
    {
      "inputs": [
        {
          "internalType": "bytes32[]",
          "name": "_hashtags",
          "type": "bytes32[]"
        },
        {
          "internalType": "address[][]",
          "name": "allHolders",
          "type": "address[][]"
        },
        {
          "internalType": "uint256[][]",
          "name": "allAmounts",
          "type": "uint256[][]"
        }
      ],
      "name": "migrate",
      "outputs": [],
      "stateMutability": "nonpayable",
      "type": "function"
    },
    {
      "inputs": [],
      "name": "migrated",
      "outputs": [
        {
          "internalType": "bool",
          "name": "",
          "type": "bool"
        }
      ],
      "stateMutability": "view",
      "type": "function"
    },
    {
      "inputs": [],
      "name": "oracleAddress",
      "outputs": [
        {
          "internalType": "address",
          "name": "",
          "type": "address"
        }
      ],
      "stateMutability": "view",
      "type": "function"
    },
    {
      "inputs": [],
      "name": "owner",
      "outputs": [
        {
          "internalType": "address",
          "name": "",
          "type": "address"
        }
      ],
      "stateMutability": "view",
      "type": "function"
    },
    {
      "inputs": [],
      "name": "protocolFeeDestination",
      "outputs": [
        {
          "internalType": "address payable",
          "name": "",
          "type": "address"
        }
      ],
      "stateMutability": "view",
      "type": "function"
    },
    {
      "inputs": [],
      "name": "protocolFeePercent",
      "outputs": [
        {
          "internalType": "uint256",
          "name": "",
          "type": "uint256"
        }
      ],
      "stateMutability": "view",
      "type": "function"
    },
    {
      "inputs": [],
      "name": "referralFeePercent",
      "outputs": [
        {
          "internalType": "uint256",
          "name": "",
          "type": "uint256"
        }
      ],
      "stateMutability": "view",
      "type": "function"
    },
    {
      "inputs": [],
      "name": "renounceOwnership",
      "outputs": [],
      "stateMutability": "nonpayable",
      "type": "function"
    },
    {
      "inputs": [
        {
          "internalType": "bytes32",
          "name": "hashtag",
          "type": "bytes32"
        },
        {
          "internalType": "uint256",
          "name": "amount",
          "type": "uint256"
        },
        {
          "internalType": "uint256",
          "name": "additionalFeeRatio",
          "type": "uint256"
        },
        {
          "internalType": "address",
          "name": "referrer",
          "type": "address"
        },
        {
          "internalType": "bytes",
          "name": "oracleSignature",
          "type": "bytes"
        }
      ],
      "name": "sell",
      "outputs": [],
      "stateMutability": "nonpayable",
      "type": "function"
    },
    {
      "inputs": [
        {
          "internalType": "uint256",
          "name": "_feePercent",
          "type": "uint256"
        }
      ],
      "name": "setHolderFeePercent",
      "outputs": [],
      "stateMutability": "nonpayable",
      "type": "function"
    },
    {
      "inputs": [
        {
          "internalType": "address",
          "name": "_oracle",
          "type": "address"
        }
      ],
      "name": "setOracleAddress",
      "outputs": [],
      "stateMutability": "nonpayable",
      "type": "function"
    },
    {
      "inputs": [
        {
          "internalType": "address payable",
          "name": "_feeDestination",
          "type": "address"
        }
      ],
      "name": "setProtocolFeeDestination",
      "outputs": [],
      "stateMutability": "nonpayable",
      "type": "function"
    },
    {
      "inputs": [
        {
          "internalType": "uint256",
          "name": "_feePercent",
          "type": "uint256"
        }
      ],
      "name": "setProtocolFeePercent",
      "outputs": [],
      "stateMutability": "nonpayable",
      "type": "function"
    },
    {
      "inputs": [
        {
          "internalType": "uint256",
          "name": "_feePercent",
          "type": "uint256"
        }
      ],
      "name": "setReferralFeePercent",
      "outputs": [],
      "stateMutability": "nonpayable",
      "type": "function"
    },
    {
      "inputs": [],
      "name": "signingNonce",
      "outputs": [
        {
          "internalType": "uint256",
          "name": "",
          "type": "uint256"
        }
      ],
      "stateMutability": "view",
      "type": "function"
    },
    {
      "inputs": [
        {
          "internalType": "address",
          "name": "newOwner",
          "type": "address"
        }
      ],
      "name": "transferOwnership",
      "outputs": [],
      "stateMutability": "nonpayable",
      "type": "function"
    },
    {
      "stateMutability": "payable",
      "type": "receive"
    }
  ],
  "bytecode": "0x60806040523462000023576200001462000029565b6143bf6200003582396143bf90f35b6200002f565b60405190565b600080fdfe60806040526004361015610015575b366114cf57005b61002060003561021f565b806313c9440b1461021a57806320ebaa6e146102155780632c678c64146102105780632e50b9141461020b57806338a71e11146102065780633a34caac146102015780634236e876146101fc57806346fe4eef146101f75780634c69c00f146101f25780634ce7957c146101ed5780635cf4ee91146101e8578063614524e2146101e35780636c525d04146101de5780636c9a3dad146101d9578063715018a6146101d457806382ac4168146101cf5780638da5cb5b146101ca578063934f3172146101c55780639353e80b146101c0578063a10786b0146101bb578063a4983421146101b6578063a89ae4ba146101b1578063bad5094d146101ac578063bd85966c146101a7578063be3b9f2d146101a2578063c093e81d1461019d578063c569aec614610198578063c8d7775814610193578063cacd55531461018e578063cad244cd14610189578063d6e6eb9f146101845763f2fde38b0361000e5761149c565b611467565b611421565b6113ee565b6113b7565b611293565b611250565b6111e7565b6111b1565b6110c5565b611090565b61101c565b610fe9565b610f96565b610f0b565b610dd9565b610d81565b610d3e565b610d08565b610cd5565b610ca2565b610c4d565b610bea565b610b53565b610afe565b610a9a565b610a60565b610997565b61064b565b6105c4565b61052a565b6102a8565b60e01c90565b60405190565b600080fd5b600080fd5b600091031261024057565b610230565b1c90565b90565b61025c9060086102619302610245565b610249565b90565b9061026f915461024c565b90565b61027f609b600090610264565b90565b90565b61028e90610282565b9052565b91906102a690600060208501940190610285565b565b346102d8576102b8366004610235565b6102d46102c3610272565b6102cb610225565b91829182610292565b0390f35b61022b565b600080fd5b600080fd5b601f801991011690565b634e487b7160e01b600052604160045260246000fd5b90610311906102e7565b810190811067ffffffffffffffff82111761032b57604052565b6102f1565b9061034361033c610225565b9283610307565b565b67ffffffffffffffff811161035d5760208091020190565b6102f1565b600080fd5b90565b61037381610367565b0361037a57565b600080fd5b9050359061038c8261036a565b565b909291926103a361039e82610345565b610330565b93818552602080860192028301928184116103e057915b8383106103c75750505050565b602080916103d5848661037f565b8152019201916103ba565b610362565b9080601f83011215610403578160206104009335910161038e565b90565b6102e2565b60018060a01b031690565b61041c90610408565b90565b61042881610413565b0361042f57565b600080fd5b905035906104418261041f565b565b91906040838203126104845760008301359067ffffffffffffffff821161047f576104738161047c9386016103e5565b93602001610434565b90565b6102dd565b610230565b5190565b60209181520190565b60200190565b6104a590610282565b9052565b906104b68160209361049c565b0190565b60200190565b906104dd6104d76104d084610489565b809361048d565b92610496565b9060005b8181106104ee5750505090565b90919261050761050160019286516104a9565b946104ba565b91019190916104e1565b61052791602082019160008184039101526104c0565b90565b3461055b57610557610546610540366004610443565b906115bf565b61054e610225565b91829182610511565b0390f35b61022b565b60ff1690565b61057690600861057b9302610245565b610560565b90565b906105899154610566565b90565b61059960a060009061057e565b90565b151590565b6105aa9061059c565b9052565b91906105c2906000602085019401906105a1565b565b346105f4576105d4366004610235565b6105f06105df61058c565b6105e7610225565b918291826105ae565b0390f35b61022b565b61060281610282565b0361060957565b600080fd5b9050359061061b826105f9565b565b9190604083820312610646578061063a610643926000860161037f565b9360200161060e565b90565b610230565b3461067c5761067861066761066136600461061d565b90611652565b61066f610225565b91829182610292565b0390f35b61022b565b67ffffffffffffffff81116106995760208091020190565b6102f1565b67ffffffffffffffff81116106b65760208091020190565b6102f1565b909291926106d06106cb8261069e565b610330565b938185526020808601920283019281841161070d57915b8383106106f45750505050565b602080916107028486610434565b8152019201916106e7565b610362565b9080601f830112156107305781602061072d933591016106bb565b90565b6102e2565b92919061074961074482610681565b610330565b93818552602080860192028101918383116107a05781905b83821061076f575050505050565b813567ffffffffffffffff811161079b576020916107908784938701610712565b815201910190610761565b6102e2565b610362565b9080601f830112156107c3578160206107c093359101610735565b90565b6102e2565b67ffffffffffffffff81116107e05760208091020190565b6102f1565b67ffffffffffffffff81116107fd5760208091020190565b6102f1565b90929192610817610812826107e5565b610330565b938185526020808601920283019281841161085457915b83831061083b5750505050565b60208091610849848661060e565b81520192019161082e565b610362565b9080601f830112156108775781602061087493359101610802565b90565b6102e2565b92919061089061088b826107c8565b610330565b93818552602080860192028101918383116108e75781905b8382106108b6575050505050565b813567ffffffffffffffff81116108e2576020916108d78784938701610859565b8152019101906108a8565b6102e2565b610362565b9080601f8301121561090a578160206109079335910161087c565b90565b6102e2565b9160608383031261098c57600083013567ffffffffffffffff8111610987578261093a9185016103e5565b92602081013567ffffffffffffffff8111610982578361095b9183016107a5565b92604082013567ffffffffffffffff811161097d5761097a92016108ec565b90565b6102dd565b6102dd565b6102dd565b610230565b60000190565b346109c6576109b06109aa36600461090f565b91611b72565b6109b8610225565b806109c281610991565b0390f35b61022b565b6109d490610408565b90565b6109e0816109cb565b036109e757565b600080fd5b905035906109f9826109d7565b565b909160c082840312610a5b57610a14836000840161060e565b92610a2281602085016109ec565b92610a30826040830161060e565b92610a58610a41846060850161060e565b93610a4f8160808601610434565b9360a00161060e565b90565b610230565b34610a9557610a7f610a733660046109fb565b94939093929192612099565b610a87610225565b80610a9181610991565b0390f35b61022b565b34610acb57610ac7610ab6610ab036600461061d565b9061215a565b610abe610225565b91829182610292565b0390f35b61022b565b9190604083820312610af95780610aed610af6926000860161037f565b93602001610434565b90565b610230565b34610b2f57610b2b610b1a610b14366004610ad0565b9061233b565b610b22610225565b91829182610292565b0390f35b61022b565b90602082820312610b4e57610b4b91600001610434565b90565b610230565b34610b8157610b6b610b66366004610b34565b61242f565b610b73610225565b80610b7d81610991565b0390f35b61022b565b60018060a01b031690565b610ba1906008610ba69302610245565b610b86565b90565b90610bb49154610b91565b90565b610bc46098600090610ba9565b90565b610bd0906109cb565b9052565b9190610be890600060208501940190610bc7565b565b34610c1a57610bfa366004610235565b610c16610c05610bb7565b610c0d610225565b91829182610bd4565b0390f35b61022b565b9190604083820312610c485780610c3c610c45926000860161060e565b9360200161060e565b90565b610230565b34610c7e57610c7a610c69610c63366004610c1f565b90612494565b610c71610225565b91829182610292565b0390f35b61022b565b90602082820312610c9d57610c9a9160000161060e565b90565b610230565b34610cd057610cba610cb5366004610c83565b612610565b610cc2610225565b80610ccc81610991565b0390f35b61022b565b34610d0357610ce5366004610235565b610ced612730565b610cf5610225565b80610cff81610991565b0390f35b61022b565b34610d3957610d35610d24610d1e36600461061d565b9061273a565b610d2c610225565b91829182610292565b0390f35b61022b565b34610d6c57610d4e366004610235565b610d5661280b565b610d5e610225565b80610d6881610991565b0390f35b61022b565b610d7e609c600090610264565b90565b34610db157610d91366004610235565b610dad610d9c610d71565b610da4610225565b91829182610292565b0390f35b61022b565b610dbf90610413565b9052565b9190610dd790600060208501940190610db6565b565b34610e0957610de9366004610235565b610e05610df461283b565b610dfc610225565b91829182610dc3565b0390f35b61022b565b600080fd5b67ffffffffffffffff8111610e3157610e2d6020916102e7565b0190565b6102f1565b90826000939282370152565b90929192610e57610e5282610e13565b610330565b93818552602085019082840111610e7357610e7192610e36565b565b610e0e565b9080601f83011215610e9657816020610e9393359101610e42565b90565b6102e2565b91909160a081840312610f0657610eb5836000830161037f565b92610ec3816020840161060e565b92610ed1826040850161060e565b92610edf8360608301610434565b92608082013567ffffffffffffffff8111610f0157610efe9201610e78565b90565b6102dd565b610230565b610f22610f19366004610e9b565b93929092612dbf565b610f2a610225565b80610f3481610991565b0390f35b919091604081840312610f9157600081013567ffffffffffffffff8111610f8c5783610f659183016103e5565b92602082013567ffffffffffffffff8111610f8757610f8492016107a5565b90565b6102dd565b6102dd565b610230565b34610fc557610faf610fa9366004610f38565b90612ed2565b610fb7610225565b80610fc181610991565b0390f35b61022b565b90602082820312610fe457610fe1916000016109ec565b90565b610230565b3461101757611001610ffc366004610fca565b612f3e565b611009610225565b8061101381610991565b0390f35b61022b565b3461104a5761103461102f366004610c83565b612fa2565b61103c610225565b8061104681610991565b0390f35b61022b565b60018060a01b031690565b61106a90600861106f9302610245565b61104f565b90565b9061107d915461105a565b90565b61108d609a600090611072565b90565b346110c0576110a0366004610235565b6110bc6110ab611080565b6110b3610225565b91829182610dc3565b0390f35b61022b565b346110f7576110e16110d8366004610e9b565b93929092613382565b6110e9610225565b806110f381610991565b0390f35b61022b565b90602082820312611116576111139160000161037f565b90565b610230565b61112490610367565b90565b906111319061111b565b600052602052604060002090565b60001c90565b6111516111569161113f565b610249565b90565b6111639054611145565b90565b61117190609e611127565b9061118a600161118360008501611159565b9301611159565b90565b9160206111af9294936111a860408201966000830190610285565b0190610285565b565b346111e2576111c96111c43660046110fc565b611166565b906111de6111d5610225565b9283928361118d565b0390f35b61022b565b34611215576111ff6111fa366004610c83565b6133ea565b611207610225565b8061121181610991565b0390f35b61022b565b9060208282031261124b57600082013567ffffffffffffffff81116112465761124392016103e5565b90565b6102dd565b610230565b3461127e5761126861126336600461121a565b61346d565b611270610225565b8061127a81610991565b0390f35b61022b565b611290609d600090610264565b90565b346112c3576112a3366004610235565b6112bf6112ae611283565b6112b6610225565b91829182610292565b0390f35b61022b565b906112d29061111b565b600052602052604060002090565b90565b6112f76112f26112fc92610408565b6112e0565b610408565b90565b611308906112e3565b90565b611314906112ff565b90565b906113219061130b565b600052602052604060002090565b90565b61133e6113439161113f565b61132f565b90565b6113509054611332565b90565b9061136261136792609f6112c8565b611317565b90611380600161137960008501611159565b9301611346565b90565b90565b61138f90611383565b9052565b9160206113b59294936113ae60408201966000830190610285565b0190611386565b565b346113e9576113d06113ca366004610ad0565b90611353565b906113e56113dc610225565b92839283611393565b0390f35b61022b565b3461141c576114066114013660046110fc565b6134a0565b61140e610225565b8061141881610991565b0390f35b61022b565b346114525761144e61143d61143736600461061d565b906134ab565b611445610225565b91829182610292565b0390f35b61022b565b6114646099600090610264565b90565b3461149757611477366004610235565b611493611482611457565b61148a610225565b91829182610292565b0390f35b61022b565b346114ca576114b46114af366004610b34565b6135ce565b6114bc610225565b806114c681610991565b0390f35b61022b565b600080fd5b606090565b5190565b906114ef6114ea836107e5565b610330565b918252565b369037565b9061151e611506836114dd565b9260208061151486936107e5565b92019103906114f4565b565b90565b61153761153261153c92611520565b6112e0565b610282565b90565b600161154b9101610282565b90565b634e487b7160e01b600052603260045260246000fd5b9061156e826114d9565b81101561157f576020809102010190565b61154e565b61158e9051610367565b90565b9061159b82610489565b8110156115ac576020809102010190565b61154e565b906115bb90610282565b9052565b91906115c96114d4565b506115db6115d6846114d9565b6114f9565b926115e66000611523565b5b806116026115fc6115f7856114d9565b610282565b91610282565b1015611648576116439061163e61162c611625611620868590611564565b611584565b869061233b565b6116398891849092611591565b6115b1565b61153f565b6115e7565b505050565b600090565b90611675600061166f61167a9461166761164d565b50609e611127565b01611159565b612494565b90565b90611690929161168b61365c565b6118e1565b565b61169e6116a39161113f565b610560565b90565b6116b09054611692565b90565b60209181520190565b60007f416c7265616479206d6967726174656400000000000000000000000000000000910152565b6116f160106020926116b3565b6116fa816116bc565b0190565b61171490602081019060008183039101526116e4565b90565b1561171e57565b611726610225565b62461bcd60e51b81528061173c600482016116fe565b0390fd5b5190565b5190565b60007f496e76616c696420696e70757400000000000000000000000000000000000000910152565b61177d600d6020926116b3565b61178681611748565b0190565b6117a09060208101906000818303910152611770565b90565b156117aa57565b6117b2610225565b62461bcd60e51b8152806117c86004820161178a565b0390fd5b906117d682611740565b8110156117e7576020809102010190565b61154e565b906117f682611744565b811015611807576020809102010190565b61154e565b5190565b61181a9051610282565b90565b906118278261180c565b811015611838576020809102010190565b61154e565b6118479051610413565b90565b634e487b7160e01b600052601160045260246000fd5b61186f61187591939293610282565b92610282565b820180921161188057565b61184a565b60001b90565b9061189860001991611885565b9181191691161790565b6118b66118b16118bb92610282565b6112e0565b610282565b90565b90565b906118d66118d16118dd926118a2565b6118be565b825461188b565b9055565b929190926119006118fb6118f560a06116a6565b1561059c565b611717565b611909816114d9565b61192361191d61191887611740565b610282565b91610282565b1480611b43575b6119389094929391946117a3565b6119426000611523565b925b8361195f611959611954886114d9565b610282565b91610282565b1015611b3c57611978611973868690611564565b611584565b906119848486906117cc565b51936119918287906117ec565b51936119bf61199f8761180c565b6119b96119b36119ae89610489565b610282565b91610282565b146117a3565b6119c761164d565b926119d26000611523565b935b846119ef6119e96119e48b61180c565b610282565b91610282565b1015611af557611a6f611aef91611a5688611a506000611a408e611a3a8f8e611a2f611a27611a22611a35948490611591565b611810565b98609f6112c8565b9361181d565b61183d565b90611317565b0191611a4b83611159565b611860565b906118c1565b611a69611a648a8990611591565b611810565b90611860565b9486611a84611a7f8b849061181d565b61183d565b611a97611a928b8590611591565b611810565b90611ad4611ace611ac87f8c3c97c756fb85aecdd91f6bf830f0c6673b1ab323061c1ceddbbefc7ded71509561111b565b9261130b565b926118a2565b92611add610225565b80611ae781610991565b0390a461153f565b936119d4565b611b28919750611b2e93999650611b339592989450611b1860009193609e611127565b0191611b2383611159565b611860565b906118c1565b61153f565b92909391611944565b5092505050565b50611938611b50826114d9565b611b6a611b64611b5f86611744565b610282565b91610282565b14905061192a565b90611b7d929161167d565b565b60081c90565b611b91611b9691611b7f565b610560565b90565b611ba39054611b85565b90565b60ff1690565b611bb8611bbd9161113f565b611ba6565b90565b611bca9054611bac565b90565b60ff1690565b90565b611bea611be5611bef92611bd3565b6112e0565b611bcd565b90565b611bfb906112ff565b90565b60207f647920696e697469616c697a6564000000000000000000000000000000000000917f496e697469616c697a61626c653a20636f6e747261637420697320616c72656160008201520152565b611c59602e6040926116b3565b611c6281611bfe565b0190565b611c7c9060208101906000818303910152611c4c565b90565b15611c8657565b611c8e610225565b62461bcd60e51b815280611ca460048201611c66565b0390fd5b90611cb460ff91611885565b9181191691161790565b611cd2611ccd611cd792611bcd565b6112e0565b611bcd565b90565b90565b90611cf2611ced611cf992611cbe565b611cda565b8254611ca8565b9055565b60081b90565b90611d1061ff0091611cfd565b9181191691161790565b611d239061059c565b90565b90565b90611d3e611d39611d4592611d1a565b611d26565b8254611d03565b9055565b611d5290611bd6565b9052565b9190611d6a90600060208501940190611d49565b565b94929091611dbf9492611d88611d826000611b99565b1561059c565b968780611e71575b8015611e22575b611da090611c7f565b611db4611dad6001611bd6565b6000611cdd565b87611e11575b611f1a565b611dc6575b565b611dd1600080611d29565b6001611e097f7f26b83ff96e1f2b6a682f133852f6798a09c465da95921460cefb384740249891611e00610225565b91829182611d56565b0390a1611dc4565b611e1d60016000611d29565b611dba565b50611e3d611e37611e3230611bf2565b61368d565b1561059c565b80611e48575b611d97565b50611da0611e566000611bc0565b611e69611e636001611bd6565b91611bcd565b149050611e43565b50611e7c6000611bc0565b611e8f611e896001611bd6565b91611bcd565b10611d90565b90611ea660018060a01b0391611885565b9181191691161790565b611eb9906112e3565b90565b611ec590611eb0565b90565b90565b90611ee0611edb611ee792611ebc565b611ec8565b8254611e95565b9055565b90565b90611f03611efe611f0a9261130b565b611eeb565b8254611e95565b9055565b611f17906112ff565b90565b611f3590611f2661377e565b611f2e6137ae565b60976118c1565b611f40816098611ecb565b611f4b8260996118c1565b611f5683609d6118c1565b611f6184609a611eee565b611f6c85609b6118c1565b611f967f72fe3f5fb15c2671900303001fbe3a8adf9df5c76bfd269a9508c8753b9c35c991611f0e565b90611f9f610225565b80611fa981610991565b0390a2611fe27f98d1698e9a7ee55a2ded97de72077c93add26ce8534679021d0e7c44edcb325b91611fd9610225565b91829182610292565b0390a161201b7f1bf7c57da18b4d55c69dc98c3b4c0bdb9fa61b3ac3979937c6e1c8958f1f937a91612012610225565b91829182610292565b0390a16120487f0adef86c673dfdb102affe9a454acea4a42a305e1feb982b4b2c97da980454a99161130b565b90612051610225565b8061205b81610991565b0390a26120947f3faa211c19acc0ad4acc12e89ed0c09e69580cb23fd70b32cc6f26f62e4520dd9161208b610225565b91829182610292565b0390a1565b906120a79594939291611d6c565b565b6120b86120be91939293610282565b92610282565b916120ca838202610282565b9281840414901517156120d957565b61184a565b90565b6120f56120f06120fa926120de565b6112e0565b610282565b90565b634e487b7160e01b600052601260045260246000fd5b61211f61212591610282565b91610282565b908115612130570490565b6120fd565b61214461214a91939293610282565b92610282565b820391821161215557565b61184a565b6121da916121709161216a61164d565b506134ab565b6121d56121a161218a836121846099611159565b906120a9565b61219b670de0b6b3a76400006120e1565b90612113565b6121cf6121b8846121b2609d611159565b906120a9565b6121c9670de0b6b3a76400006120e1565b90612113565b92612135565b612135565b90565b6121e76040610330565b90565b9061222361221a60016121fb6121dd565b9461221461220b60008301611159565b600088016115b1565b01611159565b602084016115b1565b565b61222e906121ea565b90565b9061223b90611383565b9052565b6122496040610330565b90565b9061228561227c600161225d61223f565b9461227661226d60008301611159565b600088016115b1565b01611346565b60208401612231565b565b6122909061224c565b90565b90565b6122aa6122a56122af92612293565b6112e0565b610282565b90565b6122bd612710612296565b90565b6122d46122cf6122d992610282565b6112e0565b611383565b90565b6122e69051611383565b90565b6122f86122fe91939293611383565b92611383565b9182810392600082851281831216928513911215161761231a57565b61184a565b61233361232e61233892611383565b6112e0565b610282565b90565b6123c7906123c160206123ba6123b56123a76123896123846123cc9961235f61164d565b5061237f612377612372609e8c90611127565b612225565b99609f6112c8565b611317565b612287565b956123a18561239a60008a01611810565b9201611810565b906120a9565b6123af6122b2565b90612113565b6122c0565b92016122dc565b906122e9565b61231f565b90565b6123e0906123db61365c565b6123e2565b565b6123ed81609a611eee565b6124177f0adef86c673dfdb102affe9a454acea4a42a305e1feb982b4b2c97da980454a99161130b565b90612420610225565b8061242a81610991565b0390a2565b612438906123cf565b565b61244e61244961245392611bd3565b6112e0565b610282565b90565b90565b61246d61246861247292612456565b6112e0565b610282565b90565b90565b61248c61248761249192612475565b6112e0565b610282565b90565b61258d6125a4916125886125786125b4956124ad61164d565b506125726125626125156125056124d8886124d28a6124cc600161243a565b90611860565b906120a9565b6124ff6124ef60026124ea8c91612459565b6120a9565b6124f9600161243a565b90611860565b906120a9565b61250f6006612478565b90612113565b9561255d61255761254e61252a848890611860565b6125486125418661253b600161243a565b90611860565b8990611860565b906120a9565b95600293611860565b91612459565b6120a9565b61256c600161243a565b90611860565b906120a9565b6125826006612478565b90612113565b612135565b61259e670de0b6b3a76400006120e1565b906120a9565b6125ae6097611159565b90612113565b90565b6125c8906125c361365c565b6125ca565b565b6125d581609b6118c1565b61260b7f3faa211c19acc0ad4acc12e89ed0c09e69580cb23fd70b32cc6f26f62e4520dd91612602610225565b91829182610292565b0390a1565b612619906125b7565b565b61262361365c565b61262b6126d1565b565b60007f4d6967726174696f6e20616c726561647920656e646564000000000000000000910152565b61266260176020926116b3565b61266b8161262d565b0190565b6126859060208101906000818303910152612655565b90565b1561268f57565b612697610225565b62461bcd60e51b8152806126ad6004820161266f565b0390fd5b906126c66126c16126cd92611d1a565b611d26565b8254611ca8565b9055565b6126ec6126e76126e160a06116a6565b1561059c565b612688565b6126f8600160a06126b1565b7f16cace72ad40bd23c9e04c798148013b99adcc741ff2f667c2bedbc81141458b612721610225565b8061272b81610991565b0390a1565b61273861261b565b565b6127ba916127509161274a61164d565b50611652565b6127b561278161276a836127646099611159565b906120a9565b61277b670de0b6b3a76400006120e1565b90612113565b6127af61279884612792609d611159565b906120a9565b6127a9670de0b6b3a76400006120e1565b90612113565b92611860565b611860565b90565b6127c561365c565b6127cd6127f7565b565b6127e36127de6127e892611520565b6112e0565b610408565b90565b6127f4906127cf565b90565b61280961280460006127eb565b6137b8565b565b6128136127bd565b565b600090565b61282661282b9161113f565b61104f565b90565b612838905461281a565b90565b612843612815565b5061284e603361282e565b90565b90612866949392916128616138aa565b612a53565b61286e6138f8565b565b60007f496e73756666696369656e74207061796d656e74000000000000000000000000910152565b6128a560146020926116b3565b6128ae81612870565b0190565b6128c89060208101906000818303910152612898565b90565b156128d257565b6128da610225565b62461bcd60e51b8152806128f0600482016128b2565b0390fd5b90565b61290661290c91939293611383565b92611383565b8083019260008285121581831216928512911215161761292857565b61184a565b61294161293c61294692611383565b6112e0565b611383565b90565b90565b9061296161295c6129689261292d565b612949565b825461188b565b9055565b906129996020600161299f946129916000820161298b60008801611810565b906118c1565b019201611810565b906118c1565b565b906129ab9161296c565b565b6129b96129be9161113f565b610b86565b90565b6129cb90546129ad565b90565b6129d790611eb0565b90565b95939198979694929098610100870199600088016129f791610285565b60208701612a0491610285565b60408601612a1191610285565b60608501612a1e91610285565b60808401612a2b91610285565b60a08301612a3891610db6565b60c08201612a4591610285565b60e001612a5191610285565b565b90929193612a65908590849091613a3b565b612a94612a7d612a76838690611652565b95866120a9565b612a8e670de0b6b3a76400006120e1565b90612113565b612ac2612aab86612aa5609b611159565b906120a9565b612abc670de0b6b3a76400006120e1565b90612113565b94612d63612b08612b01612afa612ae385612add6099611159565b906120a9565b612af4670de0b6b3a76400006120e1565b90612113565b8590612135565b8890612135565b9284612b42612b3b612b2486612b1e609d611159565b906120a9565b612b35670de0b6b3a76400006120e1565b90612113565b8390611860565b98612b7d8a612b76612b70612b6b612b643494612b5f8d8d611860565b611860565b8690611860565b610282565b91610282565b10156128cb565b612c1c89612c166001612c05612c00612bf2612bbf612bba612bb3612bab612ba68d609e611127565b612225565b9b609f6112c8565b3390611317565b6128f4565b95612be081612bda60008a0191612bd583611159565b611860565b906118c1565b612bec60208b01611810565b906120a9565b612bfa6122b2565b90612113565b6122c0565b920191612c1183611346565b6128f7565b9061294c565b612c3c89612c366000850191612c3183611810565b611860565b906115b1565b612c82612c66612c548c612c4e6122b2565b906120a9565b612c6060008601611810565b90612113565b612c7c6020850191612c7783611810565b611860565b906115b1565b612c9782612c92609e8a90611127565b6129a1565b612cab612ca460986129c1565b8790613cea565b80612cbf612cb96000611523565b91610282565b11612da7575b89612cf6612cf0612ceb612ce43494612cdf8b8d90611860565b611860565b8590611860565b610282565b91610282565b11612d68575b339697612d14600060019b97989c9592939401611810565b93612d51612d4b612d457f9f8a890bf5885ca040cc4c5a323aff530ec31668b31bd1d908263af5c74191e29b61130b565b9b61111b565b9b611d1a565b9b612d5a610225565b988998896129da565b0390a4565b612da2612d94612d8d612d86612d7f348a90612135565b8a90612135565b8d90612135565b8390612135565b612d9d336129ce565b613cea565b612cfc565b612dba612db3896129ce565b8290613cea565b612cc5565b90612dcc94939291612851565b565b90612de091612ddb61365c565b612de2565b565b90612e0f612def836114d9565b612e09612e03612dfe85611740565b610282565b91610282565b146117a3565b612e196000611523565b925b83612e36612e30612e2b866114d9565b610282565b91610282565b1015612ecc57612e466000611523565b5b80612e6d612e67612e62612e5c878a906117cc565b5161180c565b610282565b91610282565b1015612ebb57612eb690612eb1612e8d612e88878990611564565b611584565b612eab612ea6612e9e888b906117cc565b51859061181d565b61183d565b90613d48565b61153f565b612e47565b5092612ec69061153f565b92612e1b565b92505050565b90612edc91612dce565b565b612eef90612eea61365c565b612ef1565b565b612efc816098611ecb565b612f267f72fe3f5fb15c2671900303001fbe3a8adf9df5c76bfd269a9508c8753b9c35c991611f0e565b90612f2f610225565b80612f3981610991565b0390a2565b612f4790612ede565b565b612f5a90612f5561365c565b612f5c565b565b612f678160996118c1565b612f9d7f98d1698e9a7ee55a2ded97de72077c93add26ce8534679021d0e7c44edcb325b91612f94610225565b91829182610292565b0390a1565b612fab90612f49565b565b90612fc294939291612fbd6138aa565b613050565b612fca6138f8565b565b60007f496e73756666696369656e742062616c616e6365000000000000000000000000910152565b61300160146020926116b3565b61300a81612fcc565b0190565b6130249060208101906000818303910152612ff4565b90565b1561302e57565b613036610225565b62461bcd60e51b81528061304c6004820161300e565b0390fd5b9092919384908361306092613a3b565b808361306b916134ab565b938490613077916120a9565b670de0b6b3a7640000613089906120e1565b61309291612113565b938061309e609b611159565b6130a7916120a9565b670de0b6b3a76400006130b9906120e1565b6130c291612113565b90806130ce6099611159565b6130d7916120a9565b670de0b6b3a76400006130e9906120e1565b6130f291612113565b866130fc91612135565b8261310691612135565b9181613112609d611159565b61311b916120a9565b670de0b6b3a764000061312d906120e1565b61313691612113565b8761314091611860565b96609e8561314d91611127565b61315690612225565b609f86613162916112c8565b3361316c91611317565b613175906128f4565b8961317e6122b2565b613187916120a9565b8260000161319490611810565b61319d91612113565b82602001906131ab82611810565b906131b591611860565b6131be916115b1565b8882600001906131cd82611810565b906131d791612135565b6131e0916115b1565b81609e886131ed91611127565b906131f7916129a1565b8060000161320490611159565b8961320e90610282565b9061321890610282565b101561322390613027565b88816000019061323282611159565b9061323c91612135565b613245916118c1565b888260200161325390611810565b61325c916120a9565b6132646122b2565b61326d91612113565b613276906122c0565b906001019061328482611346565b9061328e916122e9565b6132979161294c565b83856132a291612135565b896132ac91612135565b836132b691612135565b336132c0906129ce565b906132ca91613cea565b8260006132d690611523565b906132e090610282565b11926133659361336a575b6132ff6132f860986129c1565b8790613cea565b3396976133166000809b97989c9592939401611810565b9361335361334d6133477f9f8a890bf5885ca040cc4c5a323aff530ec31668b31bd1d908263af5c74191e29b61130b565b9b61111b565b9b611d1a565b9b61335c610225565b988998896129da565b0390a4565b61337d613376896129ce565b8290613cea565b6132eb565b9061338f94939291612fad565b565b6133a29061339d61365c565b6133a4565b565b6133af81609d6118c1565b6133e57f1bf7c57da18b4d55c69dc98c3b4c0bdb9fa61b3ac3979937c6e1c8958f1f937a916133dc610225565b91829182610292565b0390a1565b6133f390613391565b565b613406906134016138aa565b613410565b61340e6138f8565b565b9061341b6000611523565b5b8061343761343161342c866114d9565b610282565b91610282565b1015613468576134639061345e613457613452868490611564565b611584565b3390613d48565b61153f565b61341c565b509050565b613476906133f5565b565b613489906134846138aa565b613493565b6134916138f8565b565b61349e903390613d48565b565b6134a990613478565b565b906134d86134d160006134cb6134dd956134c361164d565b50609e611127565b01611159565b8290612135565b612494565b90565b6134f1906134ec61365c565b61359d565b565b60207f6464726573730000000000000000000000000000000000000000000000000000917f4f776e61626c653a206e6577206f776e657220697320746865207a65726f206160008201520152565b61354e60266040926116b3565b613557816134f3565b0190565b6135719060208101906000818303910152613541565b90565b1561357b57565b613583610225565b62461bcd60e51b8152806135996004820161355b565b0390fd5b6135cc906135c7816135c06135ba6135b560006127eb565b610413565b91610413565b1415613574565b6137b8565b565b6135d7906134e0565b565b60007f4f776e61626c653a2063616c6c6572206973206e6f7420746865206f776e6572910152565b61360d602080926116b3565b613616816135d9565b0190565b6136309060208101906000818303910152613601565b90565b1561363a57565b613642610225565b62461bcd60e51b8152806136586004820161361a565b0390fd5b61368661366761283b565b61368061367a613675613e45565b610413565b91610413565b14613633565b565b600090565b613695613688565b503b6136aa6136a46000611523565b91610282565b1190565b60207f6e697469616c697a696e67000000000000000000000000000000000000000000917f496e697469616c697a61626c653a20636f6e7472616374206973206e6f74206960008201520152565b613709602b6040926116b3565b613712816136ae565b0190565b61372c90602081019060008183039101526136fc565b90565b1561373657565b61373e610225565b62461bcd60e51b81528061375460048201613716565b0390fd5b61376a6137656000611b99565b61372f565b613772613774565b565b61377c613e80565b565b613786613758565b565b61379a6137956000611b99565b61372f565b6137a26137a4565b565b6137ac613eba565b565b6137b6613788565b565b6137c2603361282e565b6137cd826033611eee565b906138016137fb7f8be0079c531659141344cd1fd0a4f28419497f9722a3daafe3b4186f6b6457e09361130b565b9161130b565b9161380a610225565b8061381481610991565b0390a3565b6138236002612459565b90565b60007f5265656e7472616e637947756172643a207265656e7472616e742063616c6c00910152565b61385b601f6020926116b3565b61386481613826565b0190565b61387e906020810190600081830391015261384e565b90565b1561388857565b613890610225565b62461bcd60e51b8152806138a660048201613868565b0390fd5b6138d76138b76065611159565b6138d06138ca6138c5613819565b610282565b91610282565b1415613881565b6138e96138e2613819565b60656118c1565b565b6138f5600161243a565b90565b61390a6139036138eb565b60656118c1565b565b5190565b61391990610282565b60001981146139285760010190565b61184a565b90565b61393c61394191610282565b61392d565b9052565b60601b90565b61395490613945565b90565b6139609061394b565b90565b61396f61397491610413565b613957565b9052565b926139a560146139ad9461399d602088613995829b9a8399613930565b018092613963565b018092613930565b018092613930565b0190565b60200190565b60007f496e76616c6964206f7261636c65207369676e61747572650000000000000000910152565b6139ec60186020926116b3565b6139f5816139b7565b0190565b613a0f90602081019060008183039101526139df565b90565b15613a1957565b613a21610225565b62461bcd60e51b815280613a37600482016139f9565b0390fd5b9182613a50613a4a6000611523565b91610282565b1480613b25575b80613b02575b613afd57613ad5613ada92613abd613afb95613aae613a7c609b611159565b613a86609c611159565b613a99613a9282613910565b609c6118c1565b90613aa2610225565b95869460208601613978565b60208201810382520382610307565b613acf613ac98261390c565b916139b1565b20613ec9565b613f01565b613af5613aef613aea609a61282e565b610413565b91610413565b14613a12565b565b505050565b50613b0c8161390c565b613b1f613b196000611523565b91610282565b14613a5d565b5081613b42613b3c613b3760006127eb565b610413565b91610413565b14613a57565b613b51906112ff565b90565b60007f416464726573733a20696e73756666696369656e742062616c616e6365000000910152565b613b89601d6020926116b3565b613b9281613b54565b0190565b613bac9060208101906000818303910152613b7c565b90565b15613bb657565b613bbe610225565b62461bcd60e51b815280613bd460048201613b96565b0390fd5b905090565b613be960008092613bd8565b0190565b613bf690613bdd565b90565b90613c0b613c0683610e13565b610330565b918252565b606090565b3d600014613c3257613c263d613bf9565b903d6000602084013e5b565b613c3a613c10565b90613c30565b60207f6563697069656e74206d61792068617665207265766572746564000000000000917f416464726573733a20756e61626c6520746f2073656e642076616c75652c207260008201520152565b613c9b603a6040926116b3565b613ca481613c40565b0190565b613cbe9060208101906000818303910152613c8e565b90565b15613cc857565b613cd0610225565b62461bcd60e51b815280613ce660048201613ca8565b0390fd5b6000613d4692613d208293613d1b613d0130613b48565b31613d14613d0e86610282565b91610282565b1015613baf565b611f0e565b90613d29610225565b9081613d3481613bed565b03925af1613d40613c15565b50613cc1565b565b90613d5d613d58609e8490611127565b612225565b90613de2613dba613db5613da7613d88613d83613d7c609f8a906112c8565b8790611317565b6128f4565b95613da16020613d9a60008a01611159565b9201611810565b906120a9565b613daf6122b2565b90612113565b6122c0565b926001613dda613dd586613dcf848601611346565b906122e9565b61231f565b94910161294c565b613df5613dee826129ce565b8390613cea565b919091613e40613e2e613e287fc58d77ff8c2d03883e98ef86c9f9f431e360f4723c4c12a8d2111d7447c5500b9361130b565b9361111b565b93613e37610225565b91829182610292565b0390a3565b613e4d612815565b503390565b613e64613e5f6000611b99565b61372f565b613e6c613e6e565b565b613e7e613e79613e45565b6137b8565b565b613e88613e52565b565b613e9c613e976000611b99565b61372f565b613ea4613ea6565b565b613eb8613eb16138eb565b60656118c1565b565b613ec2613e8a565b565b600090565b613ed1613ec4565b507f19457468657265756d205369676e6564204d6573736167653a0a333200000000600052601c52603c60002090565b613f1f91613f1791613f11612815565b50613f4b565b91909161413a565b90565b600090565b90565b613f3e613f39613f4392613f27565b6112e0565b610282565b90565b600090565b613f53612815565b50613f5c613f22565b50613f668261390c565b613f79613f736041613f2a565b91610282565b14600014613fc057613fba91613f8d613ec4565b50613f96613ec4565b50613f9f613f46565b5060208101516060604083015192015160001a9091926142ae565b91909190565b5050613fcc60006127eb565b90600290565b634e487b7160e01b600052602160045260246000fd5b60051115613ff257565b613fd2565b9061400182613fe8565b565b60207f7565000000000000000000000000000000000000000000000000000000000000917f45434453413a20696e76616c6964207369676e6174757265202773272076616c60008201520152565b61405e60226040926116b3565b61406781614003565b0190565b6140819060208101906000818303910152614051565b90565b60007f45434453413a20696e76616c6964207369676e6174757265206c656e67746800910152565b6140b9601f6020926116b3565b6140c281614084565b0190565b6140dc90602081019060008183039101526140ac565b90565b60007f45434453413a20696e76616c6964207369676e61747572650000000000000000910152565b61411460186020926116b3565b61411d816140df565b0190565b6141379060208101906000818303910152614107565b90565b8061414e6141486000613ff7565b91613ff7565b146000146141595750565b8061416d6141676001613ff7565b91613ff7565b146000146141975761417d610225565b62461bcd60e51b81528061419360048201614121565b0390fd5b806141ab6141a56002613ff7565b91613ff7565b146000146141d5576141bb610225565b62461bcd60e51b8152806141d1600482016140c6565b0390fd5b6141e86141e26003613ff7565b91613ff7565b146141ef57565b6141f7610225565b62461bcd60e51b81528061420d6004820161406b565b0390fd5b61421d6142229161113f565b6118a2565b90565b90565b61423c61423761424192614225565b6112e0565b610282565b90565b61424d90610367565b9052565b61425a90611bcd565b9052565b61429461429b9461428a606094989795614280608086019a6000870190614244565b6020850190614251565b6040830190614244565b0190614244565b565b6142a5610225565b3d6000823e3d90fd5b9291906142b9612815565b506142c2613f22565b506142cc83614211565b6142fe6142f87f7fffffffffffffffffffffffffffffff5d576e7357a4501ddfe92f46681b20a0614228565b91610282565b116143755761431f6000936020959293614316610225565b9485948561425e565b838052039060015afa1561437057614338600051611885565b8061435461434e61434960006127eb565b610413565b91610413565b1461435f5790600090565b5061436a60006127eb565b90600190565b61429d565b5050505061438360006127eb565b9060039056fea2646970667358221220991eda32e0ac27eab9d9eabd9adad1884356c2a1962b57599863737c12d430dc64736f6c63430008180033",
  "linkReferences": {},
  "deployedLinkReferences": {}
}