{
  "_format": "hh-sol-artifact-1",
  "contractName": "HashtagTradeWithReferral",
  "sourceName": "contracts/referral/HashtagTradeWithReferral.sol",
  "abi": [
    {
      "anonymous": false,
      "inputs": [
        {
          "indexed": true,
          "internalType": "address",
          "name": "holder",
          "type": "address"
        },
        {
          "indexed": true,
          "internalType": "bytes32",
          "name": "hashtag",
          "type": "bytes32"
        },
        {
          "indexed": false,
          "internalType": "uint256",
          "name": "fee",
          "type": "uint256"
        }
      ],
      "name": "ClaimHolderFee",
      "type": "event"
    },
    {
      "anonymous": false,
      "inputs": [
        {
          "indexed": false,
          "internalType": "uint8",
          "name": "version",
          "type": "uint8"
        }
      ],
      "name": "Initialized",
      "type": "event"
    },
    {
      "anonymous": false,
      "inputs": [
        {
          "indexed": true,
          "internalType": "address",
          "name": "previousOwner",
          "type": "address"
        },
        {
          "indexed": true,
          "internalType": "address",
          "name": "newOwner",
          "type": "address"
        }
      ],
      "name": "OwnershipTransferred",
      "type": "event"
    },
    {
      "anonymous": false,
      "inputs": [
        {
          "indexed": false,
          "internalType": "uint256",
          "name": "percent",
          "type": "uint256"
        }
      ],
      "name": "SetHolderFeePercent",
      "type": "event"
    },
    {
      "anonymous": false,
      "inputs": [
        {
          "indexed": true,
          "internalType": "address",
          "name": "oracle",
          "type": "address"
        }
      ],
      "name": "SetOracleAddress",
      "type": "event"
    },
    {
      "anonymous": false,
      "inputs": [
        {
          "indexed": true,
          "internalType": "address",
          "name": "destination",
          "type": "address"
        }
      ],
      "name": "SetProtocolFeeDestination",
      "type": "event"
    },
    {
      "anonymous": false,
      "inputs": [
        {
          "indexed": false,
          "internalType": "uint256",
          "name": "percent",
          "type": "uint256"
        }
      ],
      "name": "SetProtocolFeePercent",
      "type": "event"
    },
    {
      "anonymous": false,
      "inputs": [
        {
          "indexed": true,
          "internalType": "address",
          "name": "trader",
          "type": "address"
        },
        {
          "indexed": true,
          "internalType": "bytes32",
          "name": "hashtag",
          "type": "bytes32"
        },
        {
          "indexed": true,
          "internalType": "bool",
          "name": "isBuy",
          "type": "bool"
        },
        {
          "indexed": false,
          "internalType": "uint256",
          "name": "amount",
          "type": "uint256"
        },
        {
          "indexed": false,
          "internalType": "uint256",
          "name": "price",
          "type": "uint256"
        },
        {
          "indexed": false,
          "internalType": "uint256",
          "name": "protocolFee",
          "type": "uint256"
        },
        {
          "indexed": false,
          "internalType": "uint256",
          "name": "holderFee",
          "type": "uint256"
        },
        {
          "indexed": false,
          "internalType": "uint256",
          "name": "additionalFee",
          "type": "uint256"
        },
        {
          "indexed": false,
          "internalType": "address",
          "name": "referrer",
          "type": "address"
        },
        {
          "indexed": false,
          "internalType": "uint256",
          "name": "referrerFee",
          "type": "uint256"
        },
        {
          "indexed": false,
          "internalType": "uint256",
          "name": "supply",
          "type": "uint256"
        }
      ],
      "name": "Trade",
      "type": "event"
    },
    {
      "inputs": [
        {
          "internalType": "bytes32[]",
          "name": "_hashtags",
          "type": "bytes32[]"
        }
      ],
      "name": "batchClaimHolderFees",
      "outputs": [],
      "stateMutability": "nonpayable",
      "type": "function"
    },
    {
      "inputs": [
        {
          "internalType": "bytes32[]",
          "name": "_hashtags",
          "type": "bytes32[]"
        },
        {
          "internalType": "address",
          "name": "holder",
          "type": "address"
        }
      ],
      "name": "batchClaimableHolderFees",
      "outputs": [
        {
          "internalType": "uint256[]",
          "name": "claimableFees",
          "type": "uint256[]"
        }
      ],
      "stateMutability": "view",
      "type": "function"
    },
    {
      "inputs": [
        {
          "internalType": "bytes32",
          "name": "hashtag",
          "type": "bytes32"
        },
        {
          "internalType": "uint256",
          "name": "amount",
          "type": "uint256"
        },
        {
          "internalType": "bytes",
          "name": "oracleSignature",
          "type": "bytes"
        }
      ],
      "name": "buy",
      "outputs": [],
      "stateMutability": "payable",
      "type": "function"
    },
    {
      "inputs": [
        {
          "internalType": "uint256",
          "name": "price",
          "type": "uint256"
        },
        {
          "internalType": "bytes",
          "name": "oracleSignature",
          "type": "bytes"
        }
      ],
      "name": "calculateFees",
      "outputs": [
        {
          "internalType": "uint256",
          "name": "additionalFee",
          "type": "uint256"
        },
        {
          "internalType": "address",
          "name": "referrer",
          "type": "address"
        },
        {
          "internalType": "uint256",
          "name": "referrerFee",
          "type": "uint256"
        }
      ],
      "stateMutability": "view",
      "type": "function"
    },
    {
      "inputs": [
        {
          "internalType": "bytes32",
          "name": "hashtag",
          "type": "bytes32"
        }
      ],
      "name": "claimHolderFee",
      "outputs": [],
      "stateMutability": "nonpayable",
      "type": "function"
    },
    {
      "inputs": [
        {
          "internalType": "bytes32",
          "name": "hashtag",
          "type": "bytes32"
        },
        {
          "internalType": "address",
          "name": "holder",
          "type": "address"
        }
      ],
      "name": "claimableHolderFee",
      "outputs": [
        {
          "internalType": "uint256",
          "name": "claimableFee",
          "type": "uint256"
        }
      ],
      "stateMutability": "view",
      "type": "function"
    },
    {
      "inputs": [
        {
          "internalType": "bytes32",
          "name": "hashtag",
          "type": "bytes32"
        },
        {
          "internalType": "uint256",
          "name": "amount",
          "type": "uint256"
        }
      ],
      "name": "getBuyPrice",
      "outputs": [
        {
          "internalType": "uint256",
          "name": "",
          "type": "uint256"
        }
      ],
      "stateMutability": "view",
      "type": "function"
    },
    {
      "inputs": [
        {
          "internalType": "bytes32",
          "name": "hashtag",
          "type": "bytes32"
        },
        {
          "internalType": "uint256",
          "name": "amount",
          "type": "uint256"
        }
      ],
      "name": "getBuyPriceAfterFee",
      "outputs": [
        {
          "internalType": "uint256",
          "name": "",
          "type": "uint256"
        }
      ],
      "stateMutability": "view",
      "type": "function"
    },
    {
      "inputs": [
        {
          "internalType": "uint256",
          "name": "supply",
          "type": "uint256"
        },
        {
          "internalType": "uint256",
          "name": "amount",
          "type": "uint256"
        }
      ],
      "name": "getPrice",
      "outputs": [
        {
          "internalType": "uint256",
          "name": "",
          "type": "uint256"
        }
      ],
      "stateMutability": "view",
      "type": "function"
    },
    {
      "inputs": [
        {
          "internalType": "bytes32",
          "name": "hashtag",
          "type": "bytes32"
        },
        {
          "internalType": "uint256",
          "name": "amount",
          "type": "uint256"
        }
      ],
      "name": "getSellPrice",
      "outputs": [
        {
          "internalType": "uint256",
          "name": "",
          "type": "uint256"
        }
      ],
      "stateMutability": "view",
      "type": "function"
    },
    {
      "inputs": [
        {
          "internalType": "bytes32",
          "name": "hashtag",
          "type": "bytes32"
        },
        {
          "internalType": "uint256",
          "name": "amount",
          "type": "uint256"
        }
      ],
      "name": "getSellPriceAfterFee",
      "outputs": [
        {
          "internalType": "uint256",
          "name": "",
          "type": "uint256"
        }
      ],
      "stateMutability": "view",
      "type": "function"
    },
    {
      "inputs": [
        {
          "internalType": "bytes32",
          "name": "",
          "type": "bytes32"
        }
      ],
      "name": "hashtags",
      "outputs": [
        {
          "internalType": "uint256",
          "name": "supply",
          "type": "uint256"
        },
        {
          "internalType": "uint256",
          "name": "accFeePerUnit",
          "type": "uint256"
        }
      ],
      "stateMutability": "view",
      "type": "function"
    },
    {
      "inputs": [],
      "name": "holderFeePercent",
      "outputs": [
        {
          "internalType": "uint256",
          "name": "",
          "type": "uint256"
        }
      ],
      "stateMutability": "view",
      "type": "function"
    },
    {
      "inputs": [
        {
          "internalType": "bytes32",
          "name": "",
          "type": "bytes32"
        },
        {
          "internalType": "address",
          "name": "",
          "type": "address"
        }
      ],
      "name": "holders",
      "outputs": [
        {
          "internalType": "uint256",
          "name": "balance",
          "type": "uint256"
        },
        {
          "internalType": "int256",
          "name": "feeDebt",
          "type": "int256"
        }
      ],
      "stateMutability": "view",
      "type": "function"
    },
    {
      "inputs": [
        {
          "internalType": "uint256",
          "name": "_baseDivider",
          "type": "uint256"
        },
        {
          "internalType": "address payable",
          "name": "_protocolFeeDestination",
          "type": "address"
        },
        {
          "internalType": "uint256",
          "name": "_protocolFeePercent",
          "type": "uint256"
        },
        {
          "internalType": "uint256",
          "name": "_holderFeePercent",
          "type": "uint256"
        }
      ],
      "name": "initialize",
      "outputs": [],
      "stateMutability": "nonpayable",
      "type": "function"
    },
    {
      "inputs": [],
      "name": "oracleAddress",
      "outputs": [
        {
          "internalType": "address",
          "name": "",
          "type": "address"
        }
      ],
      "stateMutability": "view",
      "type": "function"
    },
    {
      "inputs": [],
      "name": "owner",
      "outputs": [
        {
          "internalType": "address",
          "name": "",
          "type": "address"
        }
      ],
      "stateMutability": "view",
      "type": "function"
    },
    {
      "inputs": [],
      "name": "protocolFeeDestination",
      "outputs": [
        {
          "internalType": "address payable",
          "name": "",
          "type": "address"
        }
      ],
      "stateMutability": "view",
      "type": "function"
    },
    {
      "inputs": [],
      "name": "protocolFeePercent",
      "outputs": [
        {
          "internalType": "uint256",
          "name": "",
          "type": "uint256"
        }
      ],
      "stateMutability": "view",
      "type": "function"
    },
    {
      "inputs": [],
      "name": "renounceOwnership",
      "outputs": [],
      "stateMutability": "nonpayable",
      "type": "function"
    },
    {
      "inputs": [
        {
          "internalType": "bytes32",
          "name": "hashtag",
          "type": "bytes32"
        },
        {
          "internalType": "uint256",
          "name": "amount",
          "type": "uint256"
        },
        {
          "internalType": "bytes",
          "name": "oracleSignature",
          "type": "bytes"
        }
      ],
      "name": "sell",
      "outputs": [],
      "stateMutability": "nonpayable",
      "type": "function"
    },
    {
      "inputs": [
        {
          "internalType": "uint256",
          "name": "_feePercent",
          "type": "uint256"
        }
      ],
      "name": "setHolderFeePercent",
      "outputs": [],
      "stateMutability": "nonpayable",
      "type": "function"
    },
    {
      "inputs": [
        {
          "internalType": "address",
          "name": "_oracle",
          "type": "address"
        }
      ],
      "name": "setOracleAddress",
      "outputs": [],
      "stateMutability": "nonpayable",
      "type": "function"
    },
    {
      "inputs": [
        {
          "internalType": "address payable",
          "name": "_feeDestination",
          "type": "address"
        }
      ],
      "name": "setProtocolFeeDestination",
      "outputs": [],
      "stateMutability": "nonpayable",
      "type": "function"
    },
    {
      "inputs": [
        {
          "internalType": "uint256",
          "name": "_feePercent",
          "type": "uint256"
        }
      ],
      "name": "setProtocolFeePercent",
      "outputs": [],
      "stateMutability": "nonpayable",
      "type": "function"
    },
    {
      "inputs": [
        {
          "internalType": "address",
          "name": "newOwner",
          "type": "address"
        }
      ],
      "name": "transferOwnership",
      "outputs": [],
      "stateMutability": "nonpayable",
      "type": "function"
    }
  ],
  "bytecode": "0x60806040523462000023576200001462000029565b6139d36200003582396139d390f35b6200002f565b60405190565b600080fdfe60806040526004361015610013575b610f7b565b61001e6000356101bd565b806320ebaa6e146101b85780632e50b914146101b35780634236e876146101ae57806346fe4eef146101a95780634c69c00f146101a45780634ce7957c1461019f5780635cf4ee911461019a5780636c9a3dad14610195578063715018a6146101905780637491ed9e1461018b5780637ae749c5146101865780638da5cb5b146101815780639a23e0c41461017c578063a10786b014610177578063a498342114610172578063a89ae4ba1461016d578063ae4a452514610168578063bd85966c14610163578063be3b9f2d1461015e578063c093e81d14610159578063c569aec614610154578063c8d777581461014f578063cacd55531461014a578063cad244cd14610145578063d6e6eb9f146101405763f2fde38b0361000e57610f48565b610f13565b610ecd565b610e9a565b610e63565b610d3f565b610cd6565b610c6d565b610c37565b610b48565b610acc565b610a58565b610a06565b61098f565b61095a565b61090b565b61085b565b610749565b610713565b6106dd565b61067a565b6105c3565b610568565b610504565b6104ce565b610423565b60e01c90565b60405190565b600080fd5b600080fd5b600080fd5b600080fd5b601f801991011690565b634e487b7160e01b600052604160045260246000fd5b90610207906101dd565b810190811067ffffffffffffffff82111761022157604052565b6101e7565b906102396102326101c3565b92836101fd565b565b67ffffffffffffffff81116102535760208091020190565b6101e7565b600080fd5b90565b6102698161025d565b0361027057565b600080fd5b9050359061028282610260565b565b909291926102996102948261023b565b610226565b93818552602080860192028301928184116102d657915b8383106102bd5750505050565b602080916102cb8486610275565b8152019201916102b0565b610258565b9080601f830112156102f9578160206102f693359101610284565b90565b6101d8565b60018060a01b031690565b610312906102fe565b90565b61031e81610309565b0361032557565b600080fd5b9050359061033782610315565b565b919060408382031261037a5760008301359067ffffffffffffffff821161037557610369816103729386016102db565b9360200161032a565b90565b6101d3565b6101ce565b5190565b60209181520190565b60200190565b90565b61039e90610392565b9052565b906103af81602093610395565b0190565b60200190565b906103d66103d06103c98461037f565b8093610383565b9261038c565b9060005b8181106103e75750505090565b9091926104006103fa60019286516103a2565b946103b3565b91019190916103da565b61042091602082019160008184039101526103b9565b90565b346104545761045061043f610439366004610339565b90611088565b6104476101c3565b9182918261040a565b0390f35b6101c9565b61046281610392565b0361046957565b600080fd5b9050359061047b82610459565b565b91906040838203126104a6578061049a6104a39260008601610275565b9360200161046e565b90565b6101ce565b6104b490610392565b9052565b91906104cc906000602085019401906104ab565b565b346104ff576104fb6104ea6104e436600461047d565b9061111b565b6104f26101c3565b918291826104b8565b0390f35b6101c9565b346105355761053161052061051a36600461047d565b9061120d565b6105286101c3565b918291826104b8565b0390f35b6101c9565b919060408382031261056357806105576105609260008601610275565b9360200161032a565b90565b6101ce565b346105995761059561058461057e36600461053a565b906113fb565b61058c6101c3565b918291826104b8565b0390f35b6101c9565b906020828203126105b8576105b59160000161032a565b90565b6101ce565b60000190565b346105f1576105db6105d636600461059e565b611533565b6105e36101c3565b806105ed816105bd565b0390f35b6101c9565b600091031261060157565b6101ce565b1c90565b60018060a01b031690565b61062590600861062a9302610606565b61060a565b90565b906106389154610615565b90565b610648609860009061062d565b90565b610654906102fe565b90565b6106609061064b565b9052565b919061067890600060208501940190610657565b565b346106aa5761068a3660046105f6565b6106a661069561063b565b61069d6101c3565b91829182610664565b0390f35b6101c9565b91906040838203126106d857806106cc6106d5926000860161046e565b9360200161046e565b90565b6101ce565b3461070e5761070a6106f96106f33660046106af565b906115c0565b6107016101c3565b918291826104b8565b0390f35b6101c9565b346107445761074061072f61072936600461047d565b906116e3565b6107376101c3565b918291826104b8565b0390f35b6101c9565b34610777576107593660046105f6565b6107616117b4565b6107696101c3565b80610773816105bd565b0390f35b6101c9565b600080fd5b67ffffffffffffffff811161079f5761079b6020916101dd565b0190565b6101e7565b90826000939282370152565b909291926107c56107c082610781565b610226565b938185526020850190828401116107e1576107df926107a4565b565b61077c565b9080601f8301121561080457816020610801933591016107b0565b90565b6101d8565b91606083830312610856576108218260008501610275565b9261082f836020830161046e565b92604082013567ffffffffffffffff81116108515761084e92016107e6565b90565b6101d3565b6101ce565b61086f610869366004610809565b91611d50565b6108776101c3565b80610881816105bd565b0390f35b9190916040818403126108c65761089f836000830161046e565b92602082013567ffffffffffffffff81116108c1576108be92016107e6565b90565b6101d3565b6101ce565b6108d490610309565b9052565b60409061090261090994969593966108f8606084019860008501906104ab565b60208301906108cb565b01906104ab565b565b3461093f5761093b610927610921366004610885565b90611f19565b6109329391936101c3565b938493846108d8565b0390f35b6101c9565b9190610958906000602085019401906108cb565b565b3461098a5761096a3660046105f6565b610986610975612072565b61097d6101c3565b91829182610944565b0390f35b6101c9565b346109be576109a86109a2366004610809565b91612405565b6109b06101c3565b806109ba816105bd565b0390f35b6101c9565b6109cc8161064b565b036109d357565b600080fd5b905035906109e5826109c3565b565b90602082820312610a01576109fe916000016109d8565b90565b6101ce565b34610a3457610a1e610a193660046109e7565b6124ad565b610a266101c3565b80610a30816105bd565b0390f35b6101c9565b90602082820312610a5357610a509160000161046e565b90565b6101ce565b34610a8657610a70610a6b366004610a39565b612511565b610a786101c3565b80610a82816105bd565b0390f35b6101c9565b60018060a01b031690565b610aa6906008610aab9302610606565b610a8b565b90565b90610ab99154610a96565b90565b610ac9609a600090610aae565b90565b34610afc57610adc3660046105f6565b610af8610ae7610abc565b610aef6101c3565b91829182610944565b0390f35b6101c9565b608081830312610b4357610b18826000830161046e565b92610b40610b2984602085016109d8565b93610b37816040860161046e565b9360600161046e565b90565b6101ce565b34610b7a57610b64610b5b366004610b01565b92919091612917565b610b6c6101c3565b80610b76816105bd565b0390f35b6101c9565b90602082820312610b9957610b9691600001610275565b90565b6101ce565b610ba79061025d565b90565b90610bb490610b9e565b600052602052604060002090565b60001c90565b90565b610bd7610bdc91610bc2565b610bc8565b90565b610be99054610bcb565b90565b610bf790609c610baa565b90610c106001610c0960008501610bdf565b9301610bdf565b90565b916020610c35929493610c2e604082019660008301906104ab565b01906104ab565b565b34610c6857610c4f610c4a366004610b7f565b610bec565b90610c64610c5b6101c3565b92839283610c13565b0390f35b6101c9565b34610c9b57610c85610c80366004610a39565b61297e565b610c8d6101c3565b80610c97816105bd565b0390f35b6101c9565b90602082820312610cd157600082013567ffffffffffffffff8111610ccc57610cc992016102db565b90565b6101d3565b6101ce565b34610d0457610cee610ce9366004610ca0565b6129ff565b610cf66101c3565b80610d00816105bd565b0390f35b6101c9565b610d19906008610d1e9302610606565b610bc8565b90565b90610d2c9154610d09565b90565b610d3c609b600090610d21565b90565b34610d6f57610d4f3660046105f6565b610d6b610d5a610d2f565b610d626101c3565b918291826104b8565b0390f35b6101c9565b90610d7e90610b9e565b600052602052604060002090565b90565b610da3610d9e610da8926102fe565b610d8c565b6102fe565b90565b610db490610d8f565b90565b610dc090610dab565b90565b90610dcd90610db7565b600052602052604060002090565b90565b610dea610def91610bc2565b610ddb565b90565b610dfc9054610dde565b90565b90610e0e610e1392609d610d74565b610dc3565b90610e2c6001610e2560008501610bdf565b9301610df2565b90565b90565b610e3b90610e2f565b9052565b916020610e61929493610e5a604082019660008301906104ab565b0190610e32565b565b34610e9557610e7c610e7636600461053a565b90610dff565b90610e91610e886101c3565b92839283610e3f565b0390f35b6101c9565b34610ec857610eb2610ead366004610b7f565b612a30565b610eba6101c3565b80610ec4816105bd565b0390f35b6101c9565b34610efe57610efa610ee9610ee336600461047d565b90612a3b565b610ef16101c3565b918291826104b8565b0390f35b6101c9565b610f106099600090610d21565b90565b34610f4357610f233660046105f6565b610f3f610f2e610f03565b610f366101c3565b918291826104b8565b0390f35b6101c9565b34610f7657610f60610f5b36600461059e565b612b5e565b610f686101c3565b80610f72816105bd565b0390f35b6101c9565b600080fd5b606090565b5190565b67ffffffffffffffff8111610fa15760208091020190565b6101e7565b90610fb8610fb383610f89565b610226565b918252565b369037565b90610fe7610fcf83610fa6565b92602080610fdd8693610f89565b9201910390610fbd565b565b90565b611000610ffb61100592610fe9565b610d8c565b610392565b90565b60016110149101610392565b90565b634e487b7160e01b600052603260045260246000fd5b9061103782610f85565b811015611048576020809102010190565b611017565b611057905161025d565b90565b906110648261037f565b811015611075576020809102010190565b611017565b9061108490610392565b9052565b9190611092610f80565b506110a461109f84610f85565b610fc2565b926110af6000610fec565b5b806110cb6110c56110c085610f85565b610392565b91610392565b10156111115761110c906111076110f56110ee6110e986859061102d565b61104d565b86906113fb565b611102889184909261105a565b61107a565b611008565b6110b0565b505050565b600090565b9061113e600061113861114394611130611116565b50609c610baa565b01610bdf565b6115c0565b90565b634e487b7160e01b600052601160045260246000fd5b61116b61117191939293610392565b92610392565b9161117d838202610392565b92818404149015171561118c57565b611146565b90565b6111a86111a36111ad92611191565b610d8c565b610392565b90565b634e487b7160e01b600052601260045260246000fd5b6111d26111d891610392565b91610392565b9081156111e3570490565b6111b0565b6111f76111fd91939293610392565b92610392565b820391821161120857565b611146565b61128d916112239161121d611116565b50612a3b565b61128861125461123d836112376099610bdf565b9061115c565b61124e670de0b6b3a7640000611194565b906111c6565b61128261126b84611265609b610bdf565b9061115c565b61127c670de0b6b3a7640000611194565b906111c6565b926111e8565b6111e8565b90565b61129a6040610226565b90565b906112d66112cd60016112ae611290565b946112c76112be60008301610bdf565b6000880161107a565b01610bdf565b6020840161107a565b565b6112e19061129d565b90565b906112ee90610e2f565b9052565b6112fc6040610226565b90565b9061133861132f60016113106112f2565b9461132961132060008301610bdf565b6000880161107a565b01610df2565b602084016112e4565b565b611343906112ff565b90565b6113509051610392565b90565b90565b61136a61136561136f92611353565b610d8c565b610392565b90565b61137d612710611356565b90565b61139461138f61139992610392565b610d8c565b610e2f565b90565b6113a69051610e2f565b90565b6113b86113be91939293610e2f565b92610e2f565b918281039260008285128183121692851391121516176113da57565b611146565b6113f36113ee6113f892610e2f565b610d8c565b610392565b90565b61148790611481602061147a61147561146761144961144461148c9961141f611116565b5061143f611437611432609c8c90610baa565b6112d8565b99609d610d74565b610dc3565b61133a565b956114618561145a60008a01611346565b9201611346565b9061115c565b61146f611372565b906111c6565b611380565b920161139c565b906113a9565b6113df565b90565b6114a09061149b612bec565b6114e6565b565b60001b90565b906114b960018060a01b03916114a2565b9181191691161790565b90565b906114db6114d66114e292610db7565b6114c3565b82546114a8565b9055565b6114f181609a6114c6565b61151b7f0adef86c673dfdb102affe9a454acea4a42a305e1feb982b4b2c97da980454a991610db7565b906115246101c3565b8061152e816105bd565b0390a2565b61153c9061148f565b565b90565b61155561155061155a9261153e565b610d8c565b610392565b90565b61156c61157291939293610392565b92610392565b820180921161157d57565b611146565b90565b61159961159461159e92611582565b610d8c565b610392565b90565b90565b6115b86115b36115bd926115a1565b610d8c565b610392565b90565b6116b96116d0916116b46116a46116e0956115d9611116565b5061169e61168e611641611631611604886115fe8a6115f86001611541565b9061155d565b9061115c565b61162b61161b60026116168c91611585565b61115c565b6116256001611541565b9061155d565b9061115c565b61163b60066115a4565b906111c6565b9561168961168361167a61165684889061155d565b61167461166d866116676001611541565b9061155d565b899061155d565b9061115c565b9560029361155d565b91611585565b61115c565b6116986001611541565b9061155d565b9061115c565b6116ae60066115a4565b906111c6565b6111e8565b6116ca670de0b6b3a7640000611194565b9061115c565b6116da6097610bdf565b906111c6565b90565b611763916116f9916116f3611116565b5061111b565b61175e61172a6117138361170d6099610bdf565b9061115c565b611724670de0b6b3a7640000611194565b906111c6565b6117586117418461173b609b610bdf565b9061115c565b611752670de0b6b3a7640000611194565b906111c6565b9261155d565b61155d565b90565b61176e612bec565b6117766117a0565b565b61178c61178761179192610fe9565b610d8c565b6102fe565b90565b61179d90611778565b90565b6117b26117ad6000611794565b612c18565b565b6117bc611766565b565b906117d192916117cc612d0a565b611a3a565b6117d9612d58565b565b60209181520190565b60007f496e73756666696369656e74207061796d656e74000000000000000000000000910152565b61181960146020926117db565b611822816117e4565b0190565b61183c906020810190600081830391015261180c565b90565b1561184657565b61184e6101c3565b62461bcd60e51b81528061186460048201611826565b0390fd5b90565b90611878600019916114a2565b9181191691161790565b61189661189161189b92610392565b610d8c565b610392565b90565b90565b906118b66118b16118bd92611882565b61189e565b825461186b565b9055565b6118d06118d691939293610e2f565b92610e2f565b808301926000828512158183121692851291121516176118f257565b611146565b61190b61190661191092610e2f565b610d8c565b610e2f565b90565b90565b9061192b611926611932926118f7565b611913565b825461186b565b9055565b90611963602060016119699461195b6000820161195560008801611346565b906118a1565b019201611346565b906118a1565b565b9061197591611936565b565b61198361198891610bc2565b61060a565b90565b6119959054611977565b90565b6119a190610d8f565b90565b6119ad90611998565b90565b151590565b6119be906119b0565b90565b95939198979694929098610100870199600088016119de916104ab565b602087016119eb916104ab565b604086016119f8916104ab565b60608501611a05916104ab565b60808401611a12916104ab565b60a08301611a1f916108cb565b60c08201611a2c916104ab565b60e001611a38916104ab565b565b611a4f611a4882849061111b565b9384611f19565b9291909294611cf4611a99611a92611a8b611a7485611a6e6099610bdf565b9061115c565b611a85670de0b6b3a7640000611194565b906111c6565b85906111e8565b88906111e8565b9284611ad3611acc611ab586611aaf609b610bdf565b9061115c565b611ac6670de0b6b3a7640000611194565b906111c6565b839061155d565b98611b0e8a611b07611b01611afc611af53494611af08d8d61155d565b61155d565b869061155d565b610392565b91610392565b101561183f565b611bad89611ba76001611b96611b91611b83611b50611b4b611b44611b3c611b378d609c610baa565b6112d8565b9b609d610d74565b3390610dc3565b611868565b95611b7181611b6b60008a0191611b6683610bdf565b61155d565b906118a1565b611b7d60208b01611346565b9061115c565b611b8b611372565b906111c6565b611380565b920191611ba283610df2565b6118c1565b90611916565b611bcd89611bc76000850191611bc283611346565b61155d565b9061107a565b611c13611bf7611be58c611bdf611372565b9061115c565b611bf160008601611346565b906111c6565b611c0d6020850191611c0883611346565b61155d565b9061107a565b611c2882611c23609c8a90610baa565b61196b565b611c3c611c35609861198b565b8790612f0e565b80611c50611c4a6000610fec565b91610392565b11611d38575b89611c87611c81611c7c611c753494611c708b8d9061155d565b61155d565b859061155d565b610392565b91610392565b11611cf9575b339697611ca5600060019b97989c9592939401611346565b93611ce2611cdc611cd67f9f8a890bf5885ca040cc4c5a323aff530ec31668b31bd1d908263af5c74191e29b610db7565b9b610b9e565b9b6119b5565b9b611ceb6101c3565b988998896119c1565b0390a4565b611d33611d25611d1e611d17611d10348a906111e8565b8a906111e8565b8d906111e8565b83906111e8565b611d2e336119a4565b612f0e565b611c8d565b611d4b611d44896119a4565b8290612f0e565b611c56565b90611d5b92916117be565b565b600090565b5190565b90565b611d75611d7a91610392565b611d66565b9052565b60601b90565b611d8d90611d7e565b90565b611d9990611d84565b90565b611da8611dad91610309565b611d90565b9052565b92611dde6020611de694611dd68288611dce829b9a601499611d69565b018092611d69565b018092611d9c565b018092611d69565b0190565b60200190565b60007f496e76616c696420646174612070726f76696465640000000000000000000000910152565b611e2560156020926117db565b611e2e81611df0565b0190565b611e489060208101906000818303910152611e18565b90565b15611e5257565b611e5a6101c3565b62461bcd60e51b815280611e7060048201611e32565b0390fd5b611e80611e8591610bc2565b610a8b565b90565b611e929054611e74565b90565b60007f496e76616c6964206f7261636c65207369676e61747572650000000000000000910152565b611eca60186020926117db565b611ed381611e95565b0190565b611eed9060208101906000818303910152611ebd565b90565b15611ef757565b611eff6101c3565b62461bcd60e51b815280611f1560048201611ed7565b0390fd5b9190611f23611116565b50611f2c611d5d565b50611f35611116565b50611f3f81611d62565b611f52611f4c6000610fec565b91610392565b1461204a579061204161202a611fe161202461200d611fc8612007611fe6898b611f7e611fb09c613174565b9a9297919e8f919b94611fa18d8b94611f956101c3565b95869460208601611db1565b602082018103825203826101fd565b611fc2611fbc82611d62565b91611dea565b20613246565b91611fdb611fd58461025d565b9161025d565b14611e4b565b61327e565b612001611ffb611ff6609a611e88565b610309565b91610309565b14611ef0565b8861115c565b61201e670de0b6b3a7640000611194565b906111c6565b9561115c565b61203b670de0b6b3a7640000611194565b906111c6565b92919291929190565b50905060006120596000611794565b9161206f612068600093610fec565b9392610fec565b90565b61207a611d5d565b506120856033611e88565b90565b9061209b9291612096612d0a565b612129565b6120a3612d58565b565b60007f496e73756666696369656e742062616c616e6365000000000000000000000000910152565b6120da60146020926117db565b6120e3816120a5565b0190565b6120fd90602081019060008183039101526120cd565b90565b1561210757565b61210f6101c3565b62461bcd60e51b815280612125600482016120e7565b0390fd5b808261213491612a3b565b92839061214091611f19565b929194909290806121516099610bdf565b61215a9161115c565b670de0b6b3a764000061216c90611194565b612175916111c6565b8661217f916111e8565b82612189916111e8565b9181612195609b610bdf565b61219e9161115c565b670de0b6b3a76400006121b090611194565b6121b9916111c6565b876121c39161155d565b96609c856121d091610baa565b6121d9906112d8565b609d866121e591610d74565b336121ef91610dc3565b6121f890611868565b89612201611372565b61220a9161115c565b8260000161221790611346565b612220916111c6565b826020019061222e82611346565b906122389161155d565b6122419161107a565b88826000019061225082611346565b9061225a916111e8565b6122639161107a565b81609c8861227091610baa565b9061227a9161196b565b8060000161228790610bdf565b8961229190610392565b9061229b90610392565b10156122a690612100565b8881600001906122b582610bdf565b906122bf916111e8565b6122c8916118a1565b88826020016122d690611346565b6122df9161115c565b6122e7611372565b6122f0916111c6565b6122f990611380565b906001019061230782610df2565b90612311916113a9565b61231a91611916565b8385612325916111e8565b8961232f916111e8565b83612339916111e8565b33612343906119a4565b9061234d91612f0e565b82600061235990610fec565b9061236390610392565b11926123e8936123ed575b61238261237b609861198b565b8790612f0e565b3396976123996000809b97989c9592939401611346565b936123d66123d06123ca7f9f8a890bf5885ca040cc4c5a323aff530ec31668b31bd1d908263af5c74191e29b610db7565b9b610b9e565b9b6119b5565b9b6123df6101c3565b988998896119c1565b0390a4565b6124006123f9896119a4565b8290612f0e565b61236e565b906124109291612088565b565b6124239061241e612bec565b612460565b565b61242e90611998565b90565b90565b9061244961244461245092612425565b612431565b82546114a8565b9055565b61245d90610dab565b90565b61246b816098612434565b6124957f72fe3f5fb15c2671900303001fbe3a8adf9df5c76bfd269a9508c8753b9c35c991612454565b9061249e6101c3565b806124a8816105bd565b0390a2565b6124b690612412565b565b6124c9906124c4612bec565b6124cb565b565b6124d68160996118a1565b61250c7f98d1698e9a7ee55a2ded97de72077c93add26ce8534679021d0e7c44edcb325b916125036101c3565b918291826104b8565b0390a1565b61251a906124b8565b565b60081c90565b60ff1690565b6125346125399161251c565b612522565b90565b6125469054612528565b90565b60ff1690565b61255b61256091610bc2565b612549565b90565b61256d905461254f565b90565b60ff1690565b61258a61258561258f9261153e565b610d8c565b612570565b90565b61259b90610dab565b90565b60207f647920696e697469616c697a6564000000000000000000000000000000000000917f496e697469616c697a61626c653a20636f6e747261637420697320616c72656160008201520152565b6125f9602e6040926117db565b6126028161259e565b0190565b61261c90602081019060008183039101526125ec565b90565b1561262657565b61262e6101c3565b62461bcd60e51b81528061264460048201612606565b0390fd5b9061265460ff916114a2565b9181191691161790565b61267261266d61267792612570565b610d8c565b612570565b90565b90565b9061269261268d6126999261265e565b61267a565b8254612648565b9055565b60081b90565b906126b061ff009161269d565b9181191691161790565b90565b906126d26126cd6126d9926119b5565b6126ba565b82546126a3565b9055565b6126e690612576565b9052565b91906126fe906000602085019401906126dd565b565b9290916127519261271a612714600061253c565b156119b0565b948580612803575b80156127b4575b6127329061261f565b61274661273f6001612576565b600061267d565b856127a3575b612827565b612758575b565b6127636000806126bd565b600161279b7f7f26b83ff96e1f2b6a682f133852f6798a09c465da95921460cefb3847402498916127926101c3565b918291826126ea565b0390a1612756565b6127af600160006126bd565b61274c565b506127cf6127c96127c430612592565b6132a4565b156119b0565b806127da575b612729565b506127326127e86000612563565b6127fb6127f56001612576565b91612570565b1490506127d5565b5061280e6000612563565b61282161281b6001612576565b91612570565b10612722565b61284290612833613395565b61283b6133c5565b60976118a1565b61284d816098612434565b6128588260996118a1565b61286383609b6118a1565b61288d7f72fe3f5fb15c2671900303001fbe3a8adf9df5c76bfd269a9508c8753b9c35c991612454565b906128966101c3565b806128a0816105bd565b0390a26128d97f98d1698e9a7ee55a2ded97de72077c93add26ce8534679021d0e7c44edcb325b916128d06101c3565b918291826104b8565b0390a16129127f1bf7c57da18b4d55c69dc98c3b4c0bdb9fa61b3ac3979937c6e1c8958f1f937a916129096101c3565b918291826104b8565b0390a1565b90612923939291612700565b565b61293690612931612bec565b612938565b565b61294381609b6118a1565b6129797f1bf7c57da18b4d55c69dc98c3b4c0bdb9fa61b3ac3979937c6e1c8958f1f937a916129706101c3565b918291826104b8565b0390a1565b61298790612925565b565b61299a90612995612d0a565b6129a4565b6129a2612d58565b565b906129af6000610fec565b5b806129cb6129c56129c086610f85565b610392565b91610392565b10156129fa576129f5906129f06129eb6129e686849061102d565b61104d565b6133cf565b611008565b6129b0565b509050565b612a0890612989565b565b612a1b90612a16612d0a565b612a25565b612a23612d58565b565b612a2e906133cf565b565b612a3990612a0a565b565b90612a68612a616000612a5b612a6d95612a53611116565b50609c610baa565b01610bdf565b82906111e8565b6115c0565b90565b612a8190612a7c612bec565b612b2d565b565b60207f6464726573730000000000000000000000000000000000000000000000000000917f4f776e61626c653a206e6577206f776e657220697320746865207a65726f206160008201520152565b612ade60266040926117db565b612ae781612a83565b0190565b612b019060208101906000818303910152612ad1565b90565b15612b0b57565b612b136101c3565b62461bcd60e51b815280612b2960048201612aeb565b0390fd5b612b5c90612b5781612b50612b4a612b456000611794565b610309565b91610309565b1415612b04565b612c18565b565b612b6790612a70565b565b60007f4f776e61626c653a2063616c6c6572206973206e6f7420746865206f776e6572910152565b612b9d602080926117db565b612ba681612b69565b0190565b612bc09060208101906000818303910152612b91565b90565b15612bca57565b612bd26101c3565b62461bcd60e51b815280612be860048201612baa565b0390fd5b612c16612bf7612072565b612c10612c0a612c056134cb565b610309565b91610309565b14612bc3565b565b612c226033611e88565b612c2d8260336114c6565b90612c61612c5b7f8be0079c531659141344cd1fd0a4f28419497f9722a3daafe3b4186f6b6457e093610db7565b91610db7565b91612c6a6101c3565b80612c74816105bd565b0390a3565b612c836002611585565b90565b60007f5265656e7472616e637947756172643a207265656e7472616e742063616c6c00910152565b612cbb601f6020926117db565b612cc481612c86565b0190565b612cde9060208101906000818303910152612cae565b90565b15612ce857565b612cf06101c3565b62461bcd60e51b815280612d0660048201612cc8565b0390fd5b612d37612d176065610bdf565b612d30612d2a612d25612c79565b610392565b91610392565b1415612ce1565b612d49612d42612c79565b60656118a1565b565b612d556001611541565b90565b612d6a612d63612d4b565b60656118a1565b565b612d7590610dab565b90565b60007f416464726573733a20696e73756666696369656e742062616c616e6365000000910152565b612dad601d6020926117db565b612db681612d78565b0190565b612dd09060208101906000818303910152612da0565b90565b15612dda57565b612de26101c3565b62461bcd60e51b815280612df860048201612dba565b0390fd5b905090565b612e0d60008092612dfc565b0190565b612e1a90612e01565b90565b90612e2f612e2a83610781565b610226565b918252565b606090565b3d600014612e5657612e4a3d612e1d565b903d6000602084013e5b565b612e5e612e34565b90612e54565b60207f6563697069656e74206d61792068617665207265766572746564000000000000917f416464726573733a20756e61626c6520746f2073656e642076616c75652c207260008201520152565b612ebf603a6040926117db565b612ec881612e64565b0190565b612ee29060208101906000818303910152612eb2565b90565b15612eec57565b612ef46101c3565b62461bcd60e51b815280612f0a60048201612ecc565b0390fd5b6000612f6a92612f448293612f3f612f2530612d6c565b31612f38612f3286610392565b91610392565b1015612dd3565b612454565b90612f4d6101c3565b9081612f5881612e11565b03925af1612f64612e39565b50612ee5565b565b600090565b90565b612f88612f83612f8d92612f71565b610d8c565b610392565b90565b60007f496e76616c6964207369676e6174757265206c656e6774680000000000000000910152565b612fc560186020926117db565b612fce81612f90565b0190565b612fe89060208101906000818303910152612fb8565b90565b15612ff257565b612ffa6101c3565b62461bcd60e51b81528061301060048201612fd2565b0390fd5b61302061302591610bc2565b611882565b90565b60207f6473000000000000000000000000000000000000000000000000000000000000917f4164646974696f6e616c2066656520726174696f206f7574206f6620626f756e60008201520152565b61308360226040926117db565b61308c81613028565b0190565b6130a69060208101906000818303910152613076565b90565b156130b057565b6130b86101c3565b62461bcd60e51b8152806130ce60048201613090565b0390fd5b90565b6130e96130e46130ee926130d2565b610d8c565b610392565b90565b60007f526566657272616c2066656520726174696f206f7574206f6620626f756e6473910152565b613125602080926117db565b61312e816130f1565b0190565b6131489060208101906000818303910152613119565b90565b1561315257565b61315a6101c3565b62461bcd60e51b81528061317060048201613132565b0390fd5b9061317d611116565b50613186611d5d565b5061318f611116565b50613198612f6c565b506131be6131a583611d62565b6131b86131b26080612f74565b91610392565b14612feb565b6131c6612f6c565b506131cf612f6c565b506020820151906040830151906131f86131f26080606087015196015194613014565b94613014565b9361321e81613217613211670de0b6b3a7640000611194565b91610392565b11156130a9565b61323c8561323561322f60646130d5565b91610392565b111561314b565b9193929193929190565b61324e612f6c565b507f19457468657265756d205369676e6564204d6573736167653a0a333200000000600052601c52603c60002090565b61329c916132949161328e611d5d565b50613501565b9190916136f0565b90565b600090565b6132ac61329f565b503b6132c16132bb6000610fec565b91610392565b1190565b60207f6e697469616c697a696e67000000000000000000000000000000000000000000917f496e697469616c697a61626c653a20636f6e7472616374206973206e6f74206960008201520152565b613320602b6040926117db565b613329816132c5565b0190565b6133439060208101906000818303910152613313565b90565b1561334d57565b6133556101c3565b62461bcd60e51b81528061336b6004820161332d565b0390fd5b61338161337c600061253c565b613346565b61338961338b565b565b6133936137f5565b565b61339d61336f565b565b6133b16133ac600061253c565b613346565b6133b96133bb565b565b6133c361382f565b565b6133cd61339f565b565b6133e36133de609c8390610baa565b6112d8565b61346761343f61343a61342c61340d613408613401609d8990610d74565b3390610dc3565b611868565b94613426602061341f60008901610bdf565b9201611346565b9061115c565b613434611372565b906111c6565b611380565b91600161345f61345a85613454848601610df2565b906113a9565b6113df565b939101611916565b61347a613473336119a4565b8290612f0e565b339190916134c66134b46134ae7fc58d77ff8c2d03883e98ef86c9f9f431e360f4723c4c12a8d2111d7447c5500b93610db7565b93610b9e565b936134bd6101c3565b918291826104b8565b0390a3565b6134d3611d5d565b503390565b600090565b90565b6134f46134ef6134f9926134dd565b610d8c565b610392565b90565b600090565b613509611d5d565b506135126134d8565b5061351c82611d62565b61352f61352960416134e0565b91610392565b146000146135765761357091613543612f6c565b5061354c612f6c565b506135556134fc565b5060208101516060604083015192015160001a9091926138c2565b91909190565b50506135826000611794565b90600290565b634e487b7160e01b600052602160045260246000fd5b600511156135a857565b613588565b906135b78261359e565b565b60207f7565000000000000000000000000000000000000000000000000000000000000917f45434453413a20696e76616c6964207369676e6174757265202773272076616c60008201520152565b61361460226040926117db565b61361d816135b9565b0190565b6136379060208101906000818303910152613607565b90565b60007f45434453413a20696e76616c6964207369676e6174757265206c656e67746800910152565b61366f601f6020926117db565b6136788161363a565b0190565b6136929060208101906000818303910152613662565b90565b60007f45434453413a20696e76616c6964207369676e61747572650000000000000000910152565b6136ca60186020926117db565b6136d381613695565b0190565b6136ed90602081019060008183039101526136bd565b90565b806137046136fe60006135ad565b916135ad565b1460001461370f5750565b8061372361371d60016135ad565b916135ad565b1460001461374d576137336101c3565b62461bcd60e51b815280613749600482016136d7565b0390fd5b8061376161375b60026135ad565b916135ad565b1460001461378b576137716101c3565b62461bcd60e51b8152806137876004820161367c565b0390fd5b61379e61379860036135ad565b916135ad565b146137a557565b6137ad6101c3565b62461bcd60e51b8152806137c360048201613621565b0390fd5b6137d96137d4600061253c565b613346565b6137e16137e3565b565b6137f36137ee6134cb565b612c18565b565b6137fd6137c7565b565b61381161380c600061253c565b613346565b61381961381b565b565b61382d613826612d4b565b60656118a1565b565b6138376137ff565b565b90565b61385061384b61385592613839565b610d8c565b610392565b90565b6138619061025d565b9052565b61386e90612570565b9052565b6138a86138af9461389e606094989795613894608086019a6000870190613858565b6020850190613865565b6040830190613858565b0190613858565b565b6138b96101c3565b3d6000823e3d90fd5b9291906138cd611d5d565b506138d66134d8565b506138e083613014565b61391261390c7f7fffffffffffffffffffffffffffffff5d576e7357a4501ddfe92f46681b20a061383c565b91610392565b1161398957613933600093602095929361392a6101c3565b94859485613872565b838052039060015afa156139845761394c6000516114a2565b8061396861396261395d6000611794565b610309565b91610309565b146139735790600090565b5061397e6000611794565b90600190565b6138b1565b505050506139976000611794565b9060039056fea264697066735822122061c456462e7fed07f698547d034dda35dd25141cad9ae688b34f167a941fea7164736f6c63430008180033",
  "linkReferences": {},
  "deployedLinkReferences": {}
}