{
  "_format": "hh-sol-artifact-1",
  "contractName": "PointsMarketplace",
  "sourceName": "contracts/PointsMarketplace.sol",
  "abi": [
    {
      "anonymous": false,
      "inputs": [
        {
          "indexed": false,
          "internalType": "uint8",
          "name": "version",
          "type": "uint8"
        }
      ],
      "name": "Initialized",
      "type": "event"
    },
    {
      "anonymous": false,
      "inputs": [
        {
          "indexed": true,
          "internalType": "address",
          "name": "previousOwner",
          "type": "address"
        },
        {
          "indexed": true,
          "internalType": "address",
          "name": "newOwner",
          "type": "address"
        }
      ],
      "name": "OwnershipTransferred",
      "type": "event"
    },
    {
      "anonymous": false,
      "inputs": [
        {
          "indexed": true,
          "internalType": "uint256",
          "name": "productId",
          "type": "uint256"
        },
        {
          "indexed": false,
          "internalType": "enum PointsMarketplace.AssetType",
          "name": "assetType",
          "type": "uint8"
        },
        {
          "indexed": false,
          "internalType": "address",
          "name": "assetAddress",
          "type": "address"
        },
        {
          "indexed": false,
          "internalType": "uint256",
          "name": "tokenId",
          "type": "uint256"
        },
        {
          "indexed": false,
          "internalType": "uint256",
          "name": "amount",
          "type": "uint256"
        }
      ],
      "name": "ProductAdded",
      "type": "event"
    },
    {
      "anonymous": false,
      "inputs": [
        {
          "indexed": true,
          "internalType": "uint256",
          "name": "productId",
          "type": "uint256"
        },
        {
          "indexed": false,
          "internalType": "uint256",
          "name": "amount",
          "type": "uint256"
        }
      ],
      "name": "ProductAmountChanged",
      "type": "event"
    },
    {
      "anonymous": false,
      "inputs": [
        {
          "indexed": true,
          "internalType": "uint256",
          "name": "productId",
          "type": "uint256"
        }
      ],
      "name": "ProductDeleted",
      "type": "event"
    },
    {
      "anonymous": false,
      "inputs": [
        {
          "indexed": true,
          "internalType": "address",
          "name": "user",
          "type": "address"
        },
        {
          "indexed": true,
          "internalType": "uint256",
          "name": "productId",
          "type": "uint256"
        },
        {
          "indexed": false,
          "internalType": "uint256",
          "name": "amount",
          "type": "uint256"
        }
      ],
      "name": "ProductPurchased",
      "type": "event"
    },
    {
      "inputs": [
        {
          "internalType": "enum PointsMarketplace.AssetType",
          "name": "_assetType",
          "type": "uint8"
        },
        {
          "internalType": "address",
          "name": "_assetAddress",
          "type": "address"
        },
        {
          "internalType": "uint256",
          "name": "_tokenId",
          "type": "uint256"
        },
        {
          "internalType": "uint256",
          "name": "_amount",
          "type": "uint256"
        }
      ],
      "name": "addProduct",
      "outputs": [],
      "stateMutability": "nonpayable",
      "type": "function"
    },
    {
      "inputs": [
        {
          "internalType": "uint256",
          "name": "_productId",
          "type": "uint256"
        },
        {
          "internalType": "uint256",
          "name": "_amount",
          "type": "uint256"
        },
        {
          "internalType": "uint256",
          "name": "_timestamp",
          "type": "uint256"
        },
        {
          "internalType": "bytes",
          "name": "_signature",
          "type": "bytes"
        }
      ],
      "name": "buyProduct",
      "outputs": [],
      "stateMutability": "nonpayable",
      "type": "function"
    },
    {
      "inputs": [
        {
          "internalType": "uint256",
          "name": "_productId",
          "type": "uint256"
        },
        {
          "internalType": "uint256[]",
          "name": "_tokenIds",
          "type": "uint256[]"
        },
        {
          "internalType": "uint256",
          "name": "_timestamp",
          "type": "uint256"
        },
        {
          "internalType": "bytes",
          "name": "_signature",
          "type": "bytes"
        }
      ],
      "name": "buyProductERC721",
      "outputs": [],
      "stateMutability": "nonpayable",
      "type": "function"
    },
    {
      "inputs": [
        {
          "internalType": "uint256",
          "name": "_productId",
          "type": "uint256"
        },
        {
          "internalType": "uint256",
          "name": "_amount",
          "type": "uint256"
        }
      ],
      "name": "changeProductAmount",
      "outputs": [],
      "stateMutability": "nonpayable",
      "type": "function"
    },
    {
      "inputs": [
        {
          "internalType": "uint256",
          "name": "_productId",
          "type": "uint256"
        }
      ],
      "name": "deleteProduct",
      "outputs": [],
      "stateMutability": "nonpayable",
      "type": "function"
    },
    {
      "inputs": [
        {
          "internalType": "enum PointsMarketplace.AssetType",
          "name": "_assetType",
          "type": "uint8"
        },
        {
          "internalType": "address",
          "name": "_assetAddress",
          "type": "address"
        },
        {
          "internalType": "uint256[]",
          "name": "_tokenIds",
          "type": "uint256[]"
        },
        {
          "internalType": "uint256",
          "name": "_amount",
          "type": "uint256"
        }
      ],
      "name": "emergencyWithdraw",
      "outputs": [],
      "stateMutability": "nonpayable",
      "type": "function"
    },
    {
      "inputs": [
        {
          "internalType": "address",
          "name": "_trustedSigner",
          "type": "address"
        }
      ],
      "name": "initialize",
      "outputs": [],
      "stateMutability": "nonpayable",
      "type": "function"
    },
    {
      "inputs": [],
      "name": "owner",
      "outputs": [
        {
          "internalType": "address",
          "name": "",
          "type": "address"
        }
      ],
      "stateMutability": "view",
      "type": "function"
    },
    {
      "inputs": [],
      "name": "productCount",
      "outputs": [
        {
          "internalType": "uint256",
          "name": "",
          "type": "uint256"
        }
      ],
      "stateMutability": "view",
      "type": "function"
    },
    {
      "inputs": [
        {
          "internalType": "uint256",
          "name": "",
          "type": "uint256"
        }
      ],
      "name": "products",
      "outputs": [
        {
          "internalType": "enum PointsMarketplace.AssetType",
          "name": "assetType",
          "type": "uint8"
        },
        {
          "internalType": "address",
          "name": "assetAddress",
          "type": "address"
        },
        {
          "internalType": "uint256",
          "name": "tokenId",
          "type": "uint256"
        },
        {
          "internalType": "uint256",
          "name": "amount",
          "type": "uint256"
        }
      ],
      "stateMutability": "view",
      "type": "function"
    },
    {
      "inputs": [],
      "name": "renounceOwnership",
      "outputs": [],
      "stateMutability": "nonpayable",
      "type": "function"
    },
    {
      "inputs": [
        {
          "internalType": "address",
          "name": "_newTrustedSigner",
          "type": "address"
        }
      ],
      "name": "setTrustedSigner",
      "outputs": [],
      "stateMutability": "nonpayable",
      "type": "function"
    },
    {
      "inputs": [],
      "name": "signingNonce",
      "outputs": [
        {
          "internalType": "uint256",
          "name": "",
          "type": "uint256"
        }
      ],
      "stateMutability": "view",
      "type": "function"
    },
    {
      "inputs": [
        {
          "internalType": "address",
          "name": "newOwner",
          "type": "address"
        }
      ],
      "name": "transferOwnership",
      "outputs": [],
      "stateMutability": "nonpayable",
      "type": "function"
    },
    {
      "inputs": [],
      "name": "trustedSigner",
      "outputs": [
        {
          "internalType": "address",
          "name": "",
          "type": "address"
        }
      ],
      "stateMutability": "view",
      "type": "function"
    }
  ],
  "bytecode": "0x60806040523461001f57610011610024565b612ad06100308239612ad090f35b61002a565b60405190565b600080fdfe60806040526004361015610013575b6109a8565b61001e60003561010d565b806356a1c701146101085780636a278f6d14610103578063715018a6146100fe5780637acc0b20146100f957806382ac4168146100f45780638ce4b2cf146100ef5780638da5cb5b146100ea57806391998c6b146100e55780639a6d6ae9146100e0578063c4d66de8146100db578063d685e8b9146100d6578063e0f6ef87146100d1578063ed90c7b7146100cc578063f2fde38b146100c75763f74d54800361000e57610973565b61090a565b6108d7565b6108a2565b61085e565b6107fd565b6107c6565b610728565b610638565b6105eb565b610507565b61047e565b61028e565b610247565b610188565b60e01c90565b60405190565b600080fd5b600080fd5b600080fd5b60018060a01b031690565b61013c90610128565b90565b61014881610133565b0361014f57565b600080fd5b905035906101618261013f565b565b9060208282031261017d5761017a91600001610154565b90565b61011e565b60000190565b346101b6576101a061019b366004610163565b610a45565b6101a8610113565b806101b281610182565b0390f35b610119565b600311156101c557565b600080fd5b905035906101d7826101bb565b565b90565b6101e5816101d9565b036101ec57565b600080fd5b905035906101fe826101dc565b565b6080818303126102425761021782600083016101ca565b9261023f6102288460208501610154565b9361023681604086016101f1565b936060016101f1565b90565b61011e565b346102795761026361025a366004610200565b92919091610d6b565b61026b610113565b8061027581610182565b0390f35b610119565b600091031261028957565b61011e565b346102bc5761029e36600461027e565b6102a6610dca565b6102ae610113565b806102b881610182565b0390f35b610119565b906020828203126102db576102d8916000016101f1565b90565b61011e565b90565b6102f76102f26102fc926101d9565b6102e0565b6101d9565b90565b90610309906102e3565b600052602052604060002090565b60001c90565b60ff1690565b61032f61033491610317565b61031d565b90565b6103419054610323565b90565b60081c90565b60018060a01b031690565b61036161036691610344565b61034a565b90565b6103739054610355565b90565b90565b61038561038a91610317565b610376565b90565b6103979054610379565b90565b6103a59060976102ff565b906103b260008301610337565b916103bf60008201610369565b916103d860026103d16001850161038d565b930161038d565b90565b634e487b7160e01b600052602160045260246000fd5b600311156103fb57565b6103db565b9061040a826103f1565b565b61041590610400565b90565b6104219061040c565b9052565b61042e90610133565b9052565b61043b906101d9565b9052565b61047561047c9461046b606094989795610461608086019a6000870190610418565b6020850190610425565b6040830190610432565b0190610432565b565b346104b2576104ae6104996104943660046102c1565b61039a565b906104a5949294610113565b9485948561043f565b0390f35b610119565b1c90565b6104cb9060086104d093026104b7565b610376565b90565b906104de91546104bb565b90565b6104ee609a6000906104d3565b90565b919061050590600060208501940190610432565b565b346105375761051736600461027e565b6105336105226104e1565b61052a610113565b918291826104f1565b0390f35b610119565b600080fd5b600080fd5b600080fd5b909182601f830112156105855781359167ffffffffffffffff831161058057602001926001830284011161057b57565b610546565b610541565b61053c565b906080828203126105e6576105a281600084016101f1565b926105b082602085016101f1565b926105be83604083016101f1565b92606082013567ffffffffffffffff81116105e1576105dd920161054b565b9091565b610123565b61011e565b3461061d576106076105fe36600461058a565b939290926113cb565b61060f610113565b8061061981610182565b0390f35b610119565b919061063690600060208501940190610425565b565b346106685761064836600461027e565b610664610653611400565b61065b610113565b91829182610622565b0390f35b610119565b909182601f830112156106a75781359167ffffffffffffffff83116106a257602001926020830284011161069d57565b610546565b610541565b61053c565b9091608082840312610723576106c583600084016101f1565b92602083013567ffffffffffffffff811161071e57816106e691850161066d565b9290936106f683604083016101f1565b92606082013567ffffffffffffffff811161071957610715920161054b565b9091565b610123565b610123565b61011e565b3461075d5761074761073b3660046106ac565b949390939291926116e3565b61074f610113565b8061075981610182565b0390f35b610119565b9190916080818403126107c15761077c83600083016101ca565b9261078a8160208401610154565b92604083013567ffffffffffffffff81116107bc576107ae836107b992860161066d565b9390946060016101f1565b90565b610123565b61011e565b346107f8576107e26107d9366004610762565b939290926119b7565b6107ea610113565b806107f481610182565b0390f35b610119565b3461082b57610815610810366004610163565b611cd7565b61081d610113565b8061082781610182565b0390f35b610119565b9190604083820312610859578061084d61085692600086016101f1565b936020016101f1565b90565b61011e565b3461088d57610877610871366004610830565b90611d52565b61087f610113565b8061088981610182565b0390f35b610119565b61089f60986000906104d3565b90565b346108d2576108b236600461027e565b6108ce6108bd610892565b6108c5610113565b918291826104f1565b0390f35b610119565b34610905576108ef6108ea3660046102c1565b611e68565b6108f7610113565b8061090181610182565b0390f35b610119565b346109385761092261091d366004610163565b611f61565b61092a610113565b8061093481610182565b0390f35b610119565b61094d90600861095293026104b7565b61034a565b90565b90610960915461093d565b90565b6109706099600090610955565b90565b346109a35761098336600461027e565b61099f61098e610963565b610996610113565b91829182610622565b0390f35b610119565b600080fd5b6109be906109b9611fef565b610a38565b565b60001b90565b906109d760018060a01b03916109c0565b9181191691161790565b6109f56109f06109fa92610128565b6102e0565b610128565b90565b610a06906109e1565b90565b610a12906109fd565b90565b90565b90610a2d610a28610a3492610a09565b610a15565b82546109c6565b9055565b610a43906099610a18565b565b610a4e906109ad565b565b90610a64939291610a5f611fef565b610ca0565b565b601f801991011690565b634e487b7160e01b600052604160045260246000fd5b90610a9090610a66565b810190811067ffffffffffffffff821117610aaa57604052565b610a70565b90610ac2610abb610113565b9283610a86565b565b610ace6080610aaf565b90565b90610adb90610400565b9052565b90610ae990610133565b9052565b90610af7906101d9565b9052565b634e487b7160e01b600052600060045260246000fd5b610b1b9051610400565b90565b90610b2a60ff916109c0565b9181191691161790565b610b3d90610400565b90565b90565b90610b58610b53610b5f92610b34565b610b40565b8254610b1e565b9055565b610b6d9051610133565b90565b60081b90565b90610b89610100600160a81b0391610b70565b9181191691161790565b90610ba8610ba3610baf92610a09565b610a15565b8254610b76565b9055565b610bbd90516101d9565b90565b90610bcd600019916109c0565b9181191691161790565b90565b90610bef610bea610bf6926102e3565b610bd7565b8254610bc0565b9055565b90610c5960606002610c5f94610c1f60008201610c1960008801610b11565b90610b43565b610c3860008201610c3260208801610b63565b90610b93565b610c5160018201610c4b60408801610bb3565b90610bda565b019201610bb3565b90610bda565b565b90610c6b91610bfa565b565b634e487b7160e01b600052601160045260246000fd5b610c8c906101d9565b6000198114610c9b5760010190565b610c6d565b9190610cfd83610ce383610cda86610cd18a93610cc8610cbe610ac4565b9760008901610ad1565b60208701610adf565b60408501610aed565b60608301610aed565b610cf86097610cf2609861038d565b906102ff565b610c61565b610d4a610d0a609861038d565b93919294610d387f75500ae57998380038627385e917c9a81ddafa84c45c93d0fb0e7ff87802e5a2956102e3565b95610d41610113565b9485948561043f565b0390a2610d69610d62610d5d609861038d565b610c83565b6098610bda565b565b90610d77939291610a50565b565b610d81611fef565b610d89610db6565b565b90565b610da2610d9d610da792610d8b565b6102e0565b610128565b90565b610db390610d8e565b90565b610dc8610dc36000610daa565b61201b565b565b610dd2610d79565b565b90610de994939291610de461212c565b611129565b610df1612196565b565b610dfd6080610aaf565b90565b90610e69610e606002610e11610df3565b94610e2a610e2160008301610337565b60008801610ad1565b610e42610e3960008301610369565b60208801610adf565b610e5a610e516001830161038d565b60408801610aed565b0161038d565b60608401610aed565b565b610e7490610e00565b90565b60209181520190565b60207f6564000000000000000000000000000000000000000000000000000000000000917f41737365742074797065206d69736d61746368206f7220756e737570706f727460008201520152565b610edb6022604092610e77565b610ee481610e80565b0190565b610efe9060208101906000818303910152610ece565b90565b15610f0857565b610f10610113565b62461bcd60e51b815280610f2660048201610ee8565b0390fd5b60007f496e76616c6964207369676e6174757265000000000000000000000000000000910152565b610f5f6011602092610e77565b610f6881610f2a565b0190565b610f829060208101906000818303910152610f52565b90565b15610f8c57565b610f94610113565b62461bcd60e51b815280610faa60048201610f6c565b0390fd5b610fbd610fc3919392936101d9565b926101d9565b8203918211610fce57565b610c6d565b610fdc906109e1565b90565b610fe890610fd3565b90565b610ff4906109fd565b90565b611000906109fd565b90565b600080fd5b60e01b90565b600091031261101957565b61011e565b60209181520190565b6110336000809261101e565b0190565b919361106e61107892946110646110859761105a60a08801986000890190610425565b6020870190610425565b6040850190610432565b6060830190610432565b6080818303910152611027565b90565b611090610113565b3d6000823e3d90fd5b6110a2906109e1565b90565b6110ae90611099565b90565b6110ba906109fd565b90565b151590565b6110cb816110bd565b036110d257565b600080fd5b905051906110e4826110c2565b565b90602082820312611100576110fd916000016110d7565b90565b61011e565b91602061112792949361112060408201966000830190610425565b0190610432565b565b9361118a91939261118591611148611143609789906102ff565b610e6b565b9461115560008701610b11565b6111686111626000610400565b91610400565b1480156113a0575b61117990610f01565b3392879091929361237d565b610f85565b6111b5826111af600261119f609788906102ff565b01916111aa8361038d565b610fae565b90610bda565b6111c160008201610b11565b6111d46111ce6000610400565b91610400565b146000146112be576111f36111ee60206111f89301610b63565b6110a5565b6110b1565b602063a9059cbb9133906112206000869561122b611214610113565b97889687958694611008565b845260048401611105565b03925af180156112b95761128d575b505b339190916112886112766112707f228a5d93a19503d5154326b1b21603e2cdd97bda22fc58196235b4490659fc0193610a09565b936102e3565b9361127f610113565b918291826104f1565b0390a3565b6112ad9060203d81116112b2575b6112a58183610a86565b8101906110e6565b61123a565b503d61129b565b611088565b6112ca60008201610b11565b6112dd6112d76002610400565b91610400565b146112e9575b5061123c565b6113056113006112fb60208401610b63565b610fdf565b610feb565b63f242432a9061131430610ff7565b906113226040339501610bb3565b85823b1561139b57600094611355869261134a9461133e610113565b998a9889978896611008565b865260048601611037565b03925af1801561139657611369575b6112e3565b6113899060003d811161138f575b6113818183610a86565b81019061100e565b38611364565b503d611377565b611088565b611003565b506111796113b060008801610b11565b6113c36113bd6002610400565b91610400565b149050611170565b906113d894939291610dd4565b565b600090565b6113eb6113f091610317565b61034a565b90565b6113fd90546113df565b90565b6114086113da565b5061141360336113f3565b90565b9061142c959493929161142761212c565b6114f4565b611434612196565b565b5090565b61144e61144961145392610d8b565b6102e0565b6101d9565b90565b600161146291016101d9565b90565b61146e906109e1565b90565b61147a90611465565b90565b611486906109fd565b90565b634e487b7160e01b600052603260045260246000fd5b91908110156114af576020020190565b611489565b356114be816101dc565b90565b6040906114eb6114f294969593966114e160608401986000850190610425565b6020830190610425565b0190610432565b565b9461155991969294936115549161151561151060978a906102ff565b610e6b565b9561153e61152560008901610b11565b6115386115326001610400565b91610400565b14610f01565b339261154b8b8a90611436565b9091929361237d565b610f85565b61158e611567868590611436565b6115886002611578609789906102ff565b01916115838361038d565b610fae565b90610bda565b611598600061143a565b5b806115b66115b06115ab898890611436565b6101d9565b916101d9565b1015611685576115d86115d36115ce60208601610b63565b611471565b61147d565b906342842e0e6115e730610ff7565b33936115fd6115f88b8a879161149f565b6114b4565b92813b156116805760006116249161162f8296611618610113565b998a9788968795611008565b8552600485016114c1565b03925af191821561167b576116499261164e575b50611456565b611599565b61166e9060003d8111611674575b6116668183610a86565b81019061100e565b38611643565b503d61165c565b611088565b611003565b5093916116959150339392611436565b916116de6116cc6116c67f228a5d93a19503d5154326b1b21603e2cdd97bda22fc58196235b4490659fc0193610a09565b936102e3565b936116d5610113565b918291826104f1565b0390a3565b906116f19594939291611416565b565b9061170894939291611703611fef565b61170a565b565b9290928061172161171b6000610400565b91610400565b146000146117b45750505061173f61173a6020926110a5565b6110b1565b9163a9059cbb926117656000339395611770611759610113565b97889687958694611008565b845260048401611105565b03925af180156117af57611783575b505b565b6117a39060203d81116117a8575b61179b8183610a86565b8101906110e6565b61177f565b503d611791565b611088565b8094939192946117cd6117c76002610400565b91610400565b1460001461189557506117e26117e791610fdf565b610feb565b63f242432a926118156118106117fc30610ff7565b9433979061180a600061143a565b9161149f565b6114b4565b90823b1561189057600094611848869261183d94611831610113565b998a9889978896611008565b865260048601611037565b03925af1801561188b5761185e575b505b611781565b61187e9060003d8111611884575b6118768183610a86565b81019061100e565b38611857565b503d61186c565b611088565b611003565b909192509392936118af6118a96001610400565b91610400565b146118be575b50509050611859565b6118c8600061143a565b5b806118e66118e06118db888790611436565b6101d9565b916101d9565b10156119aa576118fd6118f883611471565b61147d565b906342842e0e61190c30610ff7565b339361192261191d8a89879161149f565b6114b4565b92813b156119a557600061194991611954829661193d610113565b998a9788968795611008565b8552600485016114c1565b03925af19182156119a05761196e92611973575b50611456565b6118c9565b6119939060003d8111611999575b61198b8183610a86565b81019061100e565b38611968565b503d611981565b611088565b611003565b50505090508038806118b5565b906119c4949392916116f3565b565b60ff1690565b6119d86119dd91610344565b6119c6565b90565b6119ea90546119cc565b90565b60ff1690565b6119ff611a0491610317565b6119ed565b90565b611a1190546119f3565b90565b60ff1690565b90565b611a31611a2c611a3692611a1a565b6102e0565b611a14565b90565b611a42906109fd565b90565b60207f647920696e697469616c697a6564000000000000000000000000000000000000917f496e697469616c697a61626c653a20636f6e747261637420697320616c72656160008201520152565b611aa0602e604092610e77565b611aa981611a45565b0190565b611ac39060208101906000818303910152611a93565b90565b15611acd57565b611ad5610113565b62461bcd60e51b815280611aeb60048201611aad565b0390fd5b611b03611afe611b0892611a14565b6102e0565b611a14565b90565b90565b90611b23611b1e611b2a92611aef565b611b0b565b8254610b1e565b9055565b90611b3b61ff0091610b70565b9181191691161790565b611b4e906110bd565b90565b90565b90611b69611b64611b7092611b45565b611b51565b8254611b2e565b9055565b611b7d90611a1d565b9052565b9190611b9590600060208501940190611b74565b565b611be4611bad611ba760006119e0565b156110bd565b918280611c96575b8015611c47575b611bc590611ac6565b611bd9611bd26001611a1d565b6000611b0e565b82611c36575b611cba565b611beb575b565b611bf6600080611b54565b6001611c2e7f7f26b83ff96e1f2b6a682f133852f6798a09c465da95921460cefb384740249891611c25610113565b91829182611b81565b0390a1611be9565b611c4260016000611b54565b611bdf565b50611c62611c5c611c5730611a39565b61244f565b156110bd565b80611c6d575b611bbc565b50611bc5611c7b6000611a07565b611c8e611c886001611a1d565b91611a14565b149050611c68565b50611ca16000611a07565b611cb4611cae6001611a1d565b91611a14565b10611bb5565b611cd590611cc6612540565b611cce612570565b6099610a18565b565b611ce090611b97565b565b90611cf491611cef611fef565b611cf6565b565b611d0e826002611d08609785906102ff565b01610bda565b611d4d611d3b7f06584a2dcca799ee720d97a3475926876323669dbda9dccce1d48a426896d535926102e3565b92611d44610113565b918291826104f1565b0390a2565b90611d5c91611ce2565b565b611d6f90611d6a611fef565b611e10565b565b1b90565b91906008611d91910291611d8b60001984611d71565b92611d71565b9181191691161790565b9190611db1611dac611db9936102e3565b610bd7565b908354611d75565b9055565b600090565b611dd491611dce611dbd565b91611d9b565b565b60006002611df6928280820155611df08360018301611dc2565b01611dc2565b565b90600003611e0b57611e0990611dd6565b565b610afb565b611e266000611e21609784906102ff565b611df8565b611e507fc341cf326465fe622f86c468249e8c0cb03ed23ba376a6a34863a1374ac7d769916102e3565b90611e59610113565b80611e6381610182565b0390a2565b611e7190611d5e565b565b611e8490611e7f611fef565b611f30565b565b60207f6464726573730000000000000000000000000000000000000000000000000000917f4f776e61626c653a206e6577206f776e657220697320746865207a65726f206160008201520152565b611ee16026604092610e77565b611eea81611e86565b0190565b611f049060208101906000818303910152611ed4565b90565b15611f0e57565b611f16610113565b62461bcd60e51b815280611f2c60048201611eee565b0390fd5b611f5f90611f5a81611f53611f4d611f486000610daa565b610133565b91610133565b1415611f07565b61201b565b565b611f6a90611e73565b565b60007f4f776e61626c653a2063616c6c6572206973206e6f7420746865206f776e6572910152565b611fa060208092610e77565b611fa981611f6c565b0190565b611fc39060208101906000818303910152611f94565b90565b15611fcd57565b611fd5610113565b62461bcd60e51b815280611feb60048201611fad565b0390fd5b612019611ffa611400565b61201361200d61200861257a565b610133565b91610133565b14611fc6565b565b61202560336113f3565b612030826033610a18565b9061206461205e7f8be0079c531659141344cd1fd0a4f28419497f9722a3daafe3b4186f6b6457e093610a09565b91610a09565b9161206d610113565b8061207781610182565b0390a3565b90565b61209361208e6120989261207c565b6102e0565b6101d9565b90565b6120a5600261207f565b90565b60007f5265656e7472616e637947756172643a207265656e7472616e742063616c6c00910152565b6120dd601f602092610e77565b6120e6816120a8565b0190565b61210090602081019060008183039101526120d0565b90565b1561210a57565b612112610113565b62461bcd60e51b815280612128600482016120ea565b0390fd5b612159612139606561038d565b61215261214c61214761209b565b6101d9565b916101d9565b1415612103565b61216b61216461209b565b6065610bda565b565b61218161217c61218692611a1a565b6102e0565b6101d9565b90565b612193600161216d565b90565b6121a86121a1612189565b6065610bda565b565b600090565b90565b6121c66121c16121cb926121af565b6102e0565b6101d9565b90565b6121dd6121e3919392936101d9565b926101d9565b82018092116121ee57565b610c6d565b60007f5369676e61747572652065787069726564000000000000000000000000000000910152565b6122286011602092610e77565b612231816121f3565b0190565b61224b906020810190600081830391015261221b565b90565b1561225557565b61225d610113565b62461bcd60e51b81528061227360048201612235565b0390fd5b60601b90565b61228690612277565b90565b6122929061227d565b90565b6122a16122a691610133565b612289565b9052565b90565b6122b96122be916101d9565b6122aa565b9052565b926122ef60206122f7946122e76014886122df859b9a8699612295565b0180926122ad565b0180926122ad565b0180926122ad565b0190565b60200190565b5190565b600080fd5b67ffffffffffffffff811161232857612324602091610a66565b0190565b610a70565b90826000939282370152565b9092919261234e6123498261230a565b610aaf565b9381855260208501908284011161236a576123689261232d565b565b612305565b61237a913691612339565b90565b61242a9261240c61243096936123fd612424946123986121aa565b506123c9426123c36123bd6123b8896123b26102586121b2565b906121ce565b6101d9565b916101d9565b1061224e565b91936123d5609a61038d565b6123e86123e182610c83565b609a610bda565b906123f1610113565b958694602086016122c2565b60208201810382520382610a86565b61241e61241882612301565b916122fb565b2061258c565b9261236f565b906125c4565b61244b61244561244060996113f3565b610133565b91610133565b1490565b6124576121aa565b503b61246c612466600061143a565b916101d9565b1190565b60207f6e697469616c697a696e67000000000000000000000000000000000000000000917f496e697469616c697a61626c653a20636f6e7472616374206973206e6f74206960008201520152565b6124cb602b604092610e77565b6124d481612470565b0190565b6124ee90602081019060008183039101526124be565b90565b156124f857565b612500610113565b62461bcd60e51b815280612516600482016124d8565b0390fd5b61252c61252760006119e0565b6124f1565b612534612536565b565b61253e612613565b565b61254861251a565b565b61255c61255760006119e0565b6124f1565b612564612566565b565b61256e61264d565b565b61257861254a565b565b6125826113da565b503390565b600090565b612594612587565b507f19457468657265756d205369676e6564204d6573736167653a0a333200000000600052601c52603c60002090565b6125e2916125da916125d46113da565b50612680565b919091612859565b90565b6125f76125f260006119e0565b6124f1565b6125ff612601565b565b61261161260c61257a565b61201b565b565b61261b6125e5565b565b61262f61262a60006119e0565b6124f1565b612637612639565b565b61264b612644612189565b6065610bda565b565b61265561261d565b565b600090565b90565b61267361266e6126789261265c565b6102e0565b6101d9565b90565b600090565b6126886113da565b50612691612657565b5061269b82612301565b6126ae6126a8604161265f565b916101d9565b146000146126f5576126ef916126c2612587565b506126cb612587565b506126d461267b565b5060208101516060604083015192015160001a9091926129bf565b91909190565b50506127016000610daa565b90600290565b6005111561271157565b6103db565b9061272082612707565b565b60207f7565000000000000000000000000000000000000000000000000000000000000917f45434453413a20696e76616c6964207369676e6174757265202773272076616c60008201520152565b61277d6022604092610e77565b61278681612722565b0190565b6127a09060208101906000818303910152612770565b90565b60007f45434453413a20696e76616c6964207369676e6174757265206c656e67746800910152565b6127d8601f602092610e77565b6127e1816127a3565b0190565b6127fb90602081019060008183039101526127cb565b90565b60007f45434453413a20696e76616c6964207369676e61747572650000000000000000910152565b6128336018602092610e77565b61283c816127fe565b0190565b6128569060208101906000818303910152612826565b90565b8061286d6128676000612716565b91612716565b146000146128785750565b8061288c6128866001612716565b91612716565b146000146128b65761289c610113565b62461bcd60e51b8152806128b260048201612840565b0390fd5b806128ca6128c46002612716565b91612716565b146000146128f4576128da610113565b62461bcd60e51b8152806128f0600482016127e5565b0390fd5b6129076129016003612716565b91612716565b1461290e57565b612916610113565b62461bcd60e51b81528061292c6004820161278a565b0390fd5b61293c61294191610317565b6102e3565b90565b90565b61295b61295661296092612944565b6102e0565b6101d9565b90565b90565b61296f90612963565b9052565b61297c90611a14565b9052565b6129b66129bd946129ac6060949897956129a2608086019a6000870190612966565b6020850190612973565b6040830190612966565b0190612966565b565b9291906129ca6113da565b506129d3612657565b506129dd83612930565b612a0f612a097f7fffffffffffffffffffffffffffffff5d576e7357a4501ddfe92f46681b20a0612947565b916101d9565b11612a8657612a306000936020959293612a27610113565b94859485612980565b838052039060015afa15612a8157612a496000516109c0565b80612a65612a5f612a5a6000610daa565b610133565b91610133565b14612a705790600090565b50612a7b6000610daa565b90600190565b611088565b50505050612a946000610daa565b9060039056fea2646970667358221220cf805db80c52ee871ec324e4a575a16a06652714186acea999cde6a365905add64736f6c63430008180033",
  "linkReferences": {},
  "deployedLinkReferences": {}
}