{
  "_format": "hh-sol-artifact-1",
  "contractName": "PointsMarketplace",
  "sourceName": "contracts/PointsMarketplace.sol",
  "abi": [
    {
      "anonymous": false,
      "inputs": [
        {
          "indexed": false,
          "internalType": "uint8",
          "name": "version",
          "type": "uint8"
        }
      ],
      "name": "Initialized",
      "type": "event"
    },
    {
      "anonymous": false,
      "inputs": [
        {
          "indexed": true,
          "internalType": "address",
          "name": "previousOwner",
          "type": "address"
        },
        {
          "indexed": true,
          "internalType": "address",
          "name": "newOwner",
          "type": "address"
        }
      ],
      "name": "OwnershipTransferred",
      "type": "event"
    },
    {
      "anonymous": false,
      "inputs": [
        {
          "indexed": true,
          "internalType": "uint256",
          "name": "productId",
          "type": "uint256"
        },
        {
          "indexed": false,
          "internalType": "enum PointsMarketplace.AssetType",
          "name": "assetType",
          "type": "uint8"
        },
        {
          "indexed": false,
          "internalType": "address",
          "name": "assetAddress",
          "type": "address"
        },
        {
          "indexed": false,
          "internalType": "uint256",
          "name": "tokenId",
          "type": "uint256"
        },
        {
          "indexed": false,
          "internalType": "uint256",
          "name": "amount",
          "type": "uint256"
        }
      ],
      "name": "ProductAdded",
      "type": "event"
    },
    {
      "anonymous": false,
      "inputs": [
        {
          "indexed": true,
          "internalType": "uint256",
          "name": "productId",
          "type": "uint256"
        },
        {
          "indexed": false,
          "internalType": "uint256",
          "name": "amount",
          "type": "uint256"
        }
      ],
      "name": "ProductAmountChanged",
      "type": "event"
    },
    {
      "anonymous": false,
      "inputs": [
        {
          "indexed": true,
          "internalType": "uint256",
          "name": "productId",
          "type": "uint256"
        }
      ],
      "name": "ProductDeleted",
      "type": "event"
    },
    {
      "anonymous": false,
      "inputs": [
        {
          "indexed": true,
          "internalType": "address",
          "name": "user",
          "type": "address"
        },
        {
          "indexed": true,
          "internalType": "uint256",
          "name": "productId",
          "type": "uint256"
        },
        {
          "indexed": false,
          "internalType": "uint256",
          "name": "amount",
          "type": "uint256"
        }
      ],
      "name": "ProductPurchased",
      "type": "event"
    },
    {
      "inputs": [
        {
          "internalType": "enum PointsMarketplace.AssetType",
          "name": "_assetType",
          "type": "uint8"
        },
        {
          "internalType": "address",
          "name": "_assetAddress",
          "type": "address"
        },
        {
          "internalType": "uint256",
          "name": "_tokenId",
          "type": "uint256"
        },
        {
          "internalType": "uint256",
          "name": "_amount",
          "type": "uint256"
        }
      ],
      "name": "addProduct",
      "outputs": [],
      "stateMutability": "nonpayable",
      "type": "function"
    },
    {
      "inputs": [
        {
          "internalType": "uint256",
          "name": "_productId",
          "type": "uint256"
        },
        {
          "internalType": "uint256",
          "name": "_amount",
          "type": "uint256"
        },
        {
          "internalType": "uint256",
          "name": "_timestamp",
          "type": "uint256"
        },
        {
          "internalType": "bytes",
          "name": "_signature",
          "type": "bytes"
        }
      ],
      "name": "buyProduct",
      "outputs": [],
      "stateMutability": "nonpayable",
      "type": "function"
    },
    {
      "inputs": [
        {
          "internalType": "uint256",
          "name": "_productId",
          "type": "uint256"
        },
        {
          "internalType": "uint256[]",
          "name": "_tokenIds",
          "type": "uint256[]"
        },
        {
          "internalType": "uint256",
          "name": "_timestamp",
          "type": "uint256"
        },
        {
          "internalType": "bytes",
          "name": "_signature",
          "type": "bytes"
        }
      ],
      "name": "buyProductERC721",
      "outputs": [],
      "stateMutability": "nonpayable",
      "type": "function"
    },
    {
      "inputs": [
        {
          "internalType": "uint256",
          "name": "_productId",
          "type": "uint256"
        },
        {
          "internalType": "uint256",
          "name": "_amount",
          "type": "uint256"
        }
      ],
      "name": "changeProductAmount",
      "outputs": [],
      "stateMutability": "nonpayable",
      "type": "function"
    },
    {
      "inputs": [
        {
          "internalType": "uint256",
          "name": "_productId",
          "type": "uint256"
        }
      ],
      "name": "deleteProduct",
      "outputs": [],
      "stateMutability": "nonpayable",
      "type": "function"
    },
    {
      "inputs": [
        {
          "internalType": "enum PointsMarketplace.AssetType",
          "name": "_assetType",
          "type": "uint8"
        },
        {
          "internalType": "address",
          "name": "_assetAddress",
          "type": "address"
        },
        {
          "internalType": "uint256[]",
          "name": "_tokenIds",
          "type": "uint256[]"
        },
        {
          "internalType": "uint256",
          "name": "_amount",
          "type": "uint256"
        }
      ],
      "name": "emergencyWithdraw",
      "outputs": [],
      "stateMutability": "nonpayable",
      "type": "function"
    },
    {
      "inputs": [
        {
          "internalType": "address",
          "name": "_trustedSigner",
          "type": "address"
        }
      ],
      "name": "initialize",
      "outputs": [],
      "stateMutability": "nonpayable",
      "type": "function"
    },
    {
      "inputs": [],
      "name": "owner",
      "outputs": [
        {
          "internalType": "address",
          "name": "",
          "type": "address"
        }
      ],
      "stateMutability": "view",
      "type": "function"
    },
    {
      "inputs": [],
      "name": "productCount",
      "outputs": [
        {
          "internalType": "uint256",
          "name": "",
          "type": "uint256"
        }
      ],
      "stateMutability": "view",
      "type": "function"
    },
    {
      "inputs": [
        {
          "internalType": "uint256",
          "name": "",
          "type": "uint256"
        }
      ],
      "name": "products",
      "outputs": [
        {
          "internalType": "enum PointsMarketplace.AssetType",
          "name": "assetType",
          "type": "uint8"
        },
        {
          "internalType": "address",
          "name": "assetAddress",
          "type": "address"
        },
        {
          "internalType": "uint256",
          "name": "tokenId",
          "type": "uint256"
        },
        {
          "internalType": "uint256",
          "name": "amount",
          "type": "uint256"
        }
      ],
      "stateMutability": "view",
      "type": "function"
    },
    {
      "inputs": [],
      "name": "renounceOwnership",
      "outputs": [],
      "stateMutability": "nonpayable",
      "type": "function"
    },
    {
      "inputs": [
        {
          "internalType": "address",
          "name": "_newTrustedSigner",
          "type": "address"
        }
      ],
      "name": "setTrustedSigner",
      "outputs": [],
      "stateMutability": "nonpayable",
      "type": "function"
    },
    {
      "inputs": [],
      "name": "signingNonce",
      "outputs": [
        {
          "internalType": "uint256",
          "name": "",
          "type": "uint256"
        }
      ],
      "stateMutability": "view",
      "type": "function"
    },
    {
      "inputs": [
        {
          "internalType": "address",
          "name": "newOwner",
          "type": "address"
        }
      ],
      "name": "transferOwnership",
      "outputs": [],
      "stateMutability": "nonpayable",
      "type": "function"
    },
    {
      "inputs": [],
      "name": "trustedSigner",
      "outputs": [
        {
          "internalType": "address",
          "name": "",
          "type": "address"
        }
      ],
      "stateMutability": "view",
      "type": "function"
    }
  ],
  "bytecode": "0x60806040523461001f57610011610024565b612ab16100308239612ab190f35b61002a565b60405190565b600080fdfe60806040526004361015610013575b6109a8565b61001e60003561010d565b806356a1c701146101085780636a278f6d14610103578063715018a6146100fe5780637acc0b20146100f957806382ac4168146100f45780638ce4b2cf146100ef5780638da5cb5b146100ea57806391998c6b146100e55780639a6d6ae9146100e0578063c4d66de8146100db578063d685e8b9146100d6578063e0f6ef87146100d1578063ed90c7b7146100cc578063f2fde38b146100c75763f74d54800361000e57610973565b61090a565b6108d7565b6108a2565b61085e565b6107fd565b6107c6565b610728565b610638565b6105eb565b610507565b61047e565b61028e565b610247565b610188565b60e01c90565b60405190565b600080fd5b600080fd5b600080fd5b60018060a01b031690565b61013c90610128565b90565b61014881610133565b0361014f57565b600080fd5b905035906101618261013f565b565b9060208282031261017d5761017a91600001610154565b90565b61011e565b60000190565b346101b6576101a061019b366004610163565b610a45565b6101a8610113565b806101b281610182565b0390f35b610119565b600311156101c557565b600080fd5b905035906101d7826101bb565b565b90565b6101e5816101d9565b036101ec57565b600080fd5b905035906101fe826101dc565b565b6080818303126102425761021782600083016101ca565b9261023f6102288460208501610154565b9361023681604086016101f1565b936060016101f1565b90565b61011e565b346102795761026361025a366004610200565b92919091610d6b565b61026b610113565b8061027581610182565b0390f35b610119565b600091031261028957565b61011e565b346102bc5761029e36600461027e565b6102a6610dca565b6102ae610113565b806102b881610182565b0390f35b610119565b906020828203126102db576102d8916000016101f1565b90565b61011e565b90565b6102f76102f26102fc926101d9565b6102e0565b6101d9565b90565b90610309906102e3565b600052602052604060002090565b60001c90565b60ff1690565b61032f61033491610317565b61031d565b90565b6103419054610323565b90565b60081c90565b60018060a01b031690565b61036161036691610344565b61034a565b90565b6103739054610355565b90565b90565b61038561038a91610317565b610376565b90565b6103979054610379565b90565b6103a59060976102ff565b906103b260008301610337565b916103bf60008201610369565b916103d860026103d16001850161038d565b930161038d565b90565b634e487b7160e01b600052602160045260246000fd5b600311156103fb57565b6103db565b9061040a826103f1565b565b61041590610400565b90565b6104219061040c565b9052565b61042e90610133565b9052565b61043b906101d9565b9052565b61047561047c9461046b606094989795610461608086019a6000870190610418565b6020850190610425565b6040830190610432565b0190610432565b565b346104b2576104ae6104996104943660046102c1565b61039a565b906104a5949294610113565b9485948561043f565b0390f35b610119565b1c90565b6104cb9060086104d093026104b7565b610376565b90565b906104de91546104bb565b90565b6104ee609a6000906104d3565b90565b919061050590600060208501940190610432565b565b346105375761051736600461027e565b6105336105226104e1565b61052a610113565b918291826104f1565b0390f35b610119565b600080fd5b600080fd5b600080fd5b909182601f830112156105855781359167ffffffffffffffff831161058057602001926001830284011161057b57565b610546565b610541565b61053c565b906080828203126105e6576105a281600084016101f1565b926105b082602085016101f1565b926105be83604083016101f1565b92606082013567ffffffffffffffff81116105e1576105dd920161054b565b9091565b610123565b61011e565b3461061d576106076105fe36600461058a565b939290926113c9565b61060f610113565b8061061981610182565b0390f35b610119565b919061063690600060208501940190610425565b565b346106685761064836600461027e565b6106646106536113fe565b61065b610113565b91829182610622565b0390f35b610119565b909182601f830112156106a75781359167ffffffffffffffff83116106a257602001926020830284011161069d57565b610546565b610541565b61053c565b9091608082840312610723576106c583600084016101f1565b92602083013567ffffffffffffffff811161071e57816106e691850161066d565b9290936106f683604083016101f1565b92606082013567ffffffffffffffff811161071957610715920161054b565b9091565b610123565b610123565b61011e565b3461075d5761074761073b3660046106ac565b949390939291926116d5565b61074f610113565b8061075981610182565b0390f35b610119565b9190916080818403126107c15761077c83600083016101ca565b9261078a8160208401610154565b92604083013567ffffffffffffffff81116107bc576107ae836107b992860161066d565b9390946060016101f1565b90565b610123565b61011e565b346107f8576107e26107d9366004610762565b939290926119a9565b6107ea610113565b806107f481610182565b0390f35b610119565b3461082b57610815610810366004610163565b611cc9565b61081d610113565b8061082781610182565b0390f35b610119565b9190604083820312610859578061084d61085692600086016101f1565b936020016101f1565b90565b61011e565b3461088d57610877610871366004610830565b90611d44565b61087f610113565b8061088981610182565b0390f35b610119565b61089f60986000906104d3565b90565b346108d2576108b236600461027e565b6108ce6108bd610892565b6108c5610113565b918291826104f1565b0390f35b610119565b34610905576108ef6108ea3660046102c1565b611e5a565b6108f7610113565b8061090181610182565b0390f35b610119565b346109385761092261091d366004610163565b611f53565b61092a610113565b8061093481610182565b0390f35b610119565b61094d90600861095293026104b7565b61034a565b90565b90610960915461093d565b90565b6109706099600090610955565b90565b346109a35761098336600461027e565b61099f61098e610963565b610996610113565b91829182610622565b0390f35b610119565b600080fd5b6109be906109b9611fe1565b610a38565b565b60001b90565b906109d760018060a01b03916109c0565b9181191691161790565b6109f56109f06109fa92610128565b6102e0565b610128565b90565b610a06906109e1565b90565b610a12906109fd565b90565b90565b90610a2d610a28610a3492610a09565b610a15565b82546109c6565b9055565b610a43906099610a18565b565b610a4e906109ad565b565b90610a64939291610a5f611fe1565b610ca0565b565b601f801991011690565b634e487b7160e01b600052604160045260246000fd5b90610a9090610a66565b810190811067ffffffffffffffff821117610aaa57604052565b610a70565b90610ac2610abb610113565b9283610a86565b565b610ace6080610aaf565b90565b90610adb90610400565b9052565b90610ae990610133565b9052565b90610af7906101d9565b9052565b634e487b7160e01b600052600060045260246000fd5b610b1b9051610400565b90565b90610b2a60ff916109c0565b9181191691161790565b610b3d90610400565b90565b90565b90610b58610b53610b5f92610b34565b610b40565b8254610b1e565b9055565b610b6d9051610133565b90565b60081b90565b90610b89610100600160a81b0391610b70565b9181191691161790565b90610ba8610ba3610baf92610a09565b610a15565b8254610b76565b9055565b610bbd90516101d9565b90565b90610bcd600019916109c0565b9181191691161790565b90565b90610bef610bea610bf6926102e3565b610bd7565b8254610bc0565b9055565b90610c5960606002610c5f94610c1f60008201610c1960008801610b11565b90610b43565b610c3860008201610c3260208801610b63565b90610b93565b610c5160018201610c4b60408801610bb3565b90610bda565b019201610bb3565b90610bda565b565b90610c6b91610bfa565b565b634e487b7160e01b600052601160045260246000fd5b610c8c906101d9565b6000198114610c9b5760010190565b610c6d565b9190610cfd83610ce383610cda86610cd18a93610cc8610cbe610ac4565b9760008901610ad1565b60208701610adf565b60408501610aed565b60608301610aed565b610cf86097610cf2609861038d565b906102ff565b610c61565b610d4a610d0a609861038d565b93919294610d387f75500ae57998380038627385e917c9a81ddafa84c45c93d0fb0e7ff87802e5a2956102e3565b95610d41610113565b9485948561043f565b0390a2610d69610d62610d5d609861038d565b610c83565b6098610bda565b565b90610d77939291610a50565b565b610d81611fe1565b610d89610db6565b565b90565b610da2610d9d610da792610d8b565b6102e0565b610128565b90565b610db390610d8e565b90565b610dc8610dc36000610daa565b61200d565b565b610dd2610d79565b565b90610de994939291610de461211e565b611129565b610df1612188565b565b610dfd6080610aaf565b90565b90610e69610e606002610e11610df3565b94610e2a610e2160008301610337565b60008801610ad1565b610e42610e3960008301610369565b60208801610adf565b610e5a610e516001830161038d565b60408801610aed565b0161038d565b60608401610aed565b565b610e7490610e00565b90565b60209181520190565b60207f6564000000000000000000000000000000000000000000000000000000000000917f41737365742074797065206d69736d61746368206f7220756e737570706f727460008201520152565b610edb6022604092610e77565b610ee481610e80565b0190565b610efe9060208101906000818303910152610ece565b90565b15610f0857565b610f10610113565b62461bcd60e51b815280610f2660048201610ee8565b0390fd5b60007f496e76616c6964207369676e6174757265000000000000000000000000000000910152565b610f5f6011602092610e77565b610f6881610f2a565b0190565b610f829060208101906000818303910152610f52565b90565b15610f8c57565b610f94610113565b62461bcd60e51b815280610faa60048201610f6c565b0390fd5b610fbd610fc3919392936101d9565b926101d9565b8203918211610fce57565b610c6d565b610fdc906109e1565b90565b610fe890610fd3565b90565b610ff4906109fd565b90565b611000906109fd565b90565b600080fd5b60e01b90565b600091031261101957565b61011e565b60209181520190565b6110336000809261101e565b0190565b919361106e61107892946110646110859761105a60a08801986000890190610425565b6020870190610425565b6040850190610432565b6060830190610432565b6080818303910152611027565b90565b611090610113565b3d6000823e3d90fd5b6110a2906109e1565b90565b6110ae90611099565b90565b6110ba906109fd565b90565b151590565b6110cb816110bd565b036110d257565b600080fd5b905051906110e4826110c2565b565b90602082820312611100576110fd916000016110d7565b90565b61011e565b91602061112792949361112060408201966000830190610425565b0190610432565b565b9361118891939261118391611148611143609789906102ff565b610e6b565b9461115560008701610b11565b6111686111626000610400565b91610400565b14801561139e575b61117990610f01565b3392909192612362565b610f85565b6111b3826111ad600261119d609788906102ff565b01916111a88361038d565b610fae565b90610bda565b6111bf60008201610b11565b6111d26111cc6000610400565b91610400565b146000146112bc576111f16111ec60206111f69301610b63565b6110a5565b6110b1565b602063a9059cbb91339061121e60008695611229611212610113565b97889687958694611008565b845260048401611105565b03925af180156112b75761128b575b505b3391909161128661127461126e7f228a5d93a19503d5154326b1b21603e2cdd97bda22fc58196235b4490659fc0193610a09565b936102e3565b9361127d610113565b918291826104f1565b0390a3565b6112ab9060203d81116112b0575b6112a38183610a86565b8101906110e6565b611238565b503d611299565b611088565b6112c860008201610b11565b6112db6112d56002610400565b91610400565b146112e7575b5061123a565b6113036112fe6112f960208401610b63565b610fdf565b610feb565b63f242432a9061131230610ff7565b906113206040339501610bb3565b85823b156113995760009461135386926113489461133c610113565b998a9889978896611008565b865260048601611037565b03925af1801561139457611367575b6112e1565b6113879060003d811161138d575b61137f8183610a86565b81019061100e565b38611362565b503d611375565b611088565b611003565b506111796113ae60008801610b11565b6113c16113bb6002610400565b91610400565b149050611170565b906113d694939291610dd4565b565b600090565b6113e96113ee91610317565b61034a565b90565b6113fb90546113dd565b90565b6114066113d8565b5061141160336113f1565b90565b9061142a959493929161142561211e565b6114f2565b611432612188565b565b5090565b61144c61144761145192610d8b565b6102e0565b6101d9565b90565b600161146091016101d9565b90565b61146c906109e1565b90565b61147890611463565b90565b611484906109fd565b90565b634e487b7160e01b600052603260045260246000fd5b91908110156114ad576020020190565b611487565b356114bc816101dc565b90565b6040906114e96114f094969593966114df60608401986000850190610425565b6020830190610425565b0190610432565b565b9461154b91969294936115469161151361150e60978a906102ff565b610e6b565b9561153c61152360008901610b11565b6115366115306001610400565b91610400565b14610f01565b3392909192612362565b610f85565b611580611559868590611434565b61157a600261156a609789906102ff565b01916115758361038d565b610fae565b90610bda565b61158a6000611438565b5b806115a86115a261159d898890611434565b6101d9565b916101d9565b1015611677576115ca6115c56115c060208601610b63565b61146f565b61147b565b906342842e0e6115d930610ff7565b33936115ef6115ea8b8a879161149d565b6114b2565b92813b1561167257600061161691611621829661160a610113565b998a9788968795611008565b8552600485016114bf565b03925af191821561166d5761163b92611640575b50611454565b61158b565b6116609060003d8111611666575b6116588183610a86565b81019061100e565b38611635565b503d61164e565b611088565b611003565b5093916116879150339392611434565b916116d06116be6116b87f228a5d93a19503d5154326b1b21603e2cdd97bda22fc58196235b4490659fc0193610a09565b936102e3565b936116c7610113565b918291826104f1565b0390a3565b906116e39594939291611414565b565b906116fa949392916116f5611fe1565b6116fc565b565b9290928061171361170d6000610400565b91610400565b146000146117a65750505061173161172c6020926110a5565b6110b1565b9163a9059cbb92611757600033939561176261174b610113565b97889687958694611008565b845260048401611105565b03925af180156117a157611775575b505b565b6117959060203d811161179a575b61178d8183610a86565b8101906110e6565b611771565b503d611783565b611088565b8094939192946117bf6117b96002610400565b91610400565b1460001461188757506117d46117d991610fdf565b610feb565b63f242432a926118076118026117ee30610ff7565b943397906117fc6000611438565b9161149d565b6114b2565b90823b156118825760009461183a869261182f94611823610113565b998a9889978896611008565b865260048601611037565b03925af1801561187d57611850575b505b611773565b6118709060003d8111611876575b6118688183610a86565b81019061100e565b38611849565b503d61185e565b611088565b611003565b909192509392936118a161189b6001610400565b91610400565b146118b0575b5050905061184b565b6118ba6000611438565b5b806118d86118d26118cd888790611434565b6101d9565b916101d9565b101561199c576118ef6118ea8361146f565b61147b565b906342842e0e6118fe30610ff7565b339361191461190f8a89879161149d565b6114b2565b92813b1561199757600061193b91611946829661192f610113565b998a9788968795611008565b8552600485016114bf565b03925af19182156119925761196092611965575b50611454565b6118bb565b6119859060003d811161198b575b61197d8183610a86565b81019061100e565b3861195a565b503d611973565b611088565b611003565b50505090508038806118a7565b906119b6949392916116e5565b565b60ff1690565b6119ca6119cf91610344565b6119b8565b90565b6119dc90546119be565b90565b60ff1690565b6119f16119f691610317565b6119df565b90565b611a0390546119e5565b90565b60ff1690565b90565b611a23611a1e611a2892611a0c565b6102e0565b611a06565b90565b611a34906109fd565b90565b60207f647920696e697469616c697a6564000000000000000000000000000000000000917f496e697469616c697a61626c653a20636f6e747261637420697320616c72656160008201520152565b611a92602e604092610e77565b611a9b81611a37565b0190565b611ab59060208101906000818303910152611a85565b90565b15611abf57565b611ac7610113565b62461bcd60e51b815280611add60048201611a9f565b0390fd5b611af5611af0611afa92611a06565b6102e0565b611a06565b90565b90565b90611b15611b10611b1c92611ae1565b611afd565b8254610b1e565b9055565b90611b2d61ff0091610b70565b9181191691161790565b611b40906110bd565b90565b90565b90611b5b611b56611b6292611b37565b611b43565b8254611b20565b9055565b611b6f90611a0f565b9052565b9190611b8790600060208501940190611b66565b565b611bd6611b9f611b9960006119d2565b156110bd565b918280611c88575b8015611c39575b611bb790611ab8565b611bcb611bc46001611a0f565b6000611b00565b82611c28575b611cac565b611bdd575b565b611be8600080611b46565b6001611c207f7f26b83ff96e1f2b6a682f133852f6798a09c465da95921460cefb384740249891611c17610113565b91829182611b73565b0390a1611bdb565b611c3460016000611b46565b611bd1565b50611c54611c4e611c4930611a2b565b612430565b156110bd565b80611c5f575b611bae565b50611bb7611c6d60006119f9565b611c80611c7a6001611a0f565b91611a06565b149050611c5a565b50611c9360006119f9565b611ca6611ca06001611a0f565b91611a06565b10611ba7565b611cc790611cb8612521565b611cc0612551565b6099610a18565b565b611cd290611b89565b565b90611ce691611ce1611fe1565b611ce8565b565b611d00826002611cfa609785906102ff565b01610bda565b611d3f611d2d7f06584a2dcca799ee720d97a3475926876323669dbda9dccce1d48a426896d535926102e3565b92611d36610113565b918291826104f1565b0390a2565b90611d4e91611cd4565b565b611d6190611d5c611fe1565b611e02565b565b1b90565b91906008611d83910291611d7d60001984611d63565b92611d63565b9181191691161790565b9190611da3611d9e611dab936102e3565b610bd7565b908354611d67565b9055565b600090565b611dc691611dc0611daf565b91611d8d565b565b60006002611de8928280820155611de28360018301611db4565b01611db4565b565b90600003611dfd57611dfb90611dc8565b565b610afb565b611e186000611e13609784906102ff565b611dea565b611e427fc341cf326465fe622f86c468249e8c0cb03ed23ba376a6a34863a1374ac7d769916102e3565b90611e4b610113565b80611e5581610182565b0390a2565b611e6390611d50565b565b611e7690611e71611fe1565b611f22565b565b60207f6464726573730000000000000000000000000000000000000000000000000000917f4f776e61626c653a206e6577206f776e657220697320746865207a65726f206160008201520152565b611ed36026604092610e77565b611edc81611e78565b0190565b611ef69060208101906000818303910152611ec6565b90565b15611f0057565b611f08610113565b62461bcd60e51b815280611f1e60048201611ee0565b0390fd5b611f5190611f4c81611f45611f3f611f3a6000610daa565b610133565b91610133565b1415611ef9565b61200d565b565b611f5c90611e65565b565b60007f4f776e61626c653a2063616c6c6572206973206e6f7420746865206f776e6572910152565b611f9260208092610e77565b611f9b81611f5e565b0190565b611fb59060208101906000818303910152611f86565b90565b15611fbf57565b611fc7610113565b62461bcd60e51b815280611fdd60048201611f9f565b0390fd5b61200b611fec6113fe565b612005611fff611ffa61255b565b610133565b91610133565b14611fb8565b565b61201760336113f1565b612022826033610a18565b906120566120507f8be0079c531659141344cd1fd0a4f28419497f9722a3daafe3b4186f6b6457e093610a09565b91610a09565b9161205f610113565b8061206981610182565b0390a3565b90565b61208561208061208a9261206e565b6102e0565b6101d9565b90565b6120976002612071565b90565b60007f5265656e7472616e637947756172643a207265656e7472616e742063616c6c00910152565b6120cf601f602092610e77565b6120d88161209a565b0190565b6120f290602081019060008183039101526120c2565b90565b156120fc57565b612104610113565b62461bcd60e51b81528061211a600482016120dc565b0390fd5b61214b61212b606561038d565b61214461213e61213961208d565b6101d9565b916101d9565b14156120f5565b61215d61215661208d565b6065610bda565b565b61217361216e61217892611a0c565b6102e0565b6101d9565b90565b612185600161215f565b90565b61219a61219361217b565b6065610bda565b565b600090565b90565b6121b86121b36121bd926121a1565b6102e0565b6101d9565b90565b6121cf6121d5919392936101d9565b926101d9565b82018092116121e057565b610c6d565b60007f5369676e61747572652065787069726564000000000000000000000000000000910152565b61221a6011602092610e77565b612223816121e5565b0190565b61223d906020810190600081830391015261220d565b90565b1561224757565b61224f610113565b62461bcd60e51b81528061226560048201612227565b0390fd5b60601b90565b61227890612269565b90565b6122849061226f565b90565b61229361229891610133565b61227b565b9052565b90565b6122ab6122b0916101d9565b61229c565b9052565b602093926122d46014836122cc88956122dc97612287565b01809261229f565b01809261229f565b0190565b60200190565b5190565b600080fd5b67ffffffffffffffff811161230d57612309602091610a66565b0190565b610a70565b90826000939282370152565b9092919261233361232e826122ef565b610aaf565b9381855260208501908284011161234f5761234d92612312565b565b6122ea565b61235f91369161231e565b90565b9261240561240b926123ed6124119661237961219c565b506123aa426123a461239e612399876123936102586121a4565b906121c0565b6101d9565b916101d9565b10612240565b6123de6123b7609a61038d565b6123ca6123c382610c83565b609a610bda565b6123d2610113565b948593602085016122b4565b60208201810382520382610a86565b6123ff6123f9826122e6565b916122e0565b2061256d565b92612354565b906125a5565b61242c61242661242160996113f1565b610133565b91610133565b1490565b61243861219c565b503b61244d6124476000611438565b916101d9565b1190565b60207f6e697469616c697a696e67000000000000000000000000000000000000000000917f496e697469616c697a61626c653a20636f6e7472616374206973206e6f74206960008201520152565b6124ac602b604092610e77565b6124b581612451565b0190565b6124cf906020810190600081830391015261249f565b90565b156124d957565b6124e1610113565b62461bcd60e51b8152806124f7600482016124b9565b0390fd5b61250d61250860006119d2565b6124d2565b612515612517565b565b61251f6125f4565b565b6125296124fb565b565b61253d61253860006119d2565b6124d2565b612545612547565b565b61254f61262e565b565b61255961252b565b565b6125636113d8565b503390565b600090565b612575612568565b507f19457468657265756d205369676e6564204d6573736167653a0a333200000000600052601c52603c60002090565b6125c3916125bb916125b56113d8565b50612661565b91909161283a565b90565b6125d86125d360006119d2565b6124d2565b6125e06125e2565b565b6125f26125ed61255b565b61200d565b565b6125fc6125c6565b565b61261061260b60006119d2565b6124d2565b61261861261a565b565b61262c61262561217b565b6065610bda565b565b6126366125fe565b565b600090565b90565b61265461264f6126599261263d565b6102e0565b6101d9565b90565b600090565b6126696113d8565b50612672612638565b5061267c826122e6565b61268f6126896041612640565b916101d9565b146000146126d6576126d0916126a3612568565b506126ac612568565b506126b561265c565b5060208101516060604083015192015160001a9091926129a0565b91909190565b50506126e26000610daa565b90600290565b600511156126f257565b6103db565b90612701826126e8565b565b60207f7565000000000000000000000000000000000000000000000000000000000000917f45434453413a20696e76616c6964207369676e6174757265202773272076616c60008201520152565b61275e6022604092610e77565b61276781612703565b0190565b6127819060208101906000818303910152612751565b90565b60007f45434453413a20696e76616c6964207369676e6174757265206c656e67746800910152565b6127b9601f602092610e77565b6127c281612784565b0190565b6127dc90602081019060008183039101526127ac565b90565b60007f45434453413a20696e76616c6964207369676e61747572650000000000000000910152565b6128146018602092610e77565b61281d816127df565b0190565b6128379060208101906000818303910152612807565b90565b8061284e61284860006126f7565b916126f7565b146000146128595750565b8061286d61286760016126f7565b916126f7565b146000146128975761287d610113565b62461bcd60e51b81528061289360048201612821565b0390fd5b806128ab6128a560026126f7565b916126f7565b146000146128d5576128bb610113565b62461bcd60e51b8152806128d1600482016127c6565b0390fd5b6128e86128e260036126f7565b916126f7565b146128ef57565b6128f7610113565b62461bcd60e51b81528061290d6004820161276b565b0390fd5b61291d61292291610317565b6102e3565b90565b90565b61293c61293761294192612925565b6102e0565b6101d9565b90565b90565b61295090612944565b9052565b61295d90611a06565b9052565b61299761299e9461298d606094989795612983608086019a6000870190612947565b6020850190612954565b6040830190612947565b0190612947565b565b9291906129ab6113d8565b506129b4612638565b506129be83612911565b6129f06129ea7f7fffffffffffffffffffffffffffffff5d576e7357a4501ddfe92f46681b20a0612928565b916101d9565b11612a6757612a116000936020959293612a08610113565b94859485612961565b838052039060015afa15612a6257612a2a6000516109c0565b80612a46612a40612a3b6000610daa565b610133565b91610133565b14612a515790600090565b50612a5c6000610daa565b90600190565b611088565b50505050612a756000610daa565b9060039056fea26469706673582212206674bd9c8e860ed624c212ee1ee138c6f44f0c03e60618b293119f96dc763c0b64736f6c63430008180033",
  "linkReferences": {},
  "deployedLinkReferences": {}
}