{
  "_format": "hh-sol-artifact-1",
  "contractName": "TopicKeys",
  "sourceName": "contracts/TopicKeys.sol",
  "abi": [
    {
      "anonymous": false,
      "inputs": [
        {
          "indexed": true,
          "internalType": "address",
          "name": "holder",
          "type": "address"
        },
        {
          "indexed": true,
          "internalType": "bytes32",
          "name": "topic",
          "type": "bytes32"
        },
        {
          "indexed": false,
          "internalType": "uint256",
          "name": "fee",
          "type": "uint256"
        }
      ],
      "name": "ClaimHolderFee",
      "type": "event"
    },
    {
      "anonymous": false,
      "inputs": [
        {
          "indexed": false,
          "internalType": "uint8",
          "name": "version",
          "type": "uint8"
        }
      ],
      "name": "Initialized",
      "type": "event"
    },
    {
      "anonymous": false,
      "inputs": [
        {
          "indexed": true,
          "internalType": "address",
          "name": "previousOwner",
          "type": "address"
        },
        {
          "indexed": true,
          "internalType": "address",
          "name": "newOwner",
          "type": "address"
        }
      ],
      "name": "OwnershipTransferred",
      "type": "event"
    },
    {
      "anonymous": false,
      "inputs": [
        {
          "indexed": false,
          "internalType": "uint256",
          "name": "percent",
          "type": "uint256"
        }
      ],
      "name": "SetHolderFeePercent",
      "type": "event"
    },
    {
      "anonymous": false,
      "inputs": [
        {
          "indexed": true,
          "internalType": "address",
          "name": "destination",
          "type": "address"
        }
      ],
      "name": "SetProtocolFeeDestination",
      "type": "event"
    },
    {
      "anonymous": false,
      "inputs": [
        {
          "indexed": false,
          "internalType": "uint256",
          "name": "percent",
          "type": "uint256"
        }
      ],
      "name": "SetProtocolFeePercent",
      "type": "event"
    },
    {
      "anonymous": false,
      "inputs": [
        {
          "indexed": true,
          "internalType": "address",
          "name": "trader",
          "type": "address"
        },
        {
          "indexed": true,
          "internalType": "bytes32",
          "name": "topic",
          "type": "bytes32"
        },
        {
          "indexed": true,
          "internalType": "bool",
          "name": "isBuy",
          "type": "bool"
        },
        {
          "indexed": false,
          "internalType": "uint256",
          "name": "amount",
          "type": "uint256"
        },
        {
          "indexed": false,
          "internalType": "uint256",
          "name": "price",
          "type": "uint256"
        },
        {
          "indexed": false,
          "internalType": "uint256",
          "name": "protocolFee",
          "type": "uint256"
        },
        {
          "indexed": false,
          "internalType": "uint256",
          "name": "holderFee",
          "type": "uint256"
        },
        {
          "indexed": false,
          "internalType": "uint256",
          "name": "supply",
          "type": "uint256"
        }
      ],
      "name": "Trade",
      "type": "event"
    },
    {
      "inputs": [
        {
          "internalType": "bytes32[]",
          "name": "_topics",
          "type": "bytes32[]"
        }
      ],
      "name": "batchClaimHolderFees",
      "outputs": [],
      "stateMutability": "nonpayable",
      "type": "function"
    },
    {
      "inputs": [
        {
          "internalType": "bytes32[]",
          "name": "_topics",
          "type": "bytes32[]"
        },
        {
          "internalType": "address",
          "name": "holder",
          "type": "address"
        }
      ],
      "name": "batchClaimableHolderFees",
      "outputs": [
        {
          "internalType": "uint256[]",
          "name": "claimableFees",
          "type": "uint256[]"
        }
      ],
      "stateMutability": "view",
      "type": "function"
    },
    {
      "inputs": [
        {
          "internalType": "bytes32",
          "name": "topic",
          "type": "bytes32"
        },
        {
          "internalType": "uint256",
          "name": "amount",
          "type": "uint256"
        }
      ],
      "name": "buyKeys",
      "outputs": [],
      "stateMutability": "payable",
      "type": "function"
    },
    {
      "inputs": [
        {
          "internalType": "bytes32",
          "name": "topic",
          "type": "bytes32"
        }
      ],
      "name": "claimHolderFee",
      "outputs": [],
      "stateMutability": "nonpayable",
      "type": "function"
    },
    {
      "inputs": [
        {
          "internalType": "bytes32",
          "name": "topic",
          "type": "bytes32"
        },
        {
          "internalType": "address",
          "name": "holder",
          "type": "address"
        }
      ],
      "name": "claimableHolderFee",
      "outputs": [
        {
          "internalType": "uint256",
          "name": "claimableFee",
          "type": "uint256"
        }
      ],
      "stateMutability": "view",
      "type": "function"
    },
    {
      "inputs": [
        {
          "internalType": "bytes32",
          "name": "topic",
          "type": "bytes32"
        },
        {
          "internalType": "uint256",
          "name": "amount",
          "type": "uint256"
        }
      ],
      "name": "getBuyPrice",
      "outputs": [
        {
          "internalType": "uint256",
          "name": "",
          "type": "uint256"
        }
      ],
      "stateMutability": "view",
      "type": "function"
    },
    {
      "inputs": [
        {
          "internalType": "bytes32",
          "name": "topic",
          "type": "bytes32"
        },
        {
          "internalType": "uint256",
          "name": "amount",
          "type": "uint256"
        }
      ],
      "name": "getBuyPriceAfterFee",
      "outputs": [
        {
          "internalType": "uint256",
          "name": "",
          "type": "uint256"
        }
      ],
      "stateMutability": "view",
      "type": "function"
    },
    {
      "inputs": [
        {
          "internalType": "uint256",
          "name": "supply",
          "type": "uint256"
        },
        {
          "internalType": "uint256",
          "name": "amount",
          "type": "uint256"
        }
      ],
      "name": "getPrice",
      "outputs": [
        {
          "internalType": "uint256",
          "name": "",
          "type": "uint256"
        }
      ],
      "stateMutability": "view",
      "type": "function"
    },
    {
      "inputs": [
        {
          "internalType": "bytes32",
          "name": "topic",
          "type": "bytes32"
        },
        {
          "internalType": "uint256",
          "name": "amount",
          "type": "uint256"
        }
      ],
      "name": "getSellPrice",
      "outputs": [
        {
          "internalType": "uint256",
          "name": "",
          "type": "uint256"
        }
      ],
      "stateMutability": "view",
      "type": "function"
    },
    {
      "inputs": [
        {
          "internalType": "bytes32",
          "name": "topic",
          "type": "bytes32"
        },
        {
          "internalType": "uint256",
          "name": "amount",
          "type": "uint256"
        }
      ],
      "name": "getSellPriceAfterFee",
      "outputs": [
        {
          "internalType": "uint256",
          "name": "",
          "type": "uint256"
        }
      ],
      "stateMutability": "view",
      "type": "function"
    },
    {
      "inputs": [],
      "name": "holderFeePercent",
      "outputs": [
        {
          "internalType": "uint256",
          "name": "",
          "type": "uint256"
        }
      ],
      "stateMutability": "view",
      "type": "function"
    },
    {
      "inputs": [
        {
          "internalType": "bytes32",
          "name": "",
          "type": "bytes32"
        },
        {
          "internalType": "address",
          "name": "",
          "type": "address"
        }
      ],
      "name": "holders",
      "outputs": [
        {
          "internalType": "uint256",
          "name": "balance",
          "type": "uint256"
        },
        {
          "internalType": "int256",
          "name": "feeDebt",
          "type": "int256"
        }
      ],
      "stateMutability": "view",
      "type": "function"
    },
    {
      "inputs": [
        {
          "internalType": "uint256",
          "name": "_baseDivider",
          "type": "uint256"
        },
        {
          "internalType": "address payable",
          "name": "_protocolFeeDestination",
          "type": "address"
        },
        {
          "internalType": "uint256",
          "name": "_protocolFeePercent",
          "type": "uint256"
        },
        {
          "internalType": "uint256",
          "name": "_holderFeePercent",
          "type": "uint256"
        }
      ],
      "name": "initialize",
      "outputs": [],
      "stateMutability": "nonpayable",
      "type": "function"
    },
    {
      "inputs": [],
      "name": "owner",
      "outputs": [
        {
          "internalType": "address",
          "name": "",
          "type": "address"
        }
      ],
      "stateMutability": "view",
      "type": "function"
    },
    {
      "inputs": [],
      "name": "protocolFeeDestination",
      "outputs": [
        {
          "internalType": "address payable",
          "name": "",
          "type": "address"
        }
      ],
      "stateMutability": "view",
      "type": "function"
    },
    {
      "inputs": [],
      "name": "protocolFeePercent",
      "outputs": [
        {
          "internalType": "uint256",
          "name": "",
          "type": "uint256"
        }
      ],
      "stateMutability": "view",
      "type": "function"
    },
    {
      "inputs": [],
      "name": "renounceOwnership",
      "outputs": [],
      "stateMutability": "nonpayable",
      "type": "function"
    },
    {
      "inputs": [
        {
          "internalType": "bytes32",
          "name": "topic",
          "type": "bytes32"
        },
        {
          "internalType": "uint256",
          "name": "amount",
          "type": "uint256"
        }
      ],
      "name": "sellKeys",
      "outputs": [],
      "stateMutability": "nonpayable",
      "type": "function"
    },
    {
      "inputs": [
        {
          "internalType": "uint256",
          "name": "_feePercent",
          "type": "uint256"
        }
      ],
      "name": "setHolderFeePercent",
      "outputs": [],
      "stateMutability": "nonpayable",
      "type": "function"
    },
    {
      "inputs": [
        {
          "internalType": "address payable",
          "name": "_feeDestination",
          "type": "address"
        }
      ],
      "name": "setProtocolFeeDestination",
      "outputs": [],
      "stateMutability": "nonpayable",
      "type": "function"
    },
    {
      "inputs": [
        {
          "internalType": "uint256",
          "name": "_feePercent",
          "type": "uint256"
        }
      ],
      "name": "setProtocolFeePercent",
      "outputs": [],
      "stateMutability": "nonpayable",
      "type": "function"
    },
    {
      "inputs": [
        {
          "internalType": "bytes32",
          "name": "",
          "type": "bytes32"
        }
      ],
      "name": "topics",
      "outputs": [
        {
          "internalType": "uint256",
          "name": "supply",
          "type": "uint256"
        },
        {
          "internalType": "uint256",
          "name": "accFeePerUnit",
          "type": "uint256"
        }
      ],
      "stateMutability": "view",
      "type": "function"
    },
    {
      "inputs": [
        {
          "internalType": "address",
          "name": "newOwner",
          "type": "address"
        }
      ],
      "name": "transferOwnership",
      "outputs": [],
      "stateMutability": "nonpayable",
      "type": "function"
    }
  ],
  "bytecode": "0x608060405234801561001057600080fd5b5061172e806100206000396000f3fe6080604052600436106101405760003560e01c8063a10786b0116100b6578063c8d777581161006f578063c8d77758146103a4578063cacd5553146103e3578063cad244cd14610403578063d6e6eb9f14610423578063e5ae024b14610439578063f2fde38b1461045957600080fd5b8063a10786b0146102ee578063a49834211461030e578063ae4a45251461032e578063be3b9f2d1461034e578063c093e81d1461036e578063c569aec61461038e57600080fd5b80634ce7957c116101085780634ce7957c1461022e5780635cf4ee91146102665780636c9a3dad14610286578063715018a6146102a657806385978499146102bd5780638da5cb5b146102d057600080fd5b80630f2fbeec1461014557806320ebaa6e146101935780632e50b914146101c05780634236e876146101ee57806346fe4eef1461020e575b600080fd5b34801561015157600080fd5b5061017961016036600461137d565b609b602052600090815260409020805460019091015482565b604080519283526020830191909152015b60405180910390f35b34801561019f57600080fd5b506101b36101ae36600461145f565b610479565b60405161018a91906114b1565b3480156101cc57600080fd5b506101e06101db3660046114f5565b61051c565b60405190815260200161018a565b3480156101fa57600080fd5b506101e06102093660046114f5565b61053e565b34801561021a57600080fd5b506101e0610229366004611517565b6105b6565b34801561023a57600080fd5b5060985461024e906001600160a01b031681565b6040516001600160a01b03909116815260200161018a565b34801561027257600080fd5b506101e06102813660046114f5565b61063d565b34801561029257600080fd5b506101e06102a13660046114f5565b610715565b3480156102b257600080fd5b506102bb610783565b005b6102bb6102cb3660046114f5565b610797565b3480156102dc57600080fd5b506033546001600160a01b031661024e565b3480156102fa57600080fd5b506102bb61030936600461153c565b610a0b565b34801561031a57600080fd5b506102bb61032936600461137d565b610a5d565b34801561033a57600080fd5b506102bb610349366004611560565b610aa1565b34801561035a57600080fd5b506102bb61036936600461137d565b610c7a565b34801561037a57600080fd5b506102bb61038936600461159d565b610cb7565b34801561039a57600080fd5b506101e0609a5481565b3480156103b057600080fd5b506101796103bf366004611517565b609c6020908152600092835260408084209091529082529020805460019091015482565b3480156103ef57600080fd5b506102bb6103fe36600461137d565b610d03565b34801561040f57600080fd5b506101e061041e3660046114f5565b610dd0565b34801561042f57600080fd5b506101e060995481565b34801561044557600080fd5b506102bb6104543660046114f5565b610df4565b34801561046557600080fd5b506102bb61047436600461153c565b611028565b6060825167ffffffffffffffff81111561049557610495611396565b6040519080825280602002602001820160405280156104be578160200160208202803683370190505b50905060005b8351811015610515576104f08482815181106104e2576104e26115da565b6020026020010151846105b6565b828281518110610502576105026115da565b60209081029190910101526001016104c4565b5092915050565b6000828152609b6020526040812054610535908361063d565b90505b92915050565b60008061054b8484610dd0565b90506000670de0b6b3a7640000609954836105669190611606565b610570919061161d565b90506000670de0b6b3a7640000609a548461058b9190611606565b610595919061161d565b9050806105a2838561163f565b6105ac919061163f565b9695505050505050565b6000828152609b602090815260408083208151808301835281548152600191820154818501908152878652609c85528386206001600160a01b038816875285528386208451808601909552805480865293015494840194909452925184916127109161062191611606565b61062b919061161d565b90508160200151816105ac9190611652565b600080600661064d856002611606565b610658906001611672565b610663866001611672565b61066d9087611606565b6106779190611606565b610681919061161d565b9050600060066106918587611672565b61069c906002611606565b6106a7906001611672565b856106b3886001611672565b6106bd9190611672565b6106c78789611672565b6106d19190611606565b6106db9190611606565b6106e5919061161d565b905060006106f3838361163f565b60975490915061070b82670de0b6b3a7640000611606565b6105ac919061161d565b600080610722848461051c565b90506000670de0b6b3a76400006099548361073d9190611606565b610747919061161d565b90506000670de0b6b3a7640000609a54846107629190611606565b61076c919061161d565b9050806107798385611672565b6105ac9190611672565b61078b61109e565b61079560006110f8565b565b61079f61114a565b60006107ab838361051c565b90506000670de0b6b3a7640000609954836107c69190611606565b6107d0919061161d565b90506000670de0b6b3a7640000609a54846107eb9190611606565b6107f5919061161d565b9050806108028385611672565b61080c9190611672565b3410156108575760405162461bcd60e51b8152602060048201526014602482015273125b9cdd59999a58da595b9d081c185e5b595b9d60621b60448201526064015b60405180910390fd5b6000858152609b60209081526040808320815180830183528154815260019091015481840152888452609c83528184203385529092528220805491929091879183916108a4908490611672565b90915550506020820151612710906108bc9088611606565b6108c6919061161d565b8160010160008282546108d99190611685565b90915550508151869083906108ef908390611672565b905250815161090061271085611606565b61090a919061161d565b8260200181815161091b9190611672565b9052506000878152609b602090815260409091208351815590830151600190910155609854610953906001600160a01b0316856111a3565b8261095e8587611672565b6109689190611672565b34111561099f576000838561097d883461163f565b610987919061163f565b610991919061163f565b905061099d33826111a3565b505b81516040805188815260208101889052908101869052606081018590526080810191909152600190889033907f674035dc38afac378988464782fb84b5703e774b8f527148954af1b42873c8ec9060a00160405180910390a45050505050610a076001606555565b5050565b610a1361109e565b609880546001600160a01b0319166001600160a01b0383169081179091556040517f72fe3f5fb15c2671900303001fbe3a8adf9df5c76bfd269a9508c8753b9c35c990600090a250565b610a6561109e565b60998190556040518181527f98d1698e9a7ee55a2ded97de72077c93add26ce8534679021d0e7c44edcb325b906020015b60405180910390a150565b600054610100900460ff1615808015610ac15750600054600160ff909116105b80610adb5750303b158015610adb575060005460ff166001145b610b3e5760405162461bcd60e51b815260206004820152602e60248201527f496e697469616c697a61626c653a20636f6e747261637420697320616c72656160448201526d191e481a5b9a5d1a585b1a5e995960921b606482015260840161084e565b6000805460ff191660011790558015610b61576000805461ff0019166101001790555b610b696112c8565b610b716112f7565b6097859055609880546001600160a01b0319166001600160a01b0386169081179091556099849055609a8390556040517f72fe3f5fb15c2671900303001fbe3a8adf9df5c76bfd269a9508c8753b9c35c990600090a26040518381527f98d1698e9a7ee55a2ded97de72077c93add26ce8534679021d0e7c44edcb325b9060200160405180910390a16040518281527f1bf7c57da18b4d55c69dc98c3b4c0bdb9fa61b3ac3979937c6e1c8958f1f937a9060200160405180910390a18015610c73576000805461ff0019169055604051600181527f7f26b83ff96e1f2b6a682f133852f6798a09c465da95921460cefb38474024989060200160405180910390a15b5050505050565b610c8261109e565b609a8190556040518181527f1bf7c57da18b4d55c69dc98c3b4c0bdb9fa61b3ac3979937c6e1c8958f1f937a90602001610a96565b610cbf61114a565b60005b8151811015610cf557610ced828281518110610ce057610ce06115da565b6020026020010151610d03565b600101610cc2565b50610d006001606555565b50565b610d0b61114a565b6000818152609b602090815260408083208151808301835281548152600190910154818401908152858552609c84528285203386529093529083209151825491939161271091610d5a91611606565b610d64919061161d565b90506000826001015482610d789190611652565b600184018390559050610d8b33826111a3565b604051818152859033907fc58d77ff8c2d03883e98ef86c9f9f431e360f4723c4c12a8d2111d7447c5500b9060200160405180910390a350505050610d006001606555565b6000828152609b602052604081205461053590610dee90849061163f565b8361063d565b610dfc61114a565b6000610e088383610dd0565b90506000670de0b6b3a764000060995483610e239190611606565b610e2d919061161d565b90506000670de0b6b3a7640000609a5484610e489190611606565b610e52919061161d565b6000868152609b60209081526040808320815180830183528154815260019091015481840152898452609c835281842033855290925290912081519293509091610e9e61271085611606565b610ea8919061161d565b82602001818151610eb99190611672565b905250815186908390610ecd90839061163f565b9052506000878152609b6020908152604090912083518155908301516001909101558054861115610f375760405162461bcd60e51b8152602060048201526014602482015273496e73756666696369656e742062616c616e636560601b604482015260640161084e565b85816000016000828254610f4b919061163f565b9091555050602082015161271090610f639088611606565b610f6d919061161d565b816001016000828254610f809190611652565b909155506000905083610f93868861163f565b610f9d919061163f565b9050610fa933826111a3565b609854610fbf906001600160a01b0316866111a3565b82516040805189815260208101899052908101879052606081018690526080810191909152600090899033907f674035dc38afac378988464782fb84b5703e774b8f527148954af1b42873c8ec9060a00160405180910390a4505050505050610a076001606555565b61103061109e565b6001600160a01b0381166110955760405162461bcd60e51b815260206004820152602660248201527f4f776e61626c653a206e6577206f776e657220697320746865207a65726f206160448201526564647265737360d01b606482015260840161084e565b610d00816110f8565b6033546001600160a01b031633146107955760405162461bcd60e51b815260206004820181905260248201527f4f776e61626c653a2063616c6c6572206973206e6f7420746865206f776e6572604482015260640161084e565b603380546001600160a01b038381166001600160a01b0319831681179093556040519116919082907f8be0079c531659141344cd1fd0a4f28419497f9722a3daafe3b4186f6b6457e090600090a35050565b60026065540361119c5760405162461bcd60e51b815260206004820152601f60248201527f5265656e7472616e637947756172643a207265656e7472616e742063616c6c00604482015260640161084e565b6002606555565b804710156111f35760405162461bcd60e51b815260206004820152601d60248201527f416464726573733a20696e73756666696369656e742062616c616e6365000000604482015260640161084e565b6000826001600160a01b03168260405160006040518083038185875af1925050503d8060008114611240576040519150601f19603f3d011682016040523d82523d6000602084013e611245565b606091505b50509050806112bc5760405162461bcd60e51b815260206004820152603a60248201527f416464726573733a20756e61626c6520746f2073656e642076616c75652c207260448201527f6563697069656e74206d61792068617665207265766572746564000000000000606482015260840161084e565b505050565b6001606555565b600054610100900460ff166112ef5760405162461bcd60e51b815260040161084e906116ad565b610795611326565b600054610100900460ff1661131e5760405162461bcd60e51b815260040161084e906116ad565b610795611356565b600054610100900460ff1661134d5760405162461bcd60e51b815260040161084e906116ad565b610795336110f8565b600054610100900460ff166112c15760405162461bcd60e51b815260040161084e906116ad565b60006020828403121561138f57600080fd5b5035919050565b634e487b7160e01b600052604160045260246000fd5b600082601f8301126113bd57600080fd5b8135602067ffffffffffffffff808311156113da576113da611396565b8260051b604051601f19603f830116810181811084821117156113ff576113ff611396565b604052938452602081870181019490810192508785111561141f57600080fd5b6020870191505b8482101561143f57813583529183019190830190611426565b979650505050505050565b6001600160a01b0381168114610d0057600080fd5b6000806040838503121561147257600080fd5b823567ffffffffffffffff81111561148957600080fd5b611495858286016113ac565b92505060208301356114a68161144a565b809150509250929050565b6020808252825182820181905260009190848201906040850190845b818110156114e9578351835292840192918401916001016114cd565b50909695505050505050565b6000806040838503121561150857600080fd5b50508035926020909101359150565b6000806040838503121561152a57600080fd5b8235915060208301356114a68161144a565b60006020828403121561154e57600080fd5b81356115598161144a565b9392505050565b6000806000806080858703121561157657600080fd5b8435935060208501356115888161144a565b93969395505050506040820135916060013590565b6000602082840312156115af57600080fd5b813567ffffffffffffffff8111156115c657600080fd5b6115d2848285016113ac565b949350505050565b634e487b7160e01b600052603260045260246000fd5b634e487b7160e01b600052601160045260246000fd5b8082028115828204841417610538576105386115f0565b60008261163a57634e487b7160e01b600052601260045260246000fd5b500490565b81810381811115610538576105386115f0565b8181036000831280158383131683831282161715610515576105156115f0565b80820180821115610538576105386115f0565b80820182811260008312801582168215821617156116a5576116a56115f0565b505092915050565b6020808252602b908201527f496e697469616c697a61626c653a20636f6e7472616374206973206e6f74206960408201526a6e697469616c697a696e6760a81b60608201526080019056fea2646970667358221220b27bd4534a95860d67b7424e27e15063442aa300b27175918f2369fb9a9dd8a064736f6c63430008170033",
  "linkReferences": {},
  "deployedLinkReferences": {}
}