{
  "_format": "hh-sol-artifact-1",
  "contractName": "TopicKeys",
  "sourceName": "contracts/TopicKeys.sol",
  "abi": [
    {
      "anonymous": false,
      "inputs": [
        {
          "indexed": true,
          "internalType": "address",
          "name": "holder",
          "type": "address"
        },
        {
          "indexed": true,
          "internalType": "string",
          "name": "topic",
          "type": "string"
        },
        {
          "indexed": false,
          "internalType": "uint256",
          "name": "fee",
          "type": "uint256"
        }
      ],
      "name": "ClaimHolderFee",
      "type": "event"
    },
    {
      "anonymous": false,
      "inputs": [
        {
          "indexed": false,
          "internalType": "uint8",
          "name": "version",
          "type": "uint8"
        }
      ],
      "name": "Initialized",
      "type": "event"
    },
    {
      "anonymous": false,
      "inputs": [
        {
          "indexed": true,
          "internalType": "address",
          "name": "previousOwner",
          "type": "address"
        },
        {
          "indexed": true,
          "internalType": "address",
          "name": "newOwner",
          "type": "address"
        }
      ],
      "name": "OwnershipTransferred",
      "type": "event"
    },
    {
      "anonymous": false,
      "inputs": [
        {
          "indexed": false,
          "internalType": "uint256",
          "name": "percent",
          "type": "uint256"
        }
      ],
      "name": "SetHolderFeePercent",
      "type": "event"
    },
    {
      "anonymous": false,
      "inputs": [
        {
          "indexed": true,
          "internalType": "address",
          "name": "destination",
          "type": "address"
        }
      ],
      "name": "SetProtocolFeeDestination",
      "type": "event"
    },
    {
      "anonymous": false,
      "inputs": [
        {
          "indexed": false,
          "internalType": "uint256",
          "name": "percent",
          "type": "uint256"
        }
      ],
      "name": "SetProtocolFeePercent",
      "type": "event"
    },
    {
      "anonymous": false,
      "inputs": [
        {
          "indexed": true,
          "internalType": "address",
          "name": "trader",
          "type": "address"
        },
        {
          "indexed": true,
          "internalType": "string",
          "name": "topic",
          "type": "string"
        },
        {
          "indexed": true,
          "internalType": "bool",
          "name": "isBuy",
          "type": "bool"
        },
        {
          "indexed": false,
          "internalType": "uint256",
          "name": "amount",
          "type": "uint256"
        },
        {
          "indexed": false,
          "internalType": "uint256",
          "name": "price",
          "type": "uint256"
        },
        {
          "indexed": false,
          "internalType": "uint256",
          "name": "protocolFee",
          "type": "uint256"
        },
        {
          "indexed": false,
          "internalType": "uint256",
          "name": "holderFee",
          "type": "uint256"
        },
        {
          "indexed": false,
          "internalType": "uint256",
          "name": "supply",
          "type": "uint256"
        }
      ],
      "name": "Trade",
      "type": "event"
    },
    {
      "inputs": [
        {
          "internalType": "string[]",
          "name": "_topics",
          "type": "string[]"
        }
      ],
      "name": "batchClaimHolderFees",
      "outputs": [],
      "stateMutability": "nonpayable",
      "type": "function"
    },
    {
      "inputs": [
        {
          "internalType": "string[]",
          "name": "_topics",
          "type": "string[]"
        },
        {
          "internalType": "address",
          "name": "holder",
          "type": "address"
        }
      ],
      "name": "batchClaimableHolderFees",
      "outputs": [
        {
          "internalType": "uint256[]",
          "name": "claimableFees",
          "type": "uint256[]"
        }
      ],
      "stateMutability": "view",
      "type": "function"
    },
    {
      "inputs": [
        {
          "internalType": "string",
          "name": "topic",
          "type": "string"
        },
        {
          "internalType": "uint256",
          "name": "amount",
          "type": "uint256"
        }
      ],
      "name": "buyTopic",
      "outputs": [],
      "stateMutability": "payable",
      "type": "function"
    },
    {
      "inputs": [
        {
          "internalType": "string",
          "name": "topic",
          "type": "string"
        }
      ],
      "name": "claimHolderFee",
      "outputs": [],
      "stateMutability": "nonpayable",
      "type": "function"
    },
    {
      "inputs": [
        {
          "internalType": "string",
          "name": "topic",
          "type": "string"
        },
        {
          "internalType": "address",
          "name": "holder",
          "type": "address"
        }
      ],
      "name": "claimableHolderFee",
      "outputs": [
        {
          "internalType": "uint256",
          "name": "claimableFee",
          "type": "uint256"
        }
      ],
      "stateMutability": "view",
      "type": "function"
    },
    {
      "inputs": [
        {
          "internalType": "string",
          "name": "topic",
          "type": "string"
        },
        {
          "internalType": "uint256",
          "name": "amount",
          "type": "uint256"
        }
      ],
      "name": "getBuyPrice",
      "outputs": [
        {
          "internalType": "uint256",
          "name": "",
          "type": "uint256"
        }
      ],
      "stateMutability": "view",
      "type": "function"
    },
    {
      "inputs": [
        {
          "internalType": "string",
          "name": "topic",
          "type": "string"
        },
        {
          "internalType": "uint256",
          "name": "amount",
          "type": "uint256"
        }
      ],
      "name": "getBuyPriceAfterFee",
      "outputs": [
        {
          "internalType": "uint256",
          "name": "",
          "type": "uint256"
        }
      ],
      "stateMutability": "view",
      "type": "function"
    },
    {
      "inputs": [
        {
          "internalType": "uint256",
          "name": "supply",
          "type": "uint256"
        },
        {
          "internalType": "uint256",
          "name": "amount",
          "type": "uint256"
        }
      ],
      "name": "getPrice",
      "outputs": [
        {
          "internalType": "uint256",
          "name": "",
          "type": "uint256"
        }
      ],
      "stateMutability": "view",
      "type": "function"
    },
    {
      "inputs": [
        {
          "internalType": "string",
          "name": "topic",
          "type": "string"
        },
        {
          "internalType": "uint256",
          "name": "amount",
          "type": "uint256"
        }
      ],
      "name": "getSellPrice",
      "outputs": [
        {
          "internalType": "uint256",
          "name": "",
          "type": "uint256"
        }
      ],
      "stateMutability": "view",
      "type": "function"
    },
    {
      "inputs": [
        {
          "internalType": "string",
          "name": "topic",
          "type": "string"
        },
        {
          "internalType": "uint256",
          "name": "amount",
          "type": "uint256"
        }
      ],
      "name": "getSellPriceAfterFee",
      "outputs": [
        {
          "internalType": "uint256",
          "name": "",
          "type": "uint256"
        }
      ],
      "stateMutability": "view",
      "type": "function"
    },
    {
      "inputs": [],
      "name": "holderFeePercent",
      "outputs": [
        {
          "internalType": "uint256",
          "name": "",
          "type": "uint256"
        }
      ],
      "stateMutability": "view",
      "type": "function"
    },
    {
      "inputs": [
        {
          "internalType": "string",
          "name": "",
          "type": "string"
        },
        {
          "internalType": "address",
          "name": "",
          "type": "address"
        }
      ],
      "name": "holders",
      "outputs": [
        {
          "internalType": "uint256",
          "name": "balance",
          "type": "uint256"
        },
        {
          "internalType": "int256",
          "name": "feeDebt",
          "type": "int256"
        }
      ],
      "stateMutability": "view",
      "type": "function"
    },
    {
      "inputs": [
        {
          "internalType": "uint256",
          "name": "_baseDivider",
          "type": "uint256"
        },
        {
          "internalType": "address payable",
          "name": "_protocolFeeDestination",
          "type": "address"
        },
        {
          "internalType": "uint256",
          "name": "_protocolFeePercent",
          "type": "uint256"
        },
        {
          "internalType": "uint256",
          "name": "_holderFeePercent",
          "type": "uint256"
        }
      ],
      "name": "initialize",
      "outputs": [],
      "stateMutability": "nonpayable",
      "type": "function"
    },
    {
      "inputs": [],
      "name": "owner",
      "outputs": [
        {
          "internalType": "address",
          "name": "",
          "type": "address"
        }
      ],
      "stateMutability": "view",
      "type": "function"
    },
    {
      "inputs": [],
      "name": "protocolFeeDestination",
      "outputs": [
        {
          "internalType": "address payable",
          "name": "",
          "type": "address"
        }
      ],
      "stateMutability": "view",
      "type": "function"
    },
    {
      "inputs": [],
      "name": "protocolFeePercent",
      "outputs": [
        {
          "internalType": "uint256",
          "name": "",
          "type": "uint256"
        }
      ],
      "stateMutability": "view",
      "type": "function"
    },
    {
      "inputs": [],
      "name": "renounceOwnership",
      "outputs": [],
      "stateMutability": "nonpayable",
      "type": "function"
    },
    {
      "inputs": [
        {
          "internalType": "string",
          "name": "topic",
          "type": "string"
        },
        {
          "internalType": "uint256",
          "name": "amount",
          "type": "uint256"
        }
      ],
      "name": "sellTopic",
      "outputs": [],
      "stateMutability": "nonpayable",
      "type": "function"
    },
    {
      "inputs": [
        {
          "internalType": "uint256",
          "name": "_feePercent",
          "type": "uint256"
        }
      ],
      "name": "setHolderFeePercent",
      "outputs": [],
      "stateMutability": "nonpayable",
      "type": "function"
    },
    {
      "inputs": [
        {
          "internalType": "address payable",
          "name": "_feeDestination",
          "type": "address"
        }
      ],
      "name": "setProtocolFeeDestination",
      "outputs": [],
      "stateMutability": "nonpayable",
      "type": "function"
    },
    {
      "inputs": [
        {
          "internalType": "uint256",
          "name": "_feePercent",
          "type": "uint256"
        }
      ],
      "name": "setProtocolFeePercent",
      "outputs": [],
      "stateMutability": "nonpayable",
      "type": "function"
    },
    {
      "inputs": [
        {
          "internalType": "string",
          "name": "",
          "type": "string"
        }
      ],
      "name": "topics",
      "outputs": [
        {
          "internalType": "uint256",
          "name": "supply",
          "type": "uint256"
        },
        {
          "internalType": "uint256",
          "name": "accFeePerUnit",
          "type": "uint256"
        }
      ],
      "stateMutability": "view",
      "type": "function"
    },
    {
      "inputs": [
        {
          "internalType": "address",
          "name": "newOwner",
          "type": "address"
        }
      ],
      "name": "transferOwnership",
      "outputs": [],
      "stateMutability": "nonpayable",
      "type": "function"
    }
  ],
  "bytecode": "0x608060405234801561001057600080fd5b506119cf806100206000396000f3fe6080604052600436106101405760003560e01c8063a10786b0116100b6578063c569aec61161006f578063c569aec614610385578063c889eba81461039b578063d6e6eb9f146103bb578063ea09c0eb146103d1578063f2fde38b14610435578063f75c6c721461045557600080fd5b8063a10786b0146102c5578063a4983421146102e5578063ae4a452514610305578063b5b44ae714610325578063b9979bd514610345578063be3b9f2d1461036557600080fd5b806363301bad1161010857806363301bad1461021d578063715018a61461023f5780637ba64827146102545780638674864f146102745780638da5cb5b146102875780639e5fbb23146102a557600080fd5b80631686b5ee146101455780633bbee6bc14610178578063481855b3146101985780634ce7957c146101c55780635cf4ee91146101fd575b600080fd5b34801561015157600080fd5b50610165610160366004611580565b610494565b6040519081526020015b60405180910390f35b34801561018457600080fd5b506101656101933660046115da565b61050e565b3480156101a457600080fd5b506101b86101b33660046116cb565b6105c5565b60405161016f9190611701565b3480156101d157600080fd5b506098546101e5906001600160a01b031681565b6040516001600160a01b03909116815260200161016f565b34801561020957600080fd5b50610165610218366004611745565b610668565b34801561022957600080fd5b5061023d610238366004611580565b610740565b005b34801561024b57600080fd5b5061023d6109ca565b34801561026057600080fd5b5061023d61026f366004611767565b6109de565b61023d610282366004611580565b610af1565b34801561029357600080fd5b506033546001600160a01b03166101e5565b3480156102b157600080fd5b506101656102c0366004611580565b610da9565b3480156102d157600080fd5b5061023d6102e03660046117a4565b610ddb565b3480156102f157600080fd5b5061023d6103003660046117c1565b610e2d565b34801561031157600080fd5b5061023d6103203660046117da565b610e71565b34801561033157600080fd5b5061023d610340366004611817565b61104a565b34801561035157600080fd5b50610165610360366004611580565b611093565b34801561037157600080fd5b5061023d6103803660046117c1565b611101565b34801561039157600080fd5b50610165609a5481565b3480156103a757600080fd5b506101656103b6366004611580565b61113e565b3480156103c757600080fd5b5061016560995481565b3480156103dd57600080fd5b506104206103ec3660046115da565b8151602081840181018051609c82529282019482019490942091909352909152600090815260409020805460019091015482565b6040805192835260208301919091520161016f565b34801561044157600080fd5b5061023d6104503660046117a4565b611174565b34801561046157600080fd5b50610420610470366004611767565b8051602081830181018051609b825292820191909301209152805460019091015482565b6000806104a1848461113e565b90506000670de0b6b3a7640000609954836104bc9190611862565b6104c69190611879565b90506000670de0b6b3a7640000609a54846104e19190611862565b6104eb9190611879565b9050806104f8838561189b565b610502919061189b565b93505050505b92915050565b600080609b8460405161052191906118ae565b908152604080519182900360209081018320838301835280548452600101549083015251909150600090609c906105599087906118ae565b90815260408051602092819003830181206001600160a01b038816600090815290845282812082840190935282548083526001909301548483015292850151909350612710916105a99190611862565b6105b39190611879565b905081602001518161050291906118dd565b6060825167ffffffffffffffff8111156105e1576105e16114c9565b60405190808252806020026020018201604052801561060a578160200160208202803683370190505b50905060005b83518110156106615761063c84828151811061062e5761062e6118fd565b60200260200101518461050e565b82828151811061064e5761064e6118fd565b6020908102919091010152600101610610565b5092915050565b6000806006610678856002611862565b610683906001611913565b61068e866001611913565b6106989087611862565b6106a29190611862565b6106ac9190611879565b9050600060066106bc8587611913565b6106c7906002611862565b6106d2906001611913565b856106de886001611913565b6106e89190611913565b6106f28789611913565b6106fc9190611862565b6107069190611862565b6107109190611879565b9050600061071e838361189b565b60975490915061073682670de0b6b3a7640000611862565b6105029190611879565b6107486111ea565b6000610754838361113e565b90506000670de0b6b3a76400006099548361076f9190611862565b6107799190611879565b90506000670de0b6b3a7640000609a54846107949190611862565b61079e9190611879565b90506000609b866040516107b291906118ae565b908152604080519182900360209081018320838301835280548452600101549083015251909150600090609c906107ea9089906118ae565b908152604080516020928190038301902033600090815292529020825190915061081661271085611862565b6108209190611879565b826020018181516108319190611913565b90525081518690839061084590839061189b565b9052506040518290609b9061085b908a906118ae565b908152604051602091819003820190208251815591015160019091015580548611156108c55760405162461bcd60e51b8152602060048201526014602482015273496e73756666696369656e742062616c616e636560601b60448201526064015b60405180910390fd5b858160000160008282546108d9919061189b565b90915550506020820151612710906108f19088611862565b6108fb9190611879565b81600101600082825461090e91906118dd565b909155506000905083610921868861189b565b61092b919061189b565b90506109373382611243565b60985461094d906001600160a01b031686611243565b60405160009061095e908a906118ae565b6040805191829003822086518b8452602084018b90528383018a90526060840189905260808401529051909133917fb4b02d47105389f3380565d54340dc3ebd4f0ec34fca12be6b16364e7ae5b9e29181900360a00190a45050505050506109c66001606555565b5050565b6109d2611368565b6109dc60006113c2565b565b6109e66111ea565b6000609b826040516109f891906118ae565b908152604080519182900360209081018320838301835280548452600101549083015251909150600090609c90610a309085906118ae565b9081526040805160209281900383019020336000908152908352908120918401518254929350909161271091610a6591611862565b610a6f9190611879565b90506000826001015482610a8391906118dd565b600184018390559050610a963382611243565b84604051610aa491906118ae565b6040519081900381208282529033907f2d3319a1aa02eca40304815d8619eaa479cf2aecc1b6f2a0e636259216ca1f339060200160405180910390a350505050610aee6001606555565b50565b610af96111ea565b6000610b058383610da9565b90506000670de0b6b3a764000060995483610b209190611862565b610b2a9190611879565b90506000670de0b6b3a7640000609a5484610b459190611862565b610b4f9190611879565b905080610b5c8385611913565b610b669190611913565b341015610bac5760405162461bcd60e51b8152602060048201526014602482015273125b9cdd59999a58da595b9d081c185e5b595b9d60621b60448201526064016108bc565b6000609b86604051610bbe91906118ae565b908152604080519182900360209081018320838301835280548452600101549083015251909150600090609c90610bf69089906118ae565b908152604080516020928190038301902033600090815292528120805490925087918391610c25908490611913565b9091555050602082015161271090610c3d9088611862565b610c479190611879565b816001016000828254610c5a9190611926565b9091555050815186908390610c70908390611913565b9052508151610c8161271085611862565b610c8b9190611879565b82602001818151610c9c9190611913565b9052506040518290609b90610cb2908a906118ae565b9081526040516020918190038201902082518155910151600190910155609854610ce5906001600160a01b031685611243565b82610cf08587611913565b610cfa9190611913565b341115610d315760008385610d0f883461189b565b610d19919061189b565b610d23919061189b565b9050610d2f3382611243565b505b604051600190610d429089906118ae565b6040805191829003822085518a8452602084018a90528383018990526060840188905260808401529051909133917fb4b02d47105389f3380565d54340dc3ebd4f0ec34fca12be6b16364e7ae5b9e29181900360a00190a450505050506109c66001606555565b6000610dd4609b84604051610dbe91906118ae565b9081526040519081900360200190205483610668565b9392505050565b610de3611368565b609880546001600160a01b0319166001600160a01b0383169081179091556040517f72fe3f5fb15c2671900303001fbe3a8adf9df5c76bfd269a9508c8753b9c35c990600090a250565b610e35611368565b60998190556040518181527f98d1698e9a7ee55a2ded97de72077c93add26ce8534679021d0e7c44edcb325b906020015b60405180910390a150565b600054610100900460ff1615808015610e915750600054600160ff909116105b80610eab5750303b158015610eab575060005460ff166001145b610f0e5760405162461bcd60e51b815260206004820152602e60248201527f496e697469616c697a61626c653a20636f6e747261637420697320616c72656160448201526d191e481a5b9a5d1a585b1a5e995960921b60648201526084016108bc565b6000805460ff191660011790558015610f31576000805461ff0019166101001790555b610f39611414565b610f41611443565b6097859055609880546001600160a01b0319166001600160a01b0386169081179091556099849055609a8390556040517f72fe3f5fb15c2671900303001fbe3a8adf9df5c76bfd269a9508c8753b9c35c990600090a26040518381527f98d1698e9a7ee55a2ded97de72077c93add26ce8534679021d0e7c44edcb325b9060200160405180910390a16040518281527f1bf7c57da18b4d55c69dc98c3b4c0bdb9fa61b3ac3979937c6e1c8958f1f937a9060200160405180910390a18015611043576000805461ff0019169055604051600181527f7f26b83ff96e1f2b6a682f133852f6798a09c465da95921460cefb38474024989060200160405180910390a15b5050505050565b6110526111ea565b60005b815181101561108857611080828281518110611073576110736118fd565b60200260200101516109de565b600101611055565b50610aee6001606555565b6000806110a08484610da9565b90506000670de0b6b3a7640000609954836110bb9190611862565b6110c59190611879565b90506000670de0b6b3a7640000609a54846110e09190611862565b6110ea9190611879565b9050806110f78385611913565b6105029190611913565b611109611368565b609a8190556040518181527f1bf7c57da18b4d55c69dc98c3b4c0bdb9fa61b3ac3979937c6e1c8958f1f937a90602001610e66565b6000610dd482609b8560405161115491906118ae565b9081526040519081900360200190205461116e919061189b565b83610668565b61117c611368565b6001600160a01b0381166111e15760405162461bcd60e51b815260206004820152602660248201527f4f776e61626c653a206e6577206f776e657220697320746865207a65726f206160448201526564647265737360d01b60648201526084016108bc565b610aee816113c2565b60026065540361123c5760405162461bcd60e51b815260206004820152601f60248201527f5265656e7472616e637947756172643a207265656e7472616e742063616c6c0060448201526064016108bc565b6002606555565b804710156112935760405162461bcd60e51b815260206004820152601d60248201527f416464726573733a20696e73756666696369656e742062616c616e636500000060448201526064016108bc565b6000826001600160a01b03168260405160006040518083038185875af1925050503d80600081146112e0576040519150601f19603f3d011682016040523d82523d6000602084013e6112e5565b606091505b505090508061135c5760405162461bcd60e51b815260206004820152603a60248201527f416464726573733a20756e61626c6520746f2073656e642076616c75652c207260448201527f6563697069656e74206d6179206861766520726576657274656400000000000060648201526084016108bc565b505050565b6001606555565b6033546001600160a01b031633146109dc5760405162461bcd60e51b815260206004820181905260248201527f4f776e61626c653a2063616c6c6572206973206e6f7420746865206f776e657260448201526064016108bc565b603380546001600160a01b038381166001600160a01b0319831681179093556040519116919082907f8be0079c531659141344cd1fd0a4f28419497f9722a3daafe3b4186f6b6457e090600090a35050565b600054610100900460ff1661143b5760405162461bcd60e51b81526004016108bc9061194e565b6109dc611472565b600054610100900460ff1661146a5760405162461bcd60e51b81526004016108bc9061194e565b6109dc6114a2565b600054610100900460ff166114995760405162461bcd60e51b81526004016108bc9061194e565b6109dc336113c2565b600054610100900460ff166113615760405162461bcd60e51b81526004016108bc9061194e565b634e487b7160e01b600052604160045260246000fd5b604051601f8201601f1916810167ffffffffffffffff81118282101715611508576115086114c9565b604052919050565b600082601f83011261152157600080fd5b813567ffffffffffffffff81111561153b5761153b6114c9565b61154e601f8201601f19166020016114df565b81815284602083860101111561156357600080fd5b816020850160208301376000918101602001919091529392505050565b6000806040838503121561159357600080fd5b823567ffffffffffffffff8111156115aa57600080fd5b6115b685828601611510565b95602094909401359450505050565b6001600160a01b0381168114610aee57600080fd5b600080604083850312156115ed57600080fd5b823567ffffffffffffffff81111561160457600080fd5b61161085828601611510565b9250506020830135611621816115c5565b809150509250929050565b600082601f83011261163d57600080fd5b8135602067ffffffffffffffff8083111561165a5761165a6114c9565b8260051b6116698382016114df565b938452858101830193838101908886111561168357600080fd5b84880192505b858310156116bf578235848111156116a15760008081fd5b6116af8a87838c0101611510565b8352509184019190840190611689565b98975050505050505050565b600080604083850312156116de57600080fd5b823567ffffffffffffffff8111156116f557600080fd5b6116108582860161162c565b6020808252825182820181905260009190848201906040850190845b818110156117395783518352928401929184019160010161171d565b50909695505050505050565b6000806040838503121561175857600080fd5b50508035926020909101359150565b60006020828403121561177957600080fd5b813567ffffffffffffffff81111561179057600080fd5b61179c84828501611510565b949350505050565b6000602082840312156117b657600080fd5b8135610dd4816115c5565b6000602082840312156117d357600080fd5b5035919050565b600080600080608085870312156117f057600080fd5b843593506020850135611802816115c5565b93969395505050506040820135916060013590565b60006020828403121561182957600080fd5b813567ffffffffffffffff81111561184057600080fd5b61179c8482850161162c565b634e487b7160e01b600052601160045260246000fd5b80820281158282048414176105085761050861184c565b60008261189657634e487b7160e01b600052601260045260246000fd5b500490565b818103818111156105085761050861184c565b6000825160005b818110156118cf57602081860181015185830152016118b5565b506000920191825250919050565b81810360008312801583831316838312821617156106615761066161184c565b634e487b7160e01b600052603260045260246000fd5b808201808211156105085761050861184c565b80820182811260008312801582168215821617156119465761194661184c565b505092915050565b6020808252602b908201527f496e697469616c697a61626c653a20636f6e7472616374206973206e6f74206960408201526a6e697469616c697a696e6760a81b60608201526080019056fea2646970667358221220330df4604a15e5e347daae808d1ba81757a537883a897dc90e26b116b28e6dff64736f6c63430008170033",
  "linkReferences": {},
  "deployedLinkReferences": {}
}